{
	"crowdfunding.sol": {
		"CrowdFunding": {
			"abi": [
				{
					"inputs": [
						{
							"internalType": "uint256",
							"name": "_target",
							"type": "uint256"
						},
						{
							"internalType": "uint256",
							"name": "_deadline",
							"type": "uint256"
						}
					],
					"stateMutability": "nonpayable",
					"type": "constructor"
				},
				{
					"inputs": [
						{
							"internalType": "address",
							"name": "",
							"type": "address"
						}
					],
					"name": "contributors",
					"outputs": [
						{
							"internalType": "uint256",
							"name": "",
							"type": "uint256"
						}
					],
					"stateMutability": "view",
					"type": "function"
				},
				{
					"inputs": [
						{
							"internalType": "string",
							"name": "_description",
							"type": "string"
						},
						{
							"internalType": "address payable",
							"name": "_recipient",
							"type": "address"
						},
						{
							"internalType": "uint256",
							"name": "_value",
							"type": "uint256"
						}
					],
					"name": "createRequests",
					"outputs": [],
					"stateMutability": "nonpayable",
					"type": "function"
				},
				{
					"inputs": [],
					"name": "deadline",
					"outputs": [
						{
							"internalType": "uint256",
							"name": "",
							"type": "uint256"
						}
					],
					"stateMutability": "view",
					"type": "function"
				},
				{
					"inputs": [],
					"name": "getContractBalance",
					"outputs": [
						{
							"internalType": "uint256",
							"name": "",
							"type": "uint256"
						}
					],
					"stateMutability": "view",
					"type": "function"
				},
				{
					"inputs": [
						{
							"internalType": "uint256",
							"name": "_requestNo",
							"type": "uint256"
						}
					],
					"name": "makePayment",
					"outputs": [],
					"stateMutability": "nonpayable",
					"type": "function"
				},
				{
					"inputs": [],
					"name": "manager",
					"outputs": [
						{
							"internalType": "address",
							"name": "",
							"type": "address"
						}
					],
					"stateMutability": "view",
					"type": "function"
				},
				{
					"inputs": [],
					"name": "minimumContribution",
					"outputs": [
						{
							"internalType": "uint256",
							"name": "",
							"type": "uint256"
						}
					],
					"stateMutability": "view",
					"type": "function"
				},
				{
					"inputs": [],
					"name": "noOfContributors",
					"outputs": [
						{
							"internalType": "uint256",
							"name": "",
							"type": "uint256"
						}
					],
					"stateMutability": "view",
					"type": "function"
				},
				{
					"inputs": [],
					"name": "numRequests",
					"outputs": [
						{
							"internalType": "uint256",
							"name": "",
							"type": "uint256"
						}
					],
					"stateMutability": "view",
					"type": "function"
				},
				{
					"inputs": [],
					"name": "raisedAmount",
					"outputs": [
						{
							"internalType": "uint256",
							"name": "",
							"type": "uint256"
						}
					],
					"stateMutability": "view",
					"type": "function"
				},
				{
					"inputs": [],
					"name": "refund",
					"outputs": [],
					"stateMutability": "nonpayable",
					"type": "function"
				},
				{
					"inputs": [
						{
							"internalType": "uint256",
							"name": "",
							"type": "uint256"
						}
					],
					"name": "requests",
					"outputs": [
						{
							"internalType": "string",
							"name": "description",
							"type": "string"
						},
						{
							"internalType": "address payable",
							"name": "recipient",
							"type": "address"
						},
						{
							"internalType": "uint256",
							"name": "value",
							"type": "uint256"
						},
						{
							"internalType": "bool",
							"name": "completed",
							"type": "bool"
						},
						{
							"internalType": "uint256",
							"name": "noOfVoters",
							"type": "uint256"
						}
					],
					"stateMutability": "view",
					"type": "function"
				},
				{
					"inputs": [],
					"name": "sendEth",
					"outputs": [],
					"stateMutability": "payable",
					"type": "function"
				},
				{
					"inputs": [],
					"name": "target",
					"outputs": [
						{
							"internalType": "uint256",
							"name": "",
							"type": "uint256"
						}
					],
					"stateMutability": "view",
					"type": "function"
				},
				{
					"inputs": [
						{
							"internalType": "uint256",
							"name": "_requestNo",
							"type": "uint256"
						}
					],
					"name": "voteRequest",
					"outputs": [],
					"stateMutability": "nonpayable",
					"type": "function"
				}
			],
			"devdoc": {
				"kind": "dev",
				"methods": {},
				"version": 1
			},
			"evm": {
				"assembly": "    /* \"crowdfunding.sol\":724:3841  contract CrowdFunding {... */\n  mstore(0x40, 0x80)\n    /* \"crowdfunding.sol\":1288:1506  constructor(uint _target, uint _deadline) {... */\n  callvalue\n  dup1\n  iszero\n  tag_1\n  jumpi\n  0x00\n  dup1\n  revert\ntag_1:\n  pop\n  mload(0x40)\n  sub(codesize, bytecodeSize)\n  dup1\n  bytecodeSize\n  dup4\n  codecopy\n  dup2\n  dup2\n  add\n  0x40\n  mstore\n  dup2\n  add\n  swap1\n  tag_2\n  swap2\n  swap1\n  tag_3\n  jump\t// in\ntag_2:\n    /* \"crowdfunding.sol\":1349:1356  _target */\n  dup2\n    /* \"crowdfunding.sol\":1340:1346  target */\n  0x04\n    /* \"crowdfunding.sol\":1340:1356  target = _target */\n  dup2\n  swap1\n  sstore\n  pop\n    /* \"crowdfunding.sol\":1395:1404  _deadline */\n  dup1\n    /* \"crowdfunding.sol\":1377:1392  block.timestamp */\n  timestamp\n    /* \"crowdfunding.sol\":1377:1404  block.timestamp + _deadline */\n  tag_6\n  swap2\n  swap1\n  tag_7\n  jump\t// in\ntag_6:\n    /* \"crowdfunding.sol\":1366:1374  deadline */\n  0x03\n    /* \"crowdfunding.sol\":1366:1404  deadline = block.timestamp + _deadline */\n  dup2\n  swap1\n  sstore\n  pop\n    /* \"crowdfunding.sol\":1462:1469  100 wei */\n  0x64\n    /* \"crowdfunding.sol\":1440:1459  minimumContribution */\n  0x02\n    /* \"crowdfunding.sol\":1440:1469  minimumContribution = 100 wei */\n  dup2\n  swap1\n  sstore\n  pop\n    /* \"crowdfunding.sol\":1489:1499  msg.sender */\n  caller\n    /* \"crowdfunding.sol\":1479:1486  manager */\n  0x01\n  0x00\n    /* \"crowdfunding.sol\":1479:1499  manager = msg.sender */\n  0x0100\n  exp\n  dup2\n  sload\n  dup2\n  0xffffffffffffffffffffffffffffffffffffffff\n  mul\n  not\n  and\n  swap1\n  dup4\n  0xffffffffffffffffffffffffffffffffffffffff\n  and\n  mul\n  or\n  swap1\n  sstore\n  pop\n    /* \"crowdfunding.sol\":1288:1506  constructor(uint _target, uint _deadline) {... */\n  pop\n  pop\n    /* \"crowdfunding.sol\":724:3841  contract CrowdFunding {... */\n  jump(tag_8)\n    /* \"#utility.yul\":88:205   */\ntag_10:\n    /* \"#utility.yul\":197:198   */\n  0x00\n    /* \"#utility.yul\":194:195   */\n  dup1\n    /* \"#utility.yul\":187:199   */\n  revert\n    /* \"#utility.yul\":334:411   */\ntag_12:\n    /* \"#utility.yul\":371:378   */\n  0x00\n    /* \"#utility.yul\":400:405   */\n  dup2\n    /* \"#utility.yul\":389:405   */\n  swap1\n  pop\n    /* \"#utility.yul\":334:411   */\n  swap2\n  swap1\n  pop\n  jump\t// out\n    /* \"#utility.yul\":417:539   */\ntag_13:\n    /* \"#utility.yul\":490:514   */\n  tag_22\n    /* \"#utility.yul\":508:513   */\n  dup2\n    /* \"#utility.yul\":490:514   */\n  tag_12\n  jump\t// in\ntag_22:\n    /* \"#utility.yul\":483:488   */\n  dup2\n    /* \"#utility.yul\":480:515   */\n  eq\n    /* \"#utility.yul\":470:533   */\n  tag_23\n  jumpi\n    /* \"#utility.yul\":529:530   */\n  0x00\n    /* \"#utility.yul\":526:527   */\n  dup1\n    /* \"#utility.yul\":519:531   */\n  revert\n    /* \"#utility.yul\":470:533   */\ntag_23:\n    /* \"#utility.yul\":417:539   */\n  pop\n  jump\t// out\n    /* \"#utility.yul\":545:688   */\ntag_14:\n    /* \"#utility.yul\":602:607   */\n  0x00\n    /* \"#utility.yul\":633:639   */\n  dup2\n    /* \"#utility.yul\":627:640   */\n  mload\n    /* \"#utility.yul\":618:640   */\n  swap1\n  pop\n    /* \"#utility.yul\":649:682   */\n  tag_25\n    /* \"#utility.yul\":676:681   */\n  dup2\n    /* \"#utility.yul\":649:682   */\n  tag_13\n  jump\t// in\ntag_25:\n    /* \"#utility.yul\":545:688   */\n  swap3\n  swap2\n  pop\n  pop\n  jump\t// out\n    /* \"#utility.yul\":694:1201   */\ntag_3:\n    /* \"#utility.yul\":773:779   */\n  0x00\n    /* \"#utility.yul\":781:787   */\n  dup1\n    /* \"#utility.yul\":830:832   */\n  0x40\n    /* \"#utility.yul\":818:827   */\n  dup4\n    /* \"#utility.yul\":809:816   */\n  dup6\n    /* \"#utility.yul\":805:828   */\n  sub\n    /* \"#utility.yul\":801:833   */\n  slt\n    /* \"#utility.yul\":798:917   */\n  iszero\n  tag_27\n  jumpi\n    /* \"#utility.yul\":836:915   */\n  tag_28\n  tag_10\n  jump\t// in\ntag_28:\n    /* \"#utility.yul\":798:917   */\ntag_27:\n    /* \"#utility.yul\":956:957   */\n  0x00\n    /* \"#utility.yul\":981:1045   */\n  tag_29\n    /* \"#utility.yul\":1037:1044   */\n  dup6\n    /* \"#utility.yul\":1028:1034   */\n  dup3\n    /* \"#utility.yul\":1017:1026   */\n  dup7\n    /* \"#utility.yul\":1013:1035   */\n  add\n    /* \"#utility.yul\":981:1045   */\n  tag_14\n  jump\t// in\ntag_29:\n    /* \"#utility.yul\":971:1045   */\n  swap3\n  pop\n    /* \"#utility.yul\":927:1055   */\n  pop\n    /* \"#utility.yul\":1094:1096   */\n  0x20\n    /* \"#utility.yul\":1120:1184   */\n  tag_30\n    /* \"#utility.yul\":1176:1183   */\n  dup6\n    /* \"#utility.yul\":1167:1173   */\n  dup3\n    /* \"#utility.yul\":1156:1165   */\n  dup7\n    /* \"#utility.yul\":1152:1174   */\n  add\n    /* \"#utility.yul\":1120:1184   */\n  tag_14\n  jump\t// in\ntag_30:\n    /* \"#utility.yul\":1110:1184   */\n  swap2\n  pop\n    /* \"#utility.yul\":1065:1194   */\n  pop\n    /* \"#utility.yul\":694:1201   */\n  swap3\n  pop\n  swap3\n  swap1\n  pop\n  jump\t// out\n    /* \"#utility.yul\":1207:1387   */\ntag_15:\n    /* \"#utility.yul\":1255:1332   */\n  0x4e487b7100000000000000000000000000000000000000000000000000000000\n    /* \"#utility.yul\":1252:1253   */\n  0x00\n    /* \"#utility.yul\":1245:1333   */\n  mstore\n    /* \"#utility.yul\":1352:1356   */\n  0x11\n    /* \"#utility.yul\":1349:1350   */\n  0x04\n    /* \"#utility.yul\":1342:1357   */\n  mstore\n    /* \"#utility.yul\":1376:1380   */\n  0x24\n    /* \"#utility.yul\":1373:1374   */\n  0x00\n    /* \"#utility.yul\":1366:1381   */\n  revert\n    /* \"#utility.yul\":1393:1584   */\ntag_7:\n    /* \"#utility.yul\":1433:1436   */\n  0x00\n    /* \"#utility.yul\":1452:1472   */\n  tag_33\n    /* \"#utility.yul\":1470:1471   */\n  dup3\n    /* \"#utility.yul\":1452:1472   */\n  tag_12\n  jump\t// in\ntag_33:\n    /* \"#utility.yul\":1447:1472   */\n  swap2\n  pop\n    /* \"#utility.yul\":1486:1506   */\n  tag_34\n    /* \"#utility.yul\":1504:1505   */\n  dup4\n    /* \"#utility.yul\":1486:1506   */\n  tag_12\n  jump\t// in\ntag_34:\n    /* \"#utility.yul\":1481:1506   */\n  swap3\n  pop\n    /* \"#utility.yul\":1529:1530   */\n  dup3\n    /* \"#utility.yul\":1526:1527   */\n  dup3\n    /* \"#utility.yul\":1522:1531   */\n  add\n    /* \"#utility.yul\":1515:1531   */\n  swap1\n  pop\n    /* \"#utility.yul\":1550:1553   */\n  dup1\n    /* \"#utility.yul\":1547:1548   */\n  dup3\n    /* \"#utility.yul\":1544:1554   */\n  gt\n    /* \"#utility.yul\":1541:1577   */\n  iszero\n  tag_35\n  jumpi\n    /* \"#utility.yul\":1557:1575   */\n  tag_36\n  tag_15\n  jump\t// in\ntag_36:\n    /* \"#utility.yul\":1541:1577   */\ntag_35:\n    /* \"#utility.yul\":1393:1584   */\n  swap3\n  swap2\n  pop\n  pop\n  jump\t// out\n    /* \"crowdfunding.sol\":724:3841  contract CrowdFunding {... */\ntag_8:\n  dataSize(sub_0)\n  dup1\n  dataOffset(sub_0)\n  0x00\n  codecopy\n  0x00\n  return\nstop\n\nsub_0: assembly {\n        /* \"crowdfunding.sol\":724:3841  contract CrowdFunding {... */\n      mstore(0x40, 0x80)\n      jumpi(tag_1, lt(calldatasize, 0x04))\n      shr(0xe0, calldataload(0x00))\n      dup1\n      0x5114cb52\n      gt\n      tag_17\n      jumpi\n      dup1\n      0x937e09b1\n      gt\n      tag_18\n      jumpi\n      dup1\n      0x937e09b1\n      eq\n      tag_13\n      jumpi\n      dup1\n      0x9fb42b1f\n      eq\n      tag_14\n      jumpi\n      dup1\n      0xc59ee1dc\n      eq\n      tag_15\n      jumpi\n      dup1\n      0xd4b83992\n      eq\n      tag_16\n      jumpi\n      jump(tag_1)\n    tag_18:\n      dup1\n      0x5114cb52\n      eq\n      tag_9\n      jumpi\n      dup1\n      0x590e1ae3\n      eq\n      tag_10\n      jumpi\n      dup1\n      0x6f9fb98a\n      eq\n      tag_11\n      jumpi\n      dup1\n      0x81d12c58\n      eq\n      tag_12\n      jumpi\n      jump(tag_1)\n    tag_17:\n      dup1\n      0x3eb7647b\n      gt\n      tag_19\n      jumpi\n      dup1\n      0x3eb7647b\n      eq\n      tag_5\n      jumpi\n      dup1\n      0x481c6a75\n      eq\n      tag_6\n      jumpi\n      dup1\n      0x4cb6f4a5\n      eq\n      tag_7\n      jumpi\n      dup1\n      0x4e260f6f\n      eq\n      tag_8\n      jumpi\n      jump(tag_1)\n    tag_19:\n      dup1\n      0x06e99fef\n      eq\n      tag_2\n      jumpi\n      dup1\n      0x1f6d4942\n      eq\n      tag_3\n      jumpi\n      dup1\n      0x29dcb0cf\n      eq\n      tag_4\n      jumpi\n    tag_1:\n      0x00\n      dup1\n      revert\n        /* \"crowdfunding.sol\":1512:1911  function sendEth() public payable {... */\n    tag_2:\n      tag_20\n      tag_21\n      jump\t// in\n    tag_20:\n      stop\n        /* \"crowdfunding.sol\":752:796  mapping(address => uint) public contributors */\n    tag_3:\n      callvalue\n      dup1\n      iszero\n      tag_22\n      jumpi\n      0x00\n      dup1\n      revert\n    tag_22:\n      pop\n      tag_23\n      0x04\n      dup1\n      calldatasize\n      sub\n      dup2\n      add\n      swap1\n      tag_24\n      swap2\n      swap1\n      tag_25\n      jump\t// in\n    tag_24:\n      tag_26\n      jump\t// in\n    tag_23:\n      mload(0x40)\n      tag_27\n      swap2\n      swap1\n      tag_28\n      jump\t// in\n    tag_27:\n      mload(0x40)\n      dup1\n      swap2\n      sub\n      swap1\n      return\n        /* \"crowdfunding.sol\":898:918  uint public deadline */\n    tag_4:\n      callvalue\n      dup1\n      iszero\n      tag_29\n      jumpi\n      0x00\n      dup1\n      revert\n    tag_29:\n      pop\n      tag_30\n      tag_31\n      jump\t// in\n    tag_30:\n      mload(0x40)\n      tag_32\n      swap2\n      swap1\n      tag_28\n      jump\t// in\n    tag_32:\n      mload(0x40)\n      dup1\n      swap2\n      sub\n      swap1\n      return\n        /* \"crowdfunding.sol\":2510:2939  function createRequests(... */\n    tag_5:\n      callvalue\n      dup1\n      iszero\n      tag_33\n      jumpi\n      0x00\n      dup1\n      revert\n    tag_33:\n      pop\n      tag_34\n      0x04\n      dup1\n      calldatasize\n      sub\n      dup2\n      add\n      swap1\n      tag_35\n      swap2\n      swap1\n      tag_36\n      jump\t// in\n    tag_35:\n      tag_37\n      jump\t// in\n    tag_34:\n      stop\n        /* \"crowdfunding.sol\":833:855  address public manager */\n    tag_6:\n      callvalue\n      dup1\n      iszero\n      tag_38\n      jumpi\n      0x00\n      dup1\n      revert\n    tag_38:\n      pop\n      tag_39\n      tag_40\n      jump\t// in\n    tag_39:\n      mload(0x40)\n      tag_41\n      swap2\n      swap1\n      tag_42\n      jump\t// in\n    tag_41:\n      mload(0x40)\n      dup1\n      swap2\n      sub\n      swap1\n      return\n        /* \"crowdfunding.sol\":2944:3329  function voteRequest(uint _requestNo) public {... */\n    tag_7:\n      callvalue\n      dup1\n      iszero\n      tag_43\n      jumpi\n      0x00\n      dup1\n      revert\n    tag_43:\n      pop\n      tag_44\n      0x04\n      dup1\n      calldatasize\n      sub\n      dup2\n      add\n      swap1\n      tag_45\n      swap2\n      swap1\n      tag_46\n      jump\t// in\n    tag_45:\n      tag_47\n      jump\t// in\n    tag_44:\n      stop\n        /* \"crowdfunding.sol\":978:1006  uint public noOfContributors */\n    tag_8:\n      callvalue\n      dup1\n      iszero\n      tag_48\n      jumpi\n      0x00\n      dup1\n      revert\n    tag_48:\n      pop\n      tag_49\n      tag_50\n      jump\t// in\n    tag_49:\n      mload(0x40)\n      tag_51\n      swap2\n      swap1\n      tag_28\n      jump\t// in\n    tag_51:\n      mload(0x40)\n      dup1\n      swap2\n      sub\n      swap1\n      return\n        /* \"crowdfunding.sol\":3334:3839  function makePayment(uint _requestNo) public onlyManger {... */\n    tag_9:\n      callvalue\n      dup1\n      iszero\n      tag_52\n      jumpi\n      0x00\n      dup1\n      revert\n    tag_52:\n      pop\n      tag_53\n      0x04\n      dup1\n      calldatasize\n      sub\n      dup2\n      add\n      swap1\n      tag_54\n      swap2\n      swap1\n      tag_46\n      jump\t// in\n    tag_54:\n      tag_55\n      jump\t// in\n    tag_53:\n      stop\n        /* \"crowdfunding.sol\":2023:2380  function refund() public {... */\n    tag_10:\n      callvalue\n      dup1\n      iszero\n      tag_56\n      jumpi\n      0x00\n      dup1\n      revert\n    tag_56:\n      pop\n      tag_57\n      tag_58\n      jump\t// in\n    tag_57:\n      stop\n        /* \"crowdfunding.sol\":1916:2018  function getContractBalance() public view returns (uint) {... */\n    tag_11:\n      callvalue\n      dup1\n      iszero\n      tag_59\n      jumpi\n      0x00\n      dup1\n      revert\n    tag_59:\n      pop\n      tag_60\n      tag_61\n      jump\t// in\n    tag_60:\n      mload(0x40)\n      tag_62\n      swap2\n      swap1\n      tag_28\n      jump\t// in\n    tag_62:\n      mload(0x40)\n      dup1\n      swap2\n      sub\n      swap1\n      return\n        /* \"crowdfunding.sol\":1213:1253  mapping(uint => Request) public requests */\n    tag_12:\n      callvalue\n      dup1\n      iszero\n      tag_63\n      jumpi\n      0x00\n      dup1\n      revert\n    tag_63:\n      pop\n      tag_64\n      0x04\n      dup1\n      calldatasize\n      sub\n      dup2\n      add\n      swap1\n      tag_65\n      swap2\n      swap1\n      tag_46\n      jump\t// in\n    tag_65:\n      tag_66\n      jump\t// in\n    tag_64:\n      mload(0x40)\n      tag_67\n      swap6\n      swap5\n      swap4\n      swap3\n      swap2\n      swap1\n      tag_68\n      jump\t// in\n    tag_67:\n      mload(0x40)\n      dup1\n      swap2\n      sub\n      swap1\n      return\n        /* \"crowdfunding.sol\":861:892  uint public minimumContribution */\n    tag_13:\n      callvalue\n      dup1\n      iszero\n      tag_69\n      jumpi\n      0x00\n      dup1\n      revert\n    tag_69:\n      pop\n      tag_70\n      tag_71\n      jump\t// in\n    tag_70:\n      mload(0x40)\n      tag_72\n      swap2\n      swap1\n      tag_28\n      jump\t// in\n    tag_72:\n      mload(0x40)\n      dup1\n      swap2\n      sub\n      swap1\n      return\n        /* \"crowdfunding.sol\":1259:1282  uint public numRequests */\n    tag_14:\n      callvalue\n      dup1\n      iszero\n      tag_73\n      jumpi\n      0x00\n      dup1\n      revert\n    tag_73:\n      pop\n      tag_74\n      tag_75\n      jump\t// in\n    tag_74:\n      mload(0x40)\n      tag_76\n      swap2\n      swap1\n      tag_28\n      jump\t// in\n    tag_76:\n      mload(0x40)\n      dup1\n      swap2\n      sub\n      swap1\n      return\n        /* \"crowdfunding.sol\":948:972  uint public raisedAmount */\n    tag_15:\n      callvalue\n      dup1\n      iszero\n      tag_77\n      jumpi\n      0x00\n      dup1\n      revert\n    tag_77:\n      pop\n      tag_78\n      tag_79\n      jump\t// in\n    tag_78:\n      mload(0x40)\n      tag_80\n      swap2\n      swap1\n      tag_28\n      jump\t// in\n    tag_80:\n      mload(0x40)\n      dup1\n      swap2\n      sub\n      swap1\n      return\n        /* \"crowdfunding.sol\":924:942  uint public target */\n    tag_16:\n      callvalue\n      dup1\n      iszero\n      tag_81\n      jumpi\n      0x00\n      dup1\n      revert\n    tag_81:\n      pop\n      tag_82\n      tag_83\n      jump\t// in\n    tag_82:\n      mload(0x40)\n      tag_84\n      swap2\n      swap1\n      tag_28\n      jump\t// in\n    tag_84:\n      mload(0x40)\n      dup1\n      swap2\n      sub\n      swap1\n      return\n        /* \"crowdfunding.sol\":1512:1911  function sendEth() public payable {... */\n    tag_21:\n        /* \"crowdfunding.sol\":1582:1590  deadline */\n      sload(0x03)\n        /* \"crowdfunding.sol\":1564:1579  block.timestamp */\n      timestamp\n        /* \"crowdfunding.sol\":1564:1590  block.timestamp < deadline */\n      lt\n        /* \"crowdfunding.sol\":1556:1614  require(block.timestamp < deadline, \"Deadline has passed\") */\n      tag_86\n      jumpi\n      mload(0x40)\n      0x08c379a000000000000000000000000000000000000000000000000000000000\n      dup2\n      mstore\n      0x04\n      add\n      tag_87\n      swap1\n      tag_88\n      jump\t// in\n    tag_87:\n      mload(0x40)\n      dup1\n      swap2\n      sub\n      swap1\n      revert\n    tag_86:\n        /* \"crowdfunding.sol\":1658:1677  minimumContribution */\n      sload(0x02)\n        /* \"crowdfunding.sol\":1645:1654  msg.value */\n      callvalue\n        /* \"crowdfunding.sol\":1645:1677  msg.value >= minimumContribution */\n      lt\n      iszero\n        /* \"crowdfunding.sol\":1624:1734  require(... */\n      tag_89\n      jumpi\n      mload(0x40)\n      0x08c379a000000000000000000000000000000000000000000000000000000000\n      dup2\n      mstore\n      0x04\n      add\n      tag_90\n      swap1\n      tag_91\n      jump\t// in\n    tag_90:\n      mload(0x40)\n      dup1\n      swap2\n      sub\n      swap1\n      revert\n    tag_89:\n        /* \"crowdfunding.sol\":1777:1778  0 */\n      0x00\n        /* \"crowdfunding.sol\":1749:1761  contributors */\n      dup1\n        /* \"crowdfunding.sol\":1749:1773  contributors[msg.sender] */\n      0x00\n        /* \"crowdfunding.sol\":1762:1772  msg.sender */\n      caller\n        /* \"crowdfunding.sol\":1749:1773  contributors[msg.sender] */\n      0xffffffffffffffffffffffffffffffffffffffff\n      and\n      0xffffffffffffffffffffffffffffffffffffffff\n      and\n      dup2\n      mstore\n      0x20\n      add\n      swap1\n      dup2\n      mstore\n      0x20\n      add\n      0x00\n      keccak256\n      sload\n        /* \"crowdfunding.sol\":1749:1778  contributors[msg.sender] == 0 */\n      sub\n        /* \"crowdfunding.sol\":1745:1823  if (contributors[msg.sender] == 0) {... */\n      tag_92\n      jumpi\n        /* \"crowdfunding.sol\":1794:1810  noOfContributors */\n      0x06\n      0x00\n        /* \"crowdfunding.sol\":1794:1812  noOfContributors++ */\n      dup2\n      sload\n      dup1\n      swap3\n      swap2\n      swap1\n      tag_93\n      swap1\n      tag_94\n      jump\t// in\n    tag_93:\n      swap2\n      swap1\n      pop\n      sstore\n      pop\n        /* \"crowdfunding.sol\":1745:1823  if (contributors[msg.sender] == 0) {... */\n    tag_92:\n        /* \"crowdfunding.sol\":1860:1869  msg.value */\n      callvalue\n        /* \"crowdfunding.sol\":1832:1844  contributors */\n      0x00\n        /* \"crowdfunding.sol\":1832:1856  contributors[msg.sender] */\n      dup1\n        /* \"crowdfunding.sol\":1845:1855  msg.sender */\n      caller\n        /* \"crowdfunding.sol\":1832:1856  contributors[msg.sender] */\n      0xffffffffffffffffffffffffffffffffffffffff\n      and\n      0xffffffffffffffffffffffffffffffffffffffff\n      and\n      dup2\n      mstore\n      0x20\n      add\n      swap1\n      dup2\n      mstore\n      0x20\n      add\n      0x00\n      keccak256\n      0x00\n        /* \"crowdfunding.sol\":1832:1869  contributors[msg.sender] += msg.value */\n      dup3\n      dup3\n      sload\n      tag_95\n      swap2\n      swap1\n      tag_96\n      jump\t// in\n    tag_95:\n      swap3\n      pop\n      pop\n      dup2\n      swap1\n      sstore\n      pop\n        /* \"crowdfunding.sol\":1895:1904  msg.value */\n      callvalue\n        /* \"crowdfunding.sol\":1879:1891  raisedAmount */\n      0x05\n      0x00\n        /* \"crowdfunding.sol\":1879:1904  raisedAmount += msg.value */\n      dup3\n      dup3\n      sload\n      tag_97\n      swap2\n      swap1\n      tag_96\n      jump\t// in\n    tag_97:\n      swap3\n      pop\n      pop\n      dup2\n      swap1\n      sstore\n      pop\n        /* \"crowdfunding.sol\":1512:1911  function sendEth() public payable {... */\n      jump\t// out\n        /* \"crowdfunding.sol\":752:796  mapping(address => uint) public contributors */\n    tag_26:\n      mstore(0x20, 0x00)\n      dup1\n      0x00\n      mstore\n      keccak256(0x00, 0x40)\n      0x00\n      swap2\n      pop\n      swap1\n      pop\n      sload\n      dup2\n      jump\t// out\n        /* \"crowdfunding.sol\":898:918  uint public deadline */\n    tag_31:\n      sload(0x03)\n      dup2\n      jump\t// out\n        /* \"crowdfunding.sol\":2510:2939  function createRequests(... */\n    tag_37:\n        /* \"crowdfunding.sol\":2439:2446  manager */\n      0x01\n      0x00\n      swap1\n      sload\n      swap1\n      0x0100\n      exp\n      swap1\n      div\n      0xffffffffffffffffffffffffffffffffffffffff\n      and\n        /* \"crowdfunding.sol\":2425:2446  msg.sender == manager */\n      0xffffffffffffffffffffffffffffffffffffffff\n      and\n        /* \"crowdfunding.sol\":2425:2435  msg.sender */\n      caller\n        /* \"crowdfunding.sol\":2425:2446  msg.sender == manager */\n      0xffffffffffffffffffffffffffffffffffffffff\n      and\n      eq\n        /* \"crowdfunding.sol\":2417:2487  require(msg.sender == manager, \"Only manager can calll this function\") */\n      tag_99\n      jumpi\n      mload(0x40)\n      0x08c379a000000000000000000000000000000000000000000000000000000000\n      dup2\n      mstore\n      0x04\n      add\n      tag_100\n      swap1\n      tag_101\n      jump\t// in\n    tag_100:\n      mload(0x40)\n      dup1\n      swap2\n      sub\n      swap1\n      revert\n    tag_99:\n        /* \"crowdfunding.sol\":2661:2687  Request storage newRequest */\n      0x00\n        /* \"crowdfunding.sol\":2690:2698  requests */\n      0x07\n        /* \"crowdfunding.sol\":2690:2711  requests[numRequests] */\n      0x00\n        /* \"crowdfunding.sol\":2699:2710  numRequests */\n      sload(0x08)\n        /* \"crowdfunding.sol\":2690:2711  requests[numRequests] */\n      dup2\n      mstore\n      0x20\n      add\n      swap1\n      dup2\n      mstore\n      0x20\n      add\n      0x00\n      keccak256\n        /* \"crowdfunding.sol\":2661:2711  Request storage newRequest = requests[numRequests] */\n      swap1\n      pop\n        /* \"crowdfunding.sol\":2721:2732  numRequests */\n      0x08\n      0x00\n        /* \"crowdfunding.sol\":2721:2734  numRequests++ */\n      dup2\n      sload\n      dup1\n      swap3\n      swap2\n      swap1\n      tag_103\n      swap1\n      tag_94\n      jump\t// in\n    tag_103:\n      swap2\n      swap1\n      pop\n      sstore\n      pop\n        /* \"crowdfunding.sol\":2769:2781  _description */\n      dup4\n        /* \"crowdfunding.sol\":2744:2754  newRequest */\n      dup2\n        /* \"crowdfunding.sol\":2744:2766  newRequest.description */\n      0x00\n      add\n        /* \"crowdfunding.sol\":2744:2781  newRequest.description = _description */\n      swap1\n      dup2\n      tag_104\n      swap2\n      swap1\n      tag_105\n      jump\t// in\n    tag_104:\n      pop\n        /* \"crowdfunding.sol\":2814:2824  _recipient */\n      dup3\n        /* \"crowdfunding.sol\":2791:2801  newRequest */\n      dup2\n        /* \"crowdfunding.sol\":2791:2811  newRequest.recipient */\n      0x01\n      add\n      0x00\n        /* \"crowdfunding.sol\":2791:2824  newRequest.recipient = _recipient */\n      0x0100\n      exp\n      dup2\n      sload\n      dup2\n      0xffffffffffffffffffffffffffffffffffffffff\n      mul\n      not\n      and\n      swap1\n      dup4\n      0xffffffffffffffffffffffffffffffffffffffff\n      and\n      mul\n      or\n      swap1\n      sstore\n      pop\n        /* \"crowdfunding.sol\":2853:2859  _value */\n      dup2\n        /* \"crowdfunding.sol\":2834:2844  newRequest */\n      dup2\n        /* \"crowdfunding.sol\":2834:2850  newRequest.value */\n      0x02\n      add\n        /* \"crowdfunding.sol\":2834:2859  newRequest.value = _value */\n      dup2\n      swap1\n      sstore\n      pop\n        /* \"crowdfunding.sol\":2892:2897  false */\n      0x00\n        /* \"crowdfunding.sol\":2869:2879  newRequest */\n      dup2\n        /* \"crowdfunding.sol\":2869:2889  newRequest.completed */\n      0x03\n      add\n      0x00\n        /* \"crowdfunding.sol\":2869:2897  newRequest.completed = false */\n      0x0100\n      exp\n      dup2\n      sload\n      dup2\n      0xff\n      mul\n      not\n      and\n      swap1\n      dup4\n      iszero\n      iszero\n      mul\n      or\n      swap1\n      sstore\n      pop\n        /* \"crowdfunding.sol\":2931:2932  0 */\n      0x00\n        /* \"crowdfunding.sol\":2907:2917  newRequest */\n      dup2\n        /* \"crowdfunding.sol\":2907:2928  newRequest.noOfVoters */\n      0x04\n      add\n        /* \"crowdfunding.sol\":2907:2932  newRequest.noOfVoters = 0 */\n      dup2\n      swap1\n      sstore\n      pop\n        /* \"crowdfunding.sol\":2651:2939  {... */\n      pop\n        /* \"crowdfunding.sol\":2510:2939  function createRequests(... */\n      pop\n      pop\n      pop\n      jump\t// out\n        /* \"crowdfunding.sol\":833:855  address public manager */\n    tag_40:\n      0x01\n      0x00\n      swap1\n      sload\n      swap1\n      0x0100\n      exp\n      swap1\n      div\n      0xffffffffffffffffffffffffffffffffffffffff\n      and\n      dup2\n      jump\t// out\n        /* \"crowdfunding.sol\":2944:3329  function voteRequest(uint _requestNo) public {... */\n    tag_47:\n        /* \"crowdfunding.sol\":3034:3035  0 */\n      0x00\n        /* \"crowdfunding.sol\":3007:3019  contributors */\n      dup1\n        /* \"crowdfunding.sol\":3007:3031  contributors[msg.sender] */\n      0x00\n        /* \"crowdfunding.sol\":3020:3030  msg.sender */\n      caller\n        /* \"crowdfunding.sol\":3007:3031  contributors[msg.sender] */\n      0xffffffffffffffffffffffffffffffffffffffff\n      and\n      0xffffffffffffffffffffffffffffffffffffffff\n      and\n      dup2\n      mstore\n      0x20\n      add\n      swap1\n      dup2\n      mstore\n      0x20\n      add\n      0x00\n      keccak256\n      sload\n        /* \"crowdfunding.sol\":3007:3035  contributors[msg.sender] > 0 */\n      gt\n        /* \"crowdfunding.sol\":2999:3063  require(contributors[msg.sender] > 0, \"YOu must be contributor\") */\n      tag_107\n      jumpi\n      mload(0x40)\n      0x08c379a000000000000000000000000000000000000000000000000000000000\n      dup2\n      mstore\n      0x04\n      add\n      tag_108\n      swap1\n      tag_109\n      jump\t// in\n    tag_108:\n      mload(0x40)\n      dup1\n      swap2\n      sub\n      swap1\n      revert\n    tag_107:\n        /* \"crowdfunding.sol\":3073:3100  Request storage thisRequest */\n      0x00\n        /* \"crowdfunding.sol\":3103:3111  requests */\n      0x07\n        /* \"crowdfunding.sol\":3103:3123  requests[_requestNo] */\n      0x00\n        /* \"crowdfunding.sol\":3112:3122  _requestNo */\n      dup4\n        /* \"crowdfunding.sol\":3103:3123  requests[_requestNo] */\n      dup2\n      mstore\n      0x20\n      add\n      swap1\n      dup2\n      mstore\n      0x20\n      add\n      0x00\n      keccak256\n        /* \"crowdfunding.sol\":3073:3123  Request storage thisRequest = requests[_requestNo] */\n      swap1\n      pop\n        /* \"crowdfunding.sol\":3188:3193  false */\n      0x00\n        /* \"crowdfunding.sol\":3154:3193  thisRequest.voters[msg.sender] == false */\n      iszero\n      iszero\n        /* \"crowdfunding.sol\":3154:3165  thisRequest */\n      dup2\n        /* \"crowdfunding.sol\":3154:3172  thisRequest.voters */\n      0x05\n      add\n        /* \"crowdfunding.sol\":3154:3184  thisRequest.voters[msg.sender] */\n      0x00\n        /* \"crowdfunding.sol\":3173:3183  msg.sender */\n      caller\n        /* \"crowdfunding.sol\":3154:3184  thisRequest.voters[msg.sender] */\n      0xffffffffffffffffffffffffffffffffffffffff\n      and\n      0xffffffffffffffffffffffffffffffffffffffff\n      and\n      dup2\n      mstore\n      0x20\n      add\n      swap1\n      dup2\n      mstore\n      0x20\n      add\n      0x00\n      keccak256\n      0x00\n      swap1\n      sload\n      swap1\n      0x0100\n      exp\n      swap1\n      div\n      0xff\n      and\n        /* \"crowdfunding.sol\":3154:3193  thisRequest.voters[msg.sender] == false */\n      iszero\n      iszero\n      eq\n        /* \"crowdfunding.sol\":3133:3241  require(... */\n      tag_110\n      jumpi\n      mload(0x40)\n      0x08c379a000000000000000000000000000000000000000000000000000000000\n      dup2\n      mstore\n      0x04\n      add\n      tag_111\n      swap1\n      tag_112\n      jump\t// in\n    tag_111:\n      mload(0x40)\n      dup1\n      swap2\n      sub\n      swap1\n      revert\n    tag_110:\n        /* \"crowdfunding.sol\":3284:3288  true */\n      0x01\n        /* \"crowdfunding.sol\":3251:3262  thisRequest */\n      dup2\n        /* \"crowdfunding.sol\":3251:3269  thisRequest.voters */\n      0x05\n      add\n        /* \"crowdfunding.sol\":3251:3281  thisRequest.voters[msg.sender] */\n      0x00\n        /* \"crowdfunding.sol\":3270:3280  msg.sender */\n      caller\n        /* \"crowdfunding.sol\":3251:3281  thisRequest.voters[msg.sender] */\n      0xffffffffffffffffffffffffffffffffffffffff\n      and\n      0xffffffffffffffffffffffffffffffffffffffff\n      and\n      dup2\n      mstore\n      0x20\n      add\n      swap1\n      dup2\n      mstore\n      0x20\n      add\n      0x00\n      keccak256\n      0x00\n        /* \"crowdfunding.sol\":3251:3288  thisRequest.voters[msg.sender] = true */\n      0x0100\n      exp\n      dup2\n      sload\n      dup2\n      0xff\n      mul\n      not\n      and\n      swap1\n      dup4\n      iszero\n      iszero\n      mul\n      or\n      swap1\n      sstore\n      pop\n        /* \"crowdfunding.sol\":3298:3309  thisRequest */\n      dup1\n        /* \"crowdfunding.sol\":3298:3320  thisRequest.noOfVoters */\n      0x04\n      add\n      0x00\n        /* \"crowdfunding.sol\":3298:3322  thisRequest.noOfVoters++ */\n      dup2\n      sload\n      dup1\n      swap3\n      swap2\n      swap1\n      tag_113\n      swap1\n      tag_94\n      jump\t// in\n    tag_113:\n      swap2\n      swap1\n      pop\n      sstore\n      pop\n        /* \"crowdfunding.sol\":2989:3329  {... */\n      pop\n        /* \"crowdfunding.sol\":2944:3329  function voteRequest(uint _requestNo) public {... */\n      pop\n      jump\t// out\n        /* \"crowdfunding.sol\":978:1006  uint public noOfContributors */\n    tag_50:\n      sload(0x06)\n      dup2\n      jump\t// out\n        /* \"crowdfunding.sol\":3334:3839  function makePayment(uint _requestNo) public onlyManger {... */\n    tag_55:\n        /* \"crowdfunding.sol\":2439:2446  manager */\n      0x01\n      0x00\n      swap1\n      sload\n      swap1\n      0x0100\n      exp\n      swap1\n      div\n      0xffffffffffffffffffffffffffffffffffffffff\n      and\n        /* \"crowdfunding.sol\":2425:2446  msg.sender == manager */\n      0xffffffffffffffffffffffffffffffffffffffff\n      and\n        /* \"crowdfunding.sol\":2425:2435  msg.sender */\n      caller\n        /* \"crowdfunding.sol\":2425:2446  msg.sender == manager */\n      0xffffffffffffffffffffffffffffffffffffffff\n      and\n      eq\n        /* \"crowdfunding.sol\":2417:2487  require(msg.sender == manager, \"Only manager can calll this function\") */\n      tag_115\n      jumpi\n      mload(0x40)\n      0x08c379a000000000000000000000000000000000000000000000000000000000\n      dup2\n      mstore\n      0x04\n      add\n      tag_116\n      swap1\n      tag_101\n      jump\t// in\n    tag_116:\n      mload(0x40)\n      dup1\n      swap2\n      sub\n      swap1\n      revert\n    tag_115:\n        /* \"crowdfunding.sol\":3424:3430  target */\n      sload(0x04)\n        /* \"crowdfunding.sol\":3408:3420  raisedAmount */\n      sload(0x05)\n        /* \"crowdfunding.sol\":3408:3430  raisedAmount >= target */\n      lt\n      iszero\n        /* \"crowdfunding.sol\":3400:3431  require(raisedAmount >= target) */\n      tag_118\n      jumpi\n      0x00\n      dup1\n      revert\n    tag_118:\n        /* \"crowdfunding.sol\":3441:3468  Request storage thisRequest */\n      0x00\n        /* \"crowdfunding.sol\":3471:3479  requests */\n      0x07\n        /* \"crowdfunding.sol\":3471:3491  requests[_requestNo] */\n      0x00\n        /* \"crowdfunding.sol\":3480:3490  _requestNo */\n      dup4\n        /* \"crowdfunding.sol\":3471:3491  requests[_requestNo] */\n      dup2\n      mstore\n      0x20\n      add\n      swap1\n      dup2\n      mstore\n      0x20\n      add\n      0x00\n      keccak256\n        /* \"crowdfunding.sol\":3441:3491  Request storage thisRequest = requests[_requestNo] */\n      swap1\n      pop\n        /* \"crowdfunding.sol\":3547:3552  false */\n      0x00\n        /* \"crowdfunding.sol\":3522:3552  thisRequest.completed == false */\n      iszero\n      iszero\n        /* \"crowdfunding.sol\":3522:3533  thisRequest */\n      dup2\n        /* \"crowdfunding.sol\":3522:3543  thisRequest.completed */\n      0x03\n      add\n      0x00\n      swap1\n      sload\n      swap1\n      0x0100\n      exp\n      swap1\n      div\n      0xff\n      and\n        /* \"crowdfunding.sol\":3522:3552  thisRequest.completed == false */\n      iszero\n      iszero\n      eq\n        /* \"crowdfunding.sol\":3501:3608  require(... */\n      tag_119\n      jumpi\n      mload(0x40)\n      0x08c379a000000000000000000000000000000000000000000000000000000000\n      dup2\n      mstore\n      0x04\n      add\n      tag_120\n      swap1\n      tag_121\n      jump\t// in\n    tag_120:\n      mload(0x40)\n      dup1\n      swap2\n      sub\n      swap1\n      revert\n    tag_119:\n        /* \"crowdfunding.sol\":3683:3684  2 */\n      0x02\n        /* \"crowdfunding.sol\":3664:3680  noOfContributors */\n      sload(0x06)\n        /* \"crowdfunding.sol\":3664:3684  noOfContributors / 2 */\n      tag_122\n      swap2\n      swap1\n      tag_123\n      jump\t// in\n    tag_122:\n        /* \"crowdfunding.sol\":3639:3650  thisRequest */\n      dup2\n        /* \"crowdfunding.sol\":3639:3661  thisRequest.noOfVoters */\n      0x04\n      add\n      sload\n        /* \"crowdfunding.sol\":3639:3684  thisRequest.noOfVoters > noOfContributors / 2 */\n      gt\n        /* \"crowdfunding.sol\":3618:3735  require(... */\n      tag_124\n      jumpi\n      mload(0x40)\n      0x08c379a000000000000000000000000000000000000000000000000000000000\n      dup2\n      mstore\n      0x04\n      add\n      tag_125\n      swap1\n      tag_126\n      jump\t// in\n    tag_125:\n      mload(0x40)\n      dup1\n      swap2\n      sub\n      swap1\n      revert\n    tag_124:\n        /* \"crowdfunding.sol\":3745:3756  thisRequest */\n      dup1\n        /* \"crowdfunding.sol\":3745:3766  thisRequest.recipient */\n      0x01\n      add\n      0x00\n      swap1\n      sload\n      swap1\n      0x0100\n      exp\n      swap1\n      div\n      0xffffffffffffffffffffffffffffffffffffffff\n      and\n        /* \"crowdfunding.sol\":3745:3775  thisRequest.recipient.transfer */\n      0xffffffffffffffffffffffffffffffffffffffff\n      and\n        /* \"crowdfunding.sol\":3745:3794  thisRequest.recipient.transfer(thisRequest.value) */\n      0x08fc\n        /* \"crowdfunding.sol\":3776:3787  thisRequest */\n      dup3\n        /* \"crowdfunding.sol\":3776:3793  thisRequest.value */\n      0x02\n      add\n      sload\n        /* \"crowdfunding.sol\":3745:3794  thisRequest.recipient.transfer(thisRequest.value) */\n      swap1\n      dup2\n      iszero\n      mul\n      swap1\n      mload(0x40)\n      0x00\n      mload(0x40)\n      dup1\n      dup4\n      sub\n      dup2\n      dup6\n      dup9\n      dup9\n      call\n      swap4\n      pop\n      pop\n      pop\n      pop\n      iszero\n      dup1\n      iszero\n      tag_128\n      jumpi\n      returndatasize\n      0x00\n      dup1\n      returndatacopy\n      revert(0x00, returndatasize)\n    tag_128:\n      pop\n        /* \"crowdfunding.sol\":3828:3832  true */\n      0x01\n        /* \"crowdfunding.sol\":3804:3815  thisRequest */\n      dup2\n        /* \"crowdfunding.sol\":3804:3825  thisRequest.completed */\n      0x03\n      add\n      0x00\n        /* \"crowdfunding.sol\":3804:3832  thisRequest.completed = true */\n      0x0100\n      exp\n      dup2\n      sload\n      dup2\n      0xff\n      mul\n      not\n      and\n      swap1\n      dup4\n      iszero\n      iszero\n      mul\n      or\n      swap1\n      sstore\n      pop\n        /* \"crowdfunding.sol\":3390:3839  {... */\n      pop\n        /* \"crowdfunding.sol\":3334:3839  function makePayment(uint _requestNo) public onlyManger {... */\n      pop\n      jump\t// out\n        /* \"crowdfunding.sol\":2023:2380  function refund() public {... */\n    tag_58:\n        /* \"crowdfunding.sol\":2097:2105  deadline */\n      sload(0x03)\n        /* \"crowdfunding.sol\":2079:2094  block.timestamp */\n      timestamp\n        /* \"crowdfunding.sol\":2079:2105  block.timestamp > deadline */\n      gt\n        /* \"crowdfunding.sol\":2079:2130  block.timestamp > deadline && raisedAmount < target */\n      dup1\n      iszero\n      tag_130\n      jumpi\n      pop\n        /* \"crowdfunding.sol\":2124:2130  target */\n      sload(0x04)\n        /* \"crowdfunding.sol\":2109:2121  raisedAmount */\n      sload(0x05)\n        /* \"crowdfunding.sol\":2109:2130  raisedAmount < target */\n      lt\n        /* \"crowdfunding.sol\":2079:2130  block.timestamp > deadline && raisedAmount < target */\n    tag_130:\n        /* \"crowdfunding.sol\":2058:2187  require(... */\n      tag_131\n      jumpi\n      mload(0x40)\n      0x08c379a000000000000000000000000000000000000000000000000000000000\n      dup2\n      mstore\n      0x04\n      add\n      tag_132\n      swap1\n      tag_133\n      jump\t// in\n    tag_132:\n      mload(0x40)\n      dup1\n      swap2\n      sub\n      swap1\n      revert\n    tag_131:\n        /* \"crowdfunding.sol\":2232:2233  0 */\n      0x00\n        /* \"crowdfunding.sol\":2205:2217  contributors */\n      dup1\n        /* \"crowdfunding.sol\":2205:2229  contributors[msg.sender] */\n      0x00\n        /* \"crowdfunding.sol\":2218:2228  msg.sender */\n      caller\n        /* \"crowdfunding.sol\":2205:2229  contributors[msg.sender] */\n      0xffffffffffffffffffffffffffffffffffffffff\n      and\n      0xffffffffffffffffffffffffffffffffffffffff\n      and\n      dup2\n      mstore\n      0x20\n      add\n      swap1\n      dup2\n      mstore\n      0x20\n      add\n      0x00\n      keccak256\n      sload\n        /* \"crowdfunding.sol\":2205:2233  contributors[msg.sender] > 0 */\n      gt\n        /* \"crowdfunding.sol\":2197:2234  require(contributors[msg.sender] > 0) */\n      tag_134\n      jumpi\n      0x00\n      dup1\n      revert\n    tag_134:\n        /* \"crowdfunding.sol\":2244:2264  address payable user */\n      0x00\n        /* \"crowdfunding.sol\":2275:2285  msg.sender */\n      caller\n        /* \"crowdfunding.sol\":2244:2286  address payable user = payable(msg.sender) */\n      swap1\n      pop\n        /* \"crowdfunding.sol\":2296:2300  user */\n      dup1\n        /* \"crowdfunding.sol\":2296:2309  user.transfer */\n      0xffffffffffffffffffffffffffffffffffffffff\n      and\n        /* \"crowdfunding.sol\":2296:2335  user.transfer(contributors[msg.sender]) */\n      0x08fc\n        /* \"crowdfunding.sol\":2310:2322  contributors */\n      0x00\n        /* \"crowdfunding.sol\":2310:2334  contributors[msg.sender] */\n      dup1\n        /* \"crowdfunding.sol\":2323:2333  msg.sender */\n      caller\n        /* \"crowdfunding.sol\":2310:2334  contributors[msg.sender] */\n      0xffffffffffffffffffffffffffffffffffffffff\n      and\n      0xffffffffffffffffffffffffffffffffffffffff\n      and\n      dup2\n      mstore\n      0x20\n      add\n      swap1\n      dup2\n      mstore\n      0x20\n      add\n      0x00\n      keccak256\n      sload\n        /* \"crowdfunding.sol\":2296:2335  user.transfer(contributors[msg.sender]) */\n      swap1\n      dup2\n      iszero\n      mul\n      swap1\n      mload(0x40)\n      0x00\n      mload(0x40)\n      dup1\n      dup4\n      sub\n      dup2\n      dup6\n      dup9\n      dup9\n      call\n      swap4\n      pop\n      pop\n      pop\n      pop\n      iszero\n      dup1\n      iszero\n      tag_136\n      jumpi\n      returndatasize\n      0x00\n      dup1\n      returndatacopy\n      revert(0x00, returndatasize)\n    tag_136:\n      pop\n        /* \"crowdfunding.sol\":2372:2373  0 */\n      0x00\n        /* \"crowdfunding.sol\":2345:2357  contributors */\n      dup1\n        /* \"crowdfunding.sol\":2345:2369  contributors[msg.sender] */\n      0x00\n        /* \"crowdfunding.sol\":2358:2368  msg.sender */\n      caller\n        /* \"crowdfunding.sol\":2345:2369  contributors[msg.sender] */\n      0xffffffffffffffffffffffffffffffffffffffff\n      and\n      0xffffffffffffffffffffffffffffffffffffffff\n      and\n      dup2\n      mstore\n      0x20\n      add\n      swap1\n      dup2\n      mstore\n      0x20\n      add\n      0x00\n      keccak256\n        /* \"crowdfunding.sol\":2345:2373  contributors[msg.sender] = 0 */\n      dup2\n      swap1\n      sstore\n      pop\n        /* \"crowdfunding.sol\":2048:2380  {... */\n      pop\n        /* \"crowdfunding.sol\":2023:2380  function refund() public {... */\n      jump\t// out\n        /* \"crowdfunding.sol\":1916:2018  function getContractBalance() public view returns (uint) {... */\n    tag_61:\n        /* \"crowdfunding.sol\":1967:1971  uint */\n      0x00\n        /* \"crowdfunding.sol\":1990:2011  address(this).balance */\n      selfbalance\n        /* \"crowdfunding.sol\":1983:2011  return address(this).balance */\n      swap1\n      pop\n        /* \"crowdfunding.sol\":1916:2018  function getContractBalance() public view returns (uint) {... */\n      swap1\n      jump\t// out\n        /* \"crowdfunding.sol\":1213:1253  mapping(uint => Request) public requests */\n    tag_66:\n      mstore(0x20, 0x07)\n      dup1\n      0x00\n      mstore\n      keccak256(0x00, 0x40)\n      0x00\n      swap2\n      pop\n      swap1\n      pop\n      dup1\n      0x00\n      add\n      dup1\n      sload\n      tag_138\n      swap1\n      tag_139\n      jump\t// in\n    tag_138:\n      dup1\n      0x1f\n      add\n      0x20\n      dup1\n      swap2\n      div\n      mul\n      0x20\n      add\n      mload(0x40)\n      swap1\n      dup2\n      add\n      0x40\n      mstore\n      dup1\n      swap3\n      swap2\n      swap1\n      dup2\n      dup2\n      mstore\n      0x20\n      add\n      dup3\n      dup1\n      sload\n      tag_140\n      swap1\n      tag_139\n      jump\t// in\n    tag_140:\n      dup1\n      iszero\n      tag_141\n      jumpi\n      dup1\n      0x1f\n      lt\n      tag_142\n      jumpi\n      0x0100\n      dup1\n      dup4\n      sload\n      div\n      mul\n      dup4\n      mstore\n      swap2\n      0x20\n      add\n      swap2\n      jump(tag_141)\n    tag_142:\n      dup3\n      add\n      swap2\n      swap1\n      0x00\n      mstore\n      keccak256(0x00, 0x20)\n      swap1\n    tag_143:\n      dup2\n      sload\n      dup2\n      mstore\n      swap1\n      0x01\n      add\n      swap1\n      0x20\n      add\n      dup1\n      dup4\n      gt\n      tag_143\n      jumpi\n      dup3\n      swap1\n      sub\n      0x1f\n      and\n      dup3\n      add\n      swap2\n    tag_141:\n      pop\n      pop\n      pop\n      pop\n      pop\n      swap1\n      dup1\n      0x01\n      add\n      0x00\n      swap1\n      sload\n      swap1\n      0x0100\n      exp\n      swap1\n      div\n      0xffffffffffffffffffffffffffffffffffffffff\n      and\n      swap1\n      dup1\n      0x02\n      add\n      sload\n      swap1\n      dup1\n      0x03\n      add\n      0x00\n      swap1\n      sload\n      swap1\n      0x0100\n      exp\n      swap1\n      div\n      0xff\n      and\n      swap1\n      dup1\n      0x04\n      add\n      sload\n      swap1\n      pop\n      dup6\n      jump\t// out\n        /* \"crowdfunding.sol\":861:892  uint public minimumContribution */\n    tag_71:\n      sload(0x02)\n      dup2\n      jump\t// out\n        /* \"crowdfunding.sol\":1259:1282  uint public numRequests */\n    tag_75:\n      sload(0x08)\n      dup2\n      jump\t// out\n        /* \"crowdfunding.sol\":948:972  uint public raisedAmount */\n    tag_79:\n      sload(0x05)\n      dup2\n      jump\t// out\n        /* \"crowdfunding.sol\":924:942  uint public target */\n    tag_83:\n      sload(0x04)\n      dup2\n      jump\t// out\n        /* \"#utility.yul\":7:82   */\n    tag_144:\n        /* \"#utility.yul\":40:46   */\n      0x00\n        /* \"#utility.yul\":73:75   */\n      0x40\n        /* \"#utility.yul\":67:76   */\n      mload\n        /* \"#utility.yul\":57:76   */\n      swap1\n      pop\n        /* \"#utility.yul\":7:82   */\n      swap1\n      jump\t// out\n        /* \"#utility.yul\":88:205   */\n    tag_145:\n        /* \"#utility.yul\":197:198   */\n      0x00\n        /* \"#utility.yul\":194:195   */\n      dup1\n        /* \"#utility.yul\":187:199   */\n      revert\n        /* \"#utility.yul\":211:328   */\n    tag_146:\n        /* \"#utility.yul\":320:321   */\n      0x00\n        /* \"#utility.yul\":317:318   */\n      dup1\n        /* \"#utility.yul\":310:322   */\n      revert\n        /* \"#utility.yul\":334:460   */\n    tag_147:\n        /* \"#utility.yul\":371:378   */\n      0x00\n        /* \"#utility.yul\":411:453   */\n      0xffffffffffffffffffffffffffffffffffffffff\n        /* \"#utility.yul\":404:409   */\n      dup3\n        /* \"#utility.yul\":400:454   */\n      and\n        /* \"#utility.yul\":389:454   */\n      swap1\n      pop\n        /* \"#utility.yul\":334:460   */\n      swap2\n      swap1\n      pop\n      jump\t// out\n        /* \"#utility.yul\":466:562   */\n    tag_148:\n        /* \"#utility.yul\":503:510   */\n      0x00\n        /* \"#utility.yul\":532:556   */\n      tag_216\n        /* \"#utility.yul\":550:555   */\n      dup3\n        /* \"#utility.yul\":532:556   */\n      tag_147\n      jump\t// in\n    tag_216:\n        /* \"#utility.yul\":521:556   */\n      swap1\n      pop\n        /* \"#utility.yul\":466:562   */\n      swap2\n      swap1\n      pop\n      jump\t// out\n        /* \"#utility.yul\":568:690   */\n    tag_149:\n        /* \"#utility.yul\":641:665   */\n      tag_218\n        /* \"#utility.yul\":659:664   */\n      dup2\n        /* \"#utility.yul\":641:665   */\n      tag_148\n      jump\t// in\n    tag_218:\n        /* \"#utility.yul\":634:639   */\n      dup2\n        /* \"#utility.yul\":631:666   */\n      eq\n        /* \"#utility.yul\":621:684   */\n      tag_219\n      jumpi\n        /* \"#utility.yul\":680:681   */\n      0x00\n        /* \"#utility.yul\":677:678   */\n      dup1\n        /* \"#utility.yul\":670:682   */\n      revert\n        /* \"#utility.yul\":621:684   */\n    tag_219:\n        /* \"#utility.yul\":568:690   */\n      pop\n      jump\t// out\n        /* \"#utility.yul\":696:835   */\n    tag_150:\n        /* \"#utility.yul\":742:747   */\n      0x00\n        /* \"#utility.yul\":780:786   */\n      dup2\n        /* \"#utility.yul\":767:787   */\n      calldataload\n        /* \"#utility.yul\":758:787   */\n      swap1\n      pop\n        /* \"#utility.yul\":796:829   */\n      tag_221\n        /* \"#utility.yul\":823:828   */\n      dup2\n        /* \"#utility.yul\":796:829   */\n      tag_149\n      jump\t// in\n    tag_221:\n        /* \"#utility.yul\":696:835   */\n      swap3\n      swap2\n      pop\n      pop\n      jump\t// out\n        /* \"#utility.yul\":841:1170   */\n    tag_25:\n        /* \"#utility.yul\":900:906   */\n      0x00\n        /* \"#utility.yul\":949:951   */\n      0x20\n        /* \"#utility.yul\":937:946   */\n      dup3\n        /* \"#utility.yul\":928:935   */\n      dup5\n        /* \"#utility.yul\":924:947   */\n      sub\n        /* \"#utility.yul\":920:952   */\n      slt\n        /* \"#utility.yul\":917:1036   */\n      iszero\n      tag_223\n      jumpi\n        /* \"#utility.yul\":955:1034   */\n      tag_224\n      tag_145\n      jump\t// in\n    tag_224:\n        /* \"#utility.yul\":917:1036   */\n    tag_223:\n        /* \"#utility.yul\":1075:1076   */\n      0x00\n        /* \"#utility.yul\":1100:1153   */\n      tag_225\n        /* \"#utility.yul\":1145:1152   */\n      dup5\n        /* \"#utility.yul\":1136:1142   */\n      dup3\n        /* \"#utility.yul\":1125:1134   */\n      dup6\n        /* \"#utility.yul\":1121:1143   */\n      add\n        /* \"#utility.yul\":1100:1153   */\n      tag_150\n      jump\t// in\n    tag_225:\n        /* \"#utility.yul\":1090:1153   */\n      swap2\n      pop\n        /* \"#utility.yul\":1046:1163   */\n      pop\n        /* \"#utility.yul\":841:1170   */\n      swap3\n      swap2\n      pop\n      pop\n      jump\t// out\n        /* \"#utility.yul\":1176:1253   */\n    tag_151:\n        /* \"#utility.yul\":1213:1220   */\n      0x00\n        /* \"#utility.yul\":1242:1247   */\n      dup2\n        /* \"#utility.yul\":1231:1247   */\n      swap1\n      pop\n        /* \"#utility.yul\":1176:1253   */\n      swap2\n      swap1\n      pop\n      jump\t// out\n        /* \"#utility.yul\":1259:1377   */\n    tag_152:\n        /* \"#utility.yul\":1346:1370   */\n      tag_228\n        /* \"#utility.yul\":1364:1369   */\n      dup2\n        /* \"#utility.yul\":1346:1370   */\n      tag_151\n      jump\t// in\n    tag_228:\n        /* \"#utility.yul\":1341:1344   */\n      dup3\n        /* \"#utility.yul\":1334:1371   */\n      mstore\n        /* \"#utility.yul\":1259:1377   */\n      pop\n      pop\n      jump\t// out\n        /* \"#utility.yul\":1383:1605   */\n    tag_28:\n        /* \"#utility.yul\":1476:1480   */\n      0x00\n        /* \"#utility.yul\":1514:1516   */\n      0x20\n        /* \"#utility.yul\":1503:1512   */\n      dup3\n        /* \"#utility.yul\":1499:1517   */\n      add\n        /* \"#utility.yul\":1491:1517   */\n      swap1\n      pop\n        /* \"#utility.yul\":1527:1598   */\n      tag_230\n        /* \"#utility.yul\":1595:1596   */\n      0x00\n        /* \"#utility.yul\":1584:1593   */\n      dup4\n        /* \"#utility.yul\":1580:1597   */\n      add\n        /* \"#utility.yul\":1571:1577   */\n      dup5\n        /* \"#utility.yul\":1527:1598   */\n      tag_152\n      jump\t// in\n    tag_230:\n        /* \"#utility.yul\":1383:1605   */\n      swap3\n      swap2\n      pop\n      pop\n      jump\t// out\n        /* \"#utility.yul\":1611:1728   */\n    tag_153:\n        /* \"#utility.yul\":1720:1721   */\n      0x00\n        /* \"#utility.yul\":1717:1718   */\n      dup1\n        /* \"#utility.yul\":1710:1722   */\n      revert\n        /* \"#utility.yul\":1734:1851   */\n    tag_154:\n        /* \"#utility.yul\":1843:1844   */\n      0x00\n        /* \"#utility.yul\":1840:1841   */\n      dup1\n        /* \"#utility.yul\":1833:1845   */\n      revert\n        /* \"#utility.yul\":1857:1959   */\n    tag_155:\n        /* \"#utility.yul\":1898:1904   */\n      0x00\n        /* \"#utility.yul\":1949:1951   */\n      0x1f\n        /* \"#utility.yul\":1945:1952   */\n      not\n        /* \"#utility.yul\":1940:1942   */\n      0x1f\n        /* \"#utility.yul\":1933:1938   */\n      dup4\n        /* \"#utility.yul\":1929:1943   */\n      add\n        /* \"#utility.yul\":1925:1953   */\n      and\n        /* \"#utility.yul\":1915:1953   */\n      swap1\n      pop\n        /* \"#utility.yul\":1857:1959   */\n      swap2\n      swap1\n      pop\n      jump\t// out\n        /* \"#utility.yul\":1965:2145   */\n    tag_156:\n        /* \"#utility.yul\":2013:2090   */\n      0x4e487b7100000000000000000000000000000000000000000000000000000000\n        /* \"#utility.yul\":2010:2011   */\n      0x00\n        /* \"#utility.yul\":2003:2091   */\n      mstore\n        /* \"#utility.yul\":2110:2114   */\n      0x41\n        /* \"#utility.yul\":2107:2108   */\n      0x04\n        /* \"#utility.yul\":2100:2115   */\n      mstore\n        /* \"#utility.yul\":2134:2138   */\n      0x24\n        /* \"#utility.yul\":2131:2132   */\n      0x00\n        /* \"#utility.yul\":2124:2139   */\n      revert\n        /* \"#utility.yul\":2151:2432   */\n    tag_157:\n        /* \"#utility.yul\":2234:2261   */\n      tag_236\n        /* \"#utility.yul\":2256:2260   */\n      dup3\n        /* \"#utility.yul\":2234:2261   */\n      tag_155\n      jump\t// in\n    tag_236:\n        /* \"#utility.yul\":2226:2232   */\n      dup2\n        /* \"#utility.yul\":2222:2262   */\n      add\n        /* \"#utility.yul\":2364:2370   */\n      dup2\n        /* \"#utility.yul\":2352:2362   */\n      dup2\n        /* \"#utility.yul\":2349:2371   */\n      lt\n        /* \"#utility.yul\":2328:2346   */\n      0xffffffffffffffff\n        /* \"#utility.yul\":2316:2326   */\n      dup3\n        /* \"#utility.yul\":2313:2347   */\n      gt\n        /* \"#utility.yul\":2310:2372   */\n      or\n        /* \"#utility.yul\":2307:2395   */\n      iszero\n      tag_237\n      jumpi\n        /* \"#utility.yul\":2375:2393   */\n      tag_238\n      tag_156\n      jump\t// in\n    tag_238:\n        /* \"#utility.yul\":2307:2395   */\n    tag_237:\n        /* \"#utility.yul\":2415:2425   */\n      dup1\n        /* \"#utility.yul\":2411:2413   */\n      0x40\n        /* \"#utility.yul\":2404:2426   */\n      mstore\n        /* \"#utility.yul\":2194:2432   */\n      pop\n        /* \"#utility.yul\":2151:2432   */\n      pop\n      pop\n      jump\t// out\n        /* \"#utility.yul\":2438:2567   */\n    tag_158:\n        /* \"#utility.yul\":2472:2478   */\n      0x00\n        /* \"#utility.yul\":2499:2519   */\n      tag_240\n      tag_144\n      jump\t// in\n    tag_240:\n        /* \"#utility.yul\":2489:2519   */\n      swap1\n      pop\n        /* \"#utility.yul\":2528:2561   */\n      tag_241\n        /* \"#utility.yul\":2556:2560   */\n      dup3\n        /* \"#utility.yul\":2548:2554   */\n      dup3\n        /* \"#utility.yul\":2528:2561   */\n      tag_157\n      jump\t// in\n    tag_241:\n        /* \"#utility.yul\":2438:2567   */\n      swap2\n      swap1\n      pop\n      jump\t// out\n        /* \"#utility.yul\":2573:2881   */\n    tag_159:\n        /* \"#utility.yul\":2635:2639   */\n      0x00\n        /* \"#utility.yul\":2725:2743   */\n      0xffffffffffffffff\n        /* \"#utility.yul\":2717:2723   */\n      dup3\n        /* \"#utility.yul\":2714:2744   */\n      gt\n        /* \"#utility.yul\":2711:2767   */\n      iszero\n      tag_243\n      jumpi\n        /* \"#utility.yul\":2747:2765   */\n      tag_244\n      tag_156\n      jump\t// in\n    tag_244:\n        /* \"#utility.yul\":2711:2767   */\n    tag_243:\n        /* \"#utility.yul\":2785:2814   */\n      tag_245\n        /* \"#utility.yul\":2807:2813   */\n      dup3\n        /* \"#utility.yul\":2785:2814   */\n      tag_155\n      jump\t// in\n    tag_245:\n        /* \"#utility.yul\":2777:2814   */\n      swap1\n      pop\n        /* \"#utility.yul\":2869:2873   */\n      0x20\n        /* \"#utility.yul\":2863:2867   */\n      dup2\n        /* \"#utility.yul\":2859:2874   */\n      add\n        /* \"#utility.yul\":2851:2874   */\n      swap1\n      pop\n        /* \"#utility.yul\":2573:2881   */\n      swap2\n      swap1\n      pop\n      jump\t// out\n        /* \"#utility.yul\":2887:3035   */\n    tag_160:\n        /* \"#utility.yul\":2985:2991   */\n      dup3\n        /* \"#utility.yul\":2980:2983   */\n      dup2\n        /* \"#utility.yul\":2975:2978   */\n      dup4\n        /* \"#utility.yul\":2962:2992   */\n      calldatacopy\n        /* \"#utility.yul\":3026:3027   */\n      0x00\n        /* \"#utility.yul\":3017:3023   */\n      dup4\n        /* \"#utility.yul\":3012:3015   */\n      dup4\n        /* \"#utility.yul\":3008:3024   */\n      add\n        /* \"#utility.yul\":3001:3028   */\n      mstore\n        /* \"#utility.yul\":2887:3035   */\n      pop\n      pop\n      pop\n      jump\t// out\n        /* \"#utility.yul\":3041:3466   */\n    tag_161:\n        /* \"#utility.yul\":3119:3124   */\n      0x00\n        /* \"#utility.yul\":3144:3210   */\n      tag_248\n        /* \"#utility.yul\":3160:3209   */\n      tag_249\n        /* \"#utility.yul\":3202:3208   */\n      dup5\n        /* \"#utility.yul\":3160:3209   */\n      tag_159\n      jump\t// in\n    tag_249:\n        /* \"#utility.yul\":3144:3210   */\n      tag_158\n      jump\t// in\n    tag_248:\n        /* \"#utility.yul\":3135:3210   */\n      swap1\n      pop\n        /* \"#utility.yul\":3233:3239   */\n      dup3\n        /* \"#utility.yul\":3226:3231   */\n      dup2\n        /* \"#utility.yul\":3219:3240   */\n      mstore\n        /* \"#utility.yul\":3271:3275   */\n      0x20\n        /* \"#utility.yul\":3264:3269   */\n      dup2\n        /* \"#utility.yul\":3260:3276   */\n      add\n        /* \"#utility.yul\":3309:3312   */\n      dup5\n        /* \"#utility.yul\":3300:3306   */\n      dup5\n        /* \"#utility.yul\":3295:3298   */\n      dup5\n        /* \"#utility.yul\":3291:3307   */\n      add\n        /* \"#utility.yul\":3288:3313   */\n      gt\n        /* \"#utility.yul\":3285:3397   */\n      iszero\n      tag_250\n      jumpi\n        /* \"#utility.yul\":3316:3395   */\n      tag_251\n      tag_154\n      jump\t// in\n    tag_251:\n        /* \"#utility.yul\":3285:3397   */\n    tag_250:\n        /* \"#utility.yul\":3406:3460   */\n      tag_252\n        /* \"#utility.yul\":3453:3459   */\n      dup5\n        /* \"#utility.yul\":3448:3451   */\n      dup3\n        /* \"#utility.yul\":3443:3446   */\n      dup6\n        /* \"#utility.yul\":3406:3460   */\n      tag_160\n      jump\t// in\n    tag_252:\n        /* \"#utility.yul\":3125:3466   */\n      pop\n        /* \"#utility.yul\":3041:3466   */\n      swap4\n      swap3\n      pop\n      pop\n      pop\n      jump\t// out\n        /* \"#utility.yul\":3486:3826   */\n    tag_162:\n        /* \"#utility.yul\":3542:3547   */\n      0x00\n        /* \"#utility.yul\":3591:3594   */\n      dup3\n        /* \"#utility.yul\":3584:3588   */\n      0x1f\n        /* \"#utility.yul\":3576:3582   */\n      dup4\n        /* \"#utility.yul\":3572:3589   */\n      add\n        /* \"#utility.yul\":3568:3595   */\n      slt\n        /* \"#utility.yul\":3558:3680   */\n      tag_254\n      jumpi\n        /* \"#utility.yul\":3599:3678   */\n      tag_255\n      tag_153\n      jump\t// in\n    tag_255:\n        /* \"#utility.yul\":3558:3680   */\n    tag_254:\n        /* \"#utility.yul\":3716:3722   */\n      dup2\n        /* \"#utility.yul\":3703:3723   */\n      calldataload\n        /* \"#utility.yul\":3741:3820   */\n      tag_256\n        /* \"#utility.yul\":3816:3819   */\n      dup5\n        /* \"#utility.yul\":3808:3814   */\n      dup3\n        /* \"#utility.yul\":3801:3805   */\n      0x20\n        /* \"#utility.yul\":3793:3799   */\n      dup7\n        /* \"#utility.yul\":3789:3806   */\n      add\n        /* \"#utility.yul\":3741:3820   */\n      tag_161\n      jump\t// in\n    tag_256:\n        /* \"#utility.yul\":3732:3820   */\n      swap2\n      pop\n        /* \"#utility.yul\":3548:3826   */\n      pop\n        /* \"#utility.yul\":3486:3826   */\n      swap3\n      swap2\n      pop\n      pop\n      jump\t// out\n        /* \"#utility.yul\":3832:3936   */\n    tag_163:\n        /* \"#utility.yul\":3877:3884   */\n      0x00\n        /* \"#utility.yul\":3906:3930   */\n      tag_258\n        /* \"#utility.yul\":3924:3929   */\n      dup3\n        /* \"#utility.yul\":3906:3930   */\n      tag_147\n      jump\t// in\n    tag_258:\n        /* \"#utility.yul\":3895:3930   */\n      swap1\n      pop\n        /* \"#utility.yul\":3832:3936   */\n      swap2\n      swap1\n      pop\n      jump\t// out\n        /* \"#utility.yul\":3942:4080   */\n    tag_164:\n        /* \"#utility.yul\":4023:4055   */\n      tag_260\n        /* \"#utility.yul\":4049:4054   */\n      dup2\n        /* \"#utility.yul\":4023:4055   */\n      tag_163\n      jump\t// in\n    tag_260:\n        /* \"#utility.yul\":4016:4021   */\n      dup2\n        /* \"#utility.yul\":4013:4056   */\n      eq\n        /* \"#utility.yul\":4003:4074   */\n      tag_261\n      jumpi\n        /* \"#utility.yul\":4070:4071   */\n      0x00\n        /* \"#utility.yul\":4067:4068   */\n      dup1\n        /* \"#utility.yul\":4060:4072   */\n      revert\n        /* \"#utility.yul\":4003:4074   */\n    tag_261:\n        /* \"#utility.yul\":3942:4080   */\n      pop\n      jump\t// out\n        /* \"#utility.yul\":4086:4241   */\n    tag_165:\n        /* \"#utility.yul\":4140:4145   */\n      0x00\n        /* \"#utility.yul\":4178:4184   */\n      dup2\n        /* \"#utility.yul\":4165:4185   */\n      calldataload\n        /* \"#utility.yul\":4156:4185   */\n      swap1\n      pop\n        /* \"#utility.yul\":4194:4235   */\n      tag_263\n        /* \"#utility.yul\":4229:4234   */\n      dup2\n        /* \"#utility.yul\":4194:4235   */\n      tag_164\n      jump\t// in\n    tag_263:\n        /* \"#utility.yul\":4086:4241   */\n      swap3\n      swap2\n      pop\n      pop\n      jump\t// out\n        /* \"#utility.yul\":4247:4369   */\n    tag_166:\n        /* \"#utility.yul\":4320:4344   */\n      tag_265\n        /* \"#utility.yul\":4338:4343   */\n      dup2\n        /* \"#utility.yul\":4320:4344   */\n      tag_151\n      jump\t// in\n    tag_265:\n        /* \"#utility.yul\":4313:4318   */\n      dup2\n        /* \"#utility.yul\":4310:4345   */\n      eq\n        /* \"#utility.yul\":4300:4363   */\n      tag_266\n      jumpi\n        /* \"#utility.yul\":4359:4360   */\n      0x00\n        /* \"#utility.yul\":4356:4357   */\n      dup1\n        /* \"#utility.yul\":4349:4361   */\n      revert\n        /* \"#utility.yul\":4300:4363   */\n    tag_266:\n        /* \"#utility.yul\":4247:4369   */\n      pop\n      jump\t// out\n        /* \"#utility.yul\":4375:4514   */\n    tag_167:\n        /* \"#utility.yul\":4421:4426   */\n      0x00\n        /* \"#utility.yul\":4459:4465   */\n      dup2\n        /* \"#utility.yul\":4446:4466   */\n      calldataload\n        /* \"#utility.yul\":4437:4466   */\n      swap1\n      pop\n        /* \"#utility.yul\":4475:4508   */\n      tag_268\n        /* \"#utility.yul\":4502:4507   */\n      dup2\n        /* \"#utility.yul\":4475:4508   */\n      tag_166\n      jump\t// in\n    tag_268:\n        /* \"#utility.yul\":4375:4514   */\n      swap3\n      swap2\n      pop\n      pop\n      jump\t// out\n        /* \"#utility.yul\":4520:5335   */\n    tag_36:\n        /* \"#utility.yul\":4615:4621   */\n      0x00\n        /* \"#utility.yul\":4623:4629   */\n      dup1\n        /* \"#utility.yul\":4631:4637   */\n      0x00\n        /* \"#utility.yul\":4680:4682   */\n      0x60\n        /* \"#utility.yul\":4668:4677   */\n      dup5\n        /* \"#utility.yul\":4659:4666   */\n      dup7\n        /* \"#utility.yul\":4655:4678   */\n      sub\n        /* \"#utility.yul\":4651:4683   */\n      slt\n        /* \"#utility.yul\":4648:4767   */\n      iszero\n      tag_270\n      jumpi\n        /* \"#utility.yul\":4686:4765   */\n      tag_271\n      tag_145\n      jump\t// in\n    tag_271:\n        /* \"#utility.yul\":4648:4767   */\n    tag_270:\n        /* \"#utility.yul\":4834:4835   */\n      0x00\n        /* \"#utility.yul\":4823:4832   */\n      dup5\n        /* \"#utility.yul\":4819:4836   */\n      add\n        /* \"#utility.yul\":4806:4837   */\n      calldataload\n        /* \"#utility.yul\":4864:4882   */\n      0xffffffffffffffff\n        /* \"#utility.yul\":4856:4862   */\n      dup2\n        /* \"#utility.yul\":4853:4883   */\n      gt\n        /* \"#utility.yul\":4850:4967   */\n      iszero\n      tag_272\n      jumpi\n        /* \"#utility.yul\":4886:4965   */\n      tag_273\n      tag_146\n      jump\t// in\n    tag_273:\n        /* \"#utility.yul\":4850:4967   */\n    tag_272:\n        /* \"#utility.yul\":4991:5054   */\n      tag_274\n        /* \"#utility.yul\":5046:5053   */\n      dup7\n        /* \"#utility.yul\":5037:5043   */\n      dup3\n        /* \"#utility.yul\":5026:5035   */\n      dup8\n        /* \"#utility.yul\":5022:5044   */\n      add\n        /* \"#utility.yul\":4991:5054   */\n      tag_162\n      jump\t// in\n    tag_274:\n        /* \"#utility.yul\":4981:5054   */\n      swap4\n      pop\n        /* \"#utility.yul\":4777:5064   */\n      pop\n        /* \"#utility.yul\":5103:5105   */\n      0x20\n        /* \"#utility.yul\":5129:5190   */\n      tag_275\n        /* \"#utility.yul\":5182:5189   */\n      dup7\n        /* \"#utility.yul\":5173:5179   */\n      dup3\n        /* \"#utility.yul\":5162:5171   */\n      dup8\n        /* \"#utility.yul\":5158:5180   */\n      add\n        /* \"#utility.yul\":5129:5190   */\n      tag_165\n      jump\t// in\n    tag_275:\n        /* \"#utility.yul\":5119:5190   */\n      swap3\n      pop\n        /* \"#utility.yul\":5074:5200   */\n      pop\n        /* \"#utility.yul\":5239:5241   */\n      0x40\n        /* \"#utility.yul\":5265:5318   */\n      tag_276\n        /* \"#utility.yul\":5310:5317   */\n      dup7\n        /* \"#utility.yul\":5301:5307   */\n      dup3\n        /* \"#utility.yul\":5290:5299   */\n      dup8\n        /* \"#utility.yul\":5286:5308   */\n      add\n        /* \"#utility.yul\":5265:5318   */\n      tag_167\n      jump\t// in\n    tag_276:\n        /* \"#utility.yul\":5255:5318   */\n      swap2\n      pop\n        /* \"#utility.yul\":5210:5328   */\n      pop\n        /* \"#utility.yul\":4520:5335   */\n      swap3\n      pop\n      swap3\n      pop\n      swap3\n      jump\t// out\n        /* \"#utility.yul\":5341:5459   */\n    tag_168:\n        /* \"#utility.yul\":5428:5452   */\n      tag_278\n        /* \"#utility.yul\":5446:5451   */\n      dup2\n        /* \"#utility.yul\":5428:5452   */\n      tag_148\n      jump\t// in\n    tag_278:\n        /* \"#utility.yul\":5423:5426   */\n      dup3\n        /* \"#utility.yul\":5416:5453   */\n      mstore\n        /* \"#utility.yul\":5341:5459   */\n      pop\n      pop\n      jump\t// out\n        /* \"#utility.yul\":5465:5687   */\n    tag_42:\n        /* \"#utility.yul\":5558:5562   */\n      0x00\n        /* \"#utility.yul\":5596:5598   */\n      0x20\n        /* \"#utility.yul\":5585:5594   */\n      dup3\n        /* \"#utility.yul\":5581:5599   */\n      add\n        /* \"#utility.yul\":5573:5599   */\n      swap1\n      pop\n        /* \"#utility.yul\":5609:5680   */\n      tag_280\n        /* \"#utility.yul\":5677:5678   */\n      0x00\n        /* \"#utility.yul\":5666:5675   */\n      dup4\n        /* \"#utility.yul\":5662:5679   */\n      add\n        /* \"#utility.yul\":5653:5659   */\n      dup5\n        /* \"#utility.yul\":5609:5680   */\n      tag_168\n      jump\t// in\n    tag_280:\n        /* \"#utility.yul\":5465:5687   */\n      swap3\n      swap2\n      pop\n      pop\n      jump\t// out\n        /* \"#utility.yul\":5693:6022   */\n    tag_46:\n        /* \"#utility.yul\":5752:5758   */\n      0x00\n        /* \"#utility.yul\":5801:5803   */\n      0x20\n        /* \"#utility.yul\":5789:5798   */\n      dup3\n        /* \"#utility.yul\":5780:5787   */\n      dup5\n        /* \"#utility.yul\":5776:5799   */\n      sub\n        /* \"#utility.yul\":5772:5804   */\n      slt\n        /* \"#utility.yul\":5769:5888   */\n      iszero\n      tag_282\n      jumpi\n        /* \"#utility.yul\":5807:5886   */\n      tag_283\n      tag_145\n      jump\t// in\n    tag_283:\n        /* \"#utility.yul\":5769:5888   */\n    tag_282:\n        /* \"#utility.yul\":5927:5928   */\n      0x00\n        /* \"#utility.yul\":5952:6005   */\n      tag_284\n        /* \"#utility.yul\":5997:6004   */\n      dup5\n        /* \"#utility.yul\":5988:5994   */\n      dup3\n        /* \"#utility.yul\":5977:5986   */\n      dup6\n        /* \"#utility.yul\":5973:5995   */\n      add\n        /* \"#utility.yul\":5952:6005   */\n      tag_167\n      jump\t// in\n    tag_284:\n        /* \"#utility.yul\":5942:6005   */\n      swap2\n      pop\n        /* \"#utility.yul\":5898:6015   */\n      pop\n        /* \"#utility.yul\":5693:6022   */\n      swap3\n      swap2\n      pop\n      pop\n      jump\t// out\n        /* \"#utility.yul\":6028:6127   */\n    tag_169:\n        /* \"#utility.yul\":6080:6086   */\n      0x00\n        /* \"#utility.yul\":6114:6119   */\n      dup2\n        /* \"#utility.yul\":6108:6120   */\n      mload\n        /* \"#utility.yul\":6098:6120   */\n      swap1\n      pop\n        /* \"#utility.yul\":6028:6127   */\n      swap2\n      swap1\n      pop\n      jump\t// out\n        /* \"#utility.yul\":6133:6302   */\n    tag_170:\n        /* \"#utility.yul\":6217:6228   */\n      0x00\n        /* \"#utility.yul\":6251:6257   */\n      dup3\n        /* \"#utility.yul\":6246:6249   */\n      dup3\n        /* \"#utility.yul\":6239:6258   */\n      mstore\n        /* \"#utility.yul\":6291:6295   */\n      0x20\n        /* \"#utility.yul\":6286:6289   */\n      dup3\n        /* \"#utility.yul\":6282:6296   */\n      add\n        /* \"#utility.yul\":6267:6296   */\n      swap1\n      pop\n        /* \"#utility.yul\":6133:6302   */\n      swap3\n      swap2\n      pop\n      pop\n      jump\t// out\n        /* \"#utility.yul\":6308:6447   */\n    tag_171:\n        /* \"#utility.yul\":6397:6403   */\n      dup3\n        /* \"#utility.yul\":6392:6395   */\n      dup2\n        /* \"#utility.yul\":6387:6390   */\n      dup4\n        /* \"#utility.yul\":6381:6404   */\n      mcopy\n        /* \"#utility.yul\":6438:6439   */\n      0x00\n        /* \"#utility.yul\":6429:6435   */\n      dup4\n        /* \"#utility.yul\":6424:6427   */\n      dup4\n        /* \"#utility.yul\":6420:6436   */\n      add\n        /* \"#utility.yul\":6413:6440   */\n      mstore\n        /* \"#utility.yul\":6308:6447   */\n      pop\n      pop\n      pop\n      jump\t// out\n        /* \"#utility.yul\":6453:6830   */\n    tag_172:\n        /* \"#utility.yul\":6541:6544   */\n      0x00\n        /* \"#utility.yul\":6569:6608   */\n      tag_289\n        /* \"#utility.yul\":6602:6607   */\n      dup3\n        /* \"#utility.yul\":6569:6608   */\n      tag_169\n      jump\t// in\n    tag_289:\n        /* \"#utility.yul\":6624:6695   */\n      tag_290\n        /* \"#utility.yul\":6688:6694   */\n      dup2\n        /* \"#utility.yul\":6683:6686   */\n      dup6\n        /* \"#utility.yul\":6624:6695   */\n      tag_170\n      jump\t// in\n    tag_290:\n        /* \"#utility.yul\":6617:6695   */\n      swap4\n      pop\n        /* \"#utility.yul\":6704:6769   */\n      tag_291\n        /* \"#utility.yul\":6762:6768   */\n      dup2\n        /* \"#utility.yul\":6757:6760   */\n      dup6\n        /* \"#utility.yul\":6750:6754   */\n      0x20\n        /* \"#utility.yul\":6743:6748   */\n      dup7\n        /* \"#utility.yul\":6739:6755   */\n      add\n        /* \"#utility.yul\":6704:6769   */\n      tag_171\n      jump\t// in\n    tag_291:\n        /* \"#utility.yul\":6794:6823   */\n      tag_292\n        /* \"#utility.yul\":6816:6822   */\n      dup2\n        /* \"#utility.yul\":6794:6823   */\n      tag_155\n      jump\t// in\n    tag_292:\n        /* \"#utility.yul\":6789:6792   */\n      dup5\n        /* \"#utility.yul\":6785:6824   */\n      add\n        /* \"#utility.yul\":6778:6824   */\n      swap2\n      pop\n        /* \"#utility.yul\":6545:6830   */\n      pop\n        /* \"#utility.yul\":6453:6830   */\n      swap3\n      swap2\n      pop\n      pop\n      jump\t// out\n        /* \"#utility.yul\":6836:6978   */\n    tag_173:\n        /* \"#utility.yul\":6939:6971   */\n      tag_294\n        /* \"#utility.yul\":6965:6970   */\n      dup2\n        /* \"#utility.yul\":6939:6971   */\n      tag_163\n      jump\t// in\n    tag_294:\n        /* \"#utility.yul\":6934:6937   */\n      dup3\n        /* \"#utility.yul\":6927:6972   */\n      mstore\n        /* \"#utility.yul\":6836:6978   */\n      pop\n      pop\n      jump\t// out\n        /* \"#utility.yul\":6984:7074   */\n    tag_174:\n        /* \"#utility.yul\":7018:7025   */\n      0x00\n        /* \"#utility.yul\":7061:7066   */\n      dup2\n        /* \"#utility.yul\":7054:7067   */\n      iszero\n        /* \"#utility.yul\":7047:7068   */\n      iszero\n        /* \"#utility.yul\":7036:7068   */\n      swap1\n      pop\n        /* \"#utility.yul\":6984:7074   */\n      swap2\n      swap1\n      pop\n      jump\t// out\n        /* \"#utility.yul\":7080:7189   */\n    tag_175:\n        /* \"#utility.yul\":7161:7182   */\n      tag_297\n        /* \"#utility.yul\":7176:7181   */\n      dup2\n        /* \"#utility.yul\":7161:7182   */\n      tag_174\n      jump\t// in\n    tag_297:\n        /* \"#utility.yul\":7156:7159   */\n      dup3\n        /* \"#utility.yul\":7149:7183   */\n      mstore\n        /* \"#utility.yul\":7080:7189   */\n      pop\n      pop\n      jump\t// out\n        /* \"#utility.yul\":7195:7970   */\n    tag_68:\n        /* \"#utility.yul\":7430:7434   */\n      0x00\n        /* \"#utility.yul\":7468:7471   */\n      0xa0\n        /* \"#utility.yul\":7457:7466   */\n      dup3\n        /* \"#utility.yul\":7453:7472   */\n      add\n        /* \"#utility.yul\":7445:7472   */\n      swap1\n      pop\n        /* \"#utility.yul\":7518:7527   */\n      dup2\n        /* \"#utility.yul\":7512:7516   */\n      dup2\n        /* \"#utility.yul\":7508:7528   */\n      sub\n        /* \"#utility.yul\":7504:7505   */\n      0x00\n        /* \"#utility.yul\":7493:7502   */\n      dup4\n        /* \"#utility.yul\":7489:7506   */\n      add\n        /* \"#utility.yul\":7482:7529   */\n      mstore\n        /* \"#utility.yul\":7546:7624   */\n      tag_299\n        /* \"#utility.yul\":7619:7623   */\n      dup2\n        /* \"#utility.yul\":7610:7616   */\n      dup9\n        /* \"#utility.yul\":7546:7624   */\n      tag_172\n      jump\t// in\n    tag_299:\n        /* \"#utility.yul\":7538:7624   */\n      swap1\n      pop\n        /* \"#utility.yul\":7634:7722   */\n      tag_300\n        /* \"#utility.yul\":7718:7720   */\n      0x20\n        /* \"#utility.yul\":7707:7716   */\n      dup4\n        /* \"#utility.yul\":7703:7721   */\n      add\n        /* \"#utility.yul\":7694:7700   */\n      dup8\n        /* \"#utility.yul\":7634:7722   */\n      tag_173\n      jump\t// in\n    tag_300:\n        /* \"#utility.yul\":7732:7804   */\n      tag_301\n        /* \"#utility.yul\":7800:7802   */\n      0x40\n        /* \"#utility.yul\":7789:7798   */\n      dup4\n        /* \"#utility.yul\":7785:7803   */\n      add\n        /* \"#utility.yul\":7776:7782   */\n      dup7\n        /* \"#utility.yul\":7732:7804   */\n      tag_152\n      jump\t// in\n    tag_301:\n        /* \"#utility.yul\":7814:7880   */\n      tag_302\n        /* \"#utility.yul\":7876:7878   */\n      0x60\n        /* \"#utility.yul\":7865:7874   */\n      dup4\n        /* \"#utility.yul\":7861:7879   */\n      add\n        /* \"#utility.yul\":7852:7858   */\n      dup6\n        /* \"#utility.yul\":7814:7880   */\n      tag_175\n      jump\t// in\n    tag_302:\n        /* \"#utility.yul\":7890:7963   */\n      tag_303\n        /* \"#utility.yul\":7958:7961   */\n      0x80\n        /* \"#utility.yul\":7947:7956   */\n      dup4\n        /* \"#utility.yul\":7943:7962   */\n      add\n        /* \"#utility.yul\":7934:7940   */\n      dup5\n        /* \"#utility.yul\":7890:7963   */\n      tag_152\n      jump\t// in\n    tag_303:\n        /* \"#utility.yul\":7195:7970   */\n      swap7\n      swap6\n      pop\n      pop\n      pop\n      pop\n      pop\n      pop\n      jump\t// out\n        /* \"#utility.yul\":7976:8145   */\n    tag_176:\n        /* \"#utility.yul\":8116:8137   */\n      0x446561646c696e65206861732070617373656400000000000000000000000000\n        /* \"#utility.yul\":8112:8113   */\n      0x00\n        /* \"#utility.yul\":8104:8110   */\n      dup3\n        /* \"#utility.yul\":8100:8114   */\n      add\n        /* \"#utility.yul\":8093:8138   */\n      mstore\n        /* \"#utility.yul\":7976:8145   */\n      pop\n      jump\t// out\n        /* \"#utility.yul\":8151:8517   */\n    tag_177:\n        /* \"#utility.yul\":8293:8296   */\n      0x00\n        /* \"#utility.yul\":8314:8381   */\n      tag_306\n        /* \"#utility.yul\":8378:8380   */\n      0x13\n        /* \"#utility.yul\":8373:8376   */\n      dup4\n        /* \"#utility.yul\":8314:8381   */\n      tag_170\n      jump\t// in\n    tag_306:\n        /* \"#utility.yul\":8307:8381   */\n      swap2\n      pop\n        /* \"#utility.yul\":8390:8483   */\n      tag_307\n        /* \"#utility.yul\":8479:8482   */\n      dup3\n        /* \"#utility.yul\":8390:8483   */\n      tag_176\n      jump\t// in\n    tag_307:\n        /* \"#utility.yul\":8508:8510   */\n      0x20\n        /* \"#utility.yul\":8503:8506   */\n      dup3\n        /* \"#utility.yul\":8499:8511   */\n      add\n        /* \"#utility.yul\":8492:8511   */\n      swap1\n      pop\n        /* \"#utility.yul\":8151:8517   */\n      swap2\n      swap1\n      pop\n      jump\t// out\n        /* \"#utility.yul\":8523:8942   */\n    tag_88:\n        /* \"#utility.yul\":8689:8693   */\n      0x00\n        /* \"#utility.yul\":8727:8729   */\n      0x20\n        /* \"#utility.yul\":8716:8725   */\n      dup3\n        /* \"#utility.yul\":8712:8730   */\n      add\n        /* \"#utility.yul\":8704:8730   */\n      swap1\n      pop\n        /* \"#utility.yul\":8776:8785   */\n      dup2\n        /* \"#utility.yul\":8770:8774   */\n      dup2\n        /* \"#utility.yul\":8766:8786   */\n      sub\n        /* \"#utility.yul\":8762:8763   */\n      0x00\n        /* \"#utility.yul\":8751:8760   */\n      dup4\n        /* \"#utility.yul\":8747:8764   */\n      add\n        /* \"#utility.yul\":8740:8787   */\n      mstore\n        /* \"#utility.yul\":8804:8935   */\n      tag_309\n        /* \"#utility.yul\":8930:8934   */\n      dup2\n        /* \"#utility.yul\":8804:8935   */\n      tag_177\n      jump\t// in\n    tag_309:\n        /* \"#utility.yul\":8796:8935   */\n      swap1\n      pop\n        /* \"#utility.yul\":8523:8942   */\n      swap2\n      swap1\n      pop\n      jump\t// out\n        /* \"#utility.yul\":8948:9129   */\n    tag_178:\n        /* \"#utility.yul\":9088:9121   */\n      0x4d696e696d756d20436f6e747269627574696f6e206973206e6f74206d657400\n        /* \"#utility.yul\":9084:9085   */\n      0x00\n        /* \"#utility.yul\":9076:9082   */\n      dup3\n        /* \"#utility.yul\":9072:9086   */\n      add\n        /* \"#utility.yul\":9065:9122   */\n      mstore\n        /* \"#utility.yul\":8948:9129   */\n      pop\n      jump\t// out\n        /* \"#utility.yul\":9135:9501   */\n    tag_179:\n        /* \"#utility.yul\":9277:9280   */\n      0x00\n        /* \"#utility.yul\":9298:9365   */\n      tag_312\n        /* \"#utility.yul\":9362:9364   */\n      0x1f\n        /* \"#utility.yul\":9357:9360   */\n      dup4\n        /* \"#utility.yul\":9298:9365   */\n      tag_170\n      jump\t// in\n    tag_312:\n        /* \"#utility.yul\":9291:9365   */\n      swap2\n      pop\n        /* \"#utility.yul\":9374:9467   */\n      tag_313\n        /* \"#utility.yul\":9463:9466   */\n      dup3\n        /* \"#utility.yul\":9374:9467   */\n      tag_178\n      jump\t// in\n    tag_313:\n        /* \"#utility.yul\":9492:9494   */\n      0x20\n        /* \"#utility.yul\":9487:9490   */\n      dup3\n        /* \"#utility.yul\":9483:9495   */\n      add\n        /* \"#utility.yul\":9476:9495   */\n      swap1\n      pop\n        /* \"#utility.yul\":9135:9501   */\n      swap2\n      swap1\n      pop\n      jump\t// out\n        /* \"#utility.yul\":9507:9926   */\n    tag_91:\n        /* \"#utility.yul\":9673:9677   */\n      0x00\n        /* \"#utility.yul\":9711:9713   */\n      0x20\n        /* \"#utility.yul\":9700:9709   */\n      dup3\n        /* \"#utility.yul\":9696:9714   */\n      add\n        /* \"#utility.yul\":9688:9714   */\n      swap1\n      pop\n        /* \"#utility.yul\":9760:9769   */\n      dup2\n        /* \"#utility.yul\":9754:9758   */\n      dup2\n        /* \"#utility.yul\":9750:9770   */\n      sub\n        /* \"#utility.yul\":9746:9747   */\n      0x00\n        /* \"#utility.yul\":9735:9744   */\n      dup4\n        /* \"#utility.yul\":9731:9748   */\n      add\n        /* \"#utility.yul\":9724:9771   */\n      mstore\n        /* \"#utility.yul\":9788:9919   */\n      tag_315\n        /* \"#utility.yul\":9914:9918   */\n      dup2\n        /* \"#utility.yul\":9788:9919   */\n      tag_179\n      jump\t// in\n    tag_315:\n        /* \"#utility.yul\":9780:9919   */\n      swap1\n      pop\n        /* \"#utility.yul\":9507:9926   */\n      swap2\n      swap1\n      pop\n      jump\t// out\n        /* \"#utility.yul\":9932:10112   */\n    tag_180:\n        /* \"#utility.yul\":9980:10057   */\n      0x4e487b7100000000000000000000000000000000000000000000000000000000\n        /* \"#utility.yul\":9977:9978   */\n      0x00\n        /* \"#utility.yul\":9970:10058   */\n      mstore\n        /* \"#utility.yul\":10077:10081   */\n      0x11\n        /* \"#utility.yul\":10074:10075   */\n      0x04\n        /* \"#utility.yul\":10067:10082   */\n      mstore\n        /* \"#utility.yul\":10101:10105   */\n      0x24\n        /* \"#utility.yul\":10098:10099   */\n      0x00\n        /* \"#utility.yul\":10091:10106   */\n      revert\n        /* \"#utility.yul\":10118:10351   */\n    tag_94:\n        /* \"#utility.yul\":10157:10160   */\n      0x00\n        /* \"#utility.yul\":10180:10204   */\n      tag_318\n        /* \"#utility.yul\":10198:10203   */\n      dup3\n        /* \"#utility.yul\":10180:10204   */\n      tag_151\n      jump\t// in\n    tag_318:\n        /* \"#utility.yul\":10171:10204   */\n      swap2\n      pop\n        /* \"#utility.yul\":10226:10292   */\n      0xffffffffffffffffffffffffffffffffffffffffffffffffffffffffffffffff\n        /* \"#utility.yul\":10219:10224   */\n      dup3\n        /* \"#utility.yul\":10216:10293   */\n      sub\n        /* \"#utility.yul\":10213:10316   */\n      tag_319\n      jumpi\n        /* \"#utility.yul\":10296:10314   */\n      tag_320\n      tag_180\n      jump\t// in\n    tag_320:\n        /* \"#utility.yul\":10213:10316   */\n    tag_319:\n        /* \"#utility.yul\":10343:10344   */\n      0x01\n        /* \"#utility.yul\":10336:10341   */\n      dup3\n        /* \"#utility.yul\":10332:10345   */\n      add\n        /* \"#utility.yul\":10325:10345   */\n      swap1\n      pop\n        /* \"#utility.yul\":10118:10351   */\n      swap2\n      swap1\n      pop\n      jump\t// out\n        /* \"#utility.yul\":10357:10548   */\n    tag_96:\n        /* \"#utility.yul\":10397:10400   */\n      0x00\n        /* \"#utility.yul\":10416:10436   */\n      tag_322\n        /* \"#utility.yul\":10434:10435   */\n      dup3\n        /* \"#utility.yul\":10416:10436   */\n      tag_151\n      jump\t// in\n    tag_322:\n        /* \"#utility.yul\":10411:10436   */\n      swap2\n      pop\n        /* \"#utility.yul\":10450:10470   */\n      tag_323\n        /* \"#utility.yul\":10468:10469   */\n      dup4\n        /* \"#utility.yul\":10450:10470   */\n      tag_151\n      jump\t// in\n    tag_323:\n        /* \"#utility.yul\":10445:10470   */\n      swap3\n      pop\n        /* \"#utility.yul\":10493:10494   */\n      dup3\n        /* \"#utility.yul\":10490:10491   */\n      dup3\n        /* \"#utility.yul\":10486:10495   */\n      add\n        /* \"#utility.yul\":10479:10495   */\n      swap1\n      pop\n        /* \"#utility.yul\":10514:10517   */\n      dup1\n        /* \"#utility.yul\":10511:10512   */\n      dup3\n        /* \"#utility.yul\":10508:10518   */\n      gt\n        /* \"#utility.yul\":10505:10541   */\n      iszero\n      tag_324\n      jumpi\n        /* \"#utility.yul\":10521:10539   */\n      tag_325\n      tag_180\n      jump\t// in\n    tag_325:\n        /* \"#utility.yul\":10505:10541   */\n    tag_324:\n        /* \"#utility.yul\":10357:10548   */\n      swap3\n      swap2\n      pop\n      pop\n      jump\t// out\n        /* \"#utility.yul\":10554:10777   */\n    tag_181:\n        /* \"#utility.yul\":10694:10728   */\n      0x4f6e6c79206d616e616765722063616e2063616c6c6c20746869732066756e63\n        /* \"#utility.yul\":10690:10691   */\n      0x00\n        /* \"#utility.yul\":10682:10688   */\n      dup3\n        /* \"#utility.yul\":10678:10692   */\n      add\n        /* \"#utility.yul\":10671:10729   */\n      mstore\n        /* \"#utility.yul\":10763:10769   */\n      0x74696f6e00000000000000000000000000000000000000000000000000000000\n        /* \"#utility.yul\":10758:10760   */\n      0x20\n        /* \"#utility.yul\":10750:10756   */\n      dup3\n        /* \"#utility.yul\":10746:10761   */\n      add\n        /* \"#utility.yul\":10739:10770   */\n      mstore\n        /* \"#utility.yul\":10554:10777   */\n      pop\n      jump\t// out\n        /* \"#utility.yul\":10783:11149   */\n    tag_182:\n        /* \"#utility.yul\":10925:10928   */\n      0x00\n        /* \"#utility.yul\":10946:11013   */\n      tag_328\n        /* \"#utility.yul\":11010:11012   */\n      0x24\n        /* \"#utility.yul\":11005:11008   */\n      dup4\n        /* \"#utility.yul\":10946:11013   */\n      tag_170\n      jump\t// in\n    tag_328:\n        /* \"#utility.yul\":10939:11013   */\n      swap2\n      pop\n        /* \"#utility.yul\":11022:11115   */\n      tag_329\n        /* \"#utility.yul\":11111:11114   */\n      dup3\n        /* \"#utility.yul\":11022:11115   */\n      tag_181\n      jump\t// in\n    tag_329:\n        /* \"#utility.yul\":11140:11142   */\n      0x40\n        /* \"#utility.yul\":11135:11138   */\n      dup3\n        /* \"#utility.yul\":11131:11143   */\n      add\n        /* \"#utility.yul\":11124:11143   */\n      swap1\n      pop\n        /* \"#utility.yul\":10783:11149   */\n      swap2\n      swap1\n      pop\n      jump\t// out\n        /* \"#utility.yul\":11155:11574   */\n    tag_101:\n        /* \"#utility.yul\":11321:11325   */\n      0x00\n        /* \"#utility.yul\":11359:11361   */\n      0x20\n        /* \"#utility.yul\":11348:11357   */\n      dup3\n        /* \"#utility.yul\":11344:11362   */\n      add\n        /* \"#utility.yul\":11336:11362   */\n      swap1\n      pop\n        /* \"#utility.yul\":11408:11417   */\n      dup2\n        /* \"#utility.yul\":11402:11406   */\n      dup2\n        /* \"#utility.yul\":11398:11418   */\n      sub\n        /* \"#utility.yul\":11394:11395   */\n      0x00\n        /* \"#utility.yul\":11383:11392   */\n      dup4\n        /* \"#utility.yul\":11379:11396   */\n      add\n        /* \"#utility.yul\":11372:11419   */\n      mstore\n        /* \"#utility.yul\":11436:11567   */\n      tag_331\n        /* \"#utility.yul\":11562:11566   */\n      dup2\n        /* \"#utility.yul\":11436:11567   */\n      tag_182\n      jump\t// in\n    tag_331:\n        /* \"#utility.yul\":11428:11567   */\n      swap1\n      pop\n        /* \"#utility.yul\":11155:11574   */\n      swap2\n      swap1\n      pop\n      jump\t// out\n        /* \"#utility.yul\":11580:11760   */\n    tag_183:\n        /* \"#utility.yul\":11628:11705   */\n      0x4e487b7100000000000000000000000000000000000000000000000000000000\n        /* \"#utility.yul\":11625:11626   */\n      0x00\n        /* \"#utility.yul\":11618:11706   */\n      mstore\n        /* \"#utility.yul\":11725:11729   */\n      0x22\n        /* \"#utility.yul\":11722:11723   */\n      0x04\n        /* \"#utility.yul\":11715:11730   */\n      mstore\n        /* \"#utility.yul\":11749:11753   */\n      0x24\n        /* \"#utility.yul\":11746:11747   */\n      0x00\n        /* \"#utility.yul\":11739:11754   */\n      revert\n        /* \"#utility.yul\":11766:12086   */\n    tag_139:\n        /* \"#utility.yul\":11810:11816   */\n      0x00\n        /* \"#utility.yul\":11847:11848   */\n      0x02\n        /* \"#utility.yul\":11841:11845   */\n      dup3\n        /* \"#utility.yul\":11837:11849   */\n      div\n        /* \"#utility.yul\":11827:11849   */\n      swap1\n      pop\n        /* \"#utility.yul\":11894:11895   */\n      0x01\n        /* \"#utility.yul\":11888:11892   */\n      dup3\n        /* \"#utility.yul\":11884:11896   */\n      and\n        /* \"#utility.yul\":11915:11933   */\n      dup1\n        /* \"#utility.yul\":11905:11986   */\n      tag_334\n      jumpi\n        /* \"#utility.yul\":11971:11975   */\n      0x7f\n        /* \"#utility.yul\":11963:11969   */\n      dup3\n        /* \"#utility.yul\":11959:11976   */\n      and\n        /* \"#utility.yul\":11949:11976   */\n      swap2\n      pop\n        /* \"#utility.yul\":11905:11986   */\n    tag_334:\n        /* \"#utility.yul\":12033:12035   */\n      0x20\n        /* \"#utility.yul\":12025:12031   */\n      dup3\n        /* \"#utility.yul\":12022:12036   */\n      lt\n        /* \"#utility.yul\":12002:12020   */\n      dup2\n        /* \"#utility.yul\":11999:12037   */\n      sub\n        /* \"#utility.yul\":11996:12080   */\n      tag_335\n      jumpi\n        /* \"#utility.yul\":12052:12070   */\n      tag_336\n      tag_183\n      jump\t// in\n    tag_336:\n        /* \"#utility.yul\":11996:12080   */\n    tag_335:\n        /* \"#utility.yul\":11817:12086   */\n      pop\n        /* \"#utility.yul\":11766:12086   */\n      swap2\n      swap1\n      pop\n      jump\t// out\n        /* \"#utility.yul\":12092:12233   */\n    tag_184:\n        /* \"#utility.yul\":12141:12145   */\n      0x00\n        /* \"#utility.yul\":12164:12167   */\n      dup2\n        /* \"#utility.yul\":12156:12167   */\n      swap1\n      pop\n        /* \"#utility.yul\":12187:12190   */\n      dup2\n        /* \"#utility.yul\":12184:12185   */\n      0x00\n        /* \"#utility.yul\":12177:12191   */\n      mstore\n        /* \"#utility.yul\":12221:12225   */\n      0x20\n        /* \"#utility.yul\":12218:12219   */\n      0x00\n        /* \"#utility.yul\":12208:12226   */\n      keccak256\n        /* \"#utility.yul\":12200:12226   */\n      swap1\n      pop\n        /* \"#utility.yul\":12092:12233   */\n      swap2\n      swap1\n      pop\n      jump\t// out\n        /* \"#utility.yul\":12239:12332   */\n    tag_185:\n        /* \"#utility.yul\":12276:12282   */\n      0x00\n        /* \"#utility.yul\":12323:12325   */\n      0x20\n        /* \"#utility.yul\":12318:12320   */\n      0x1f\n        /* \"#utility.yul\":12311:12316   */\n      dup4\n        /* \"#utility.yul\":12307:12321   */\n      add\n        /* \"#utility.yul\":12303:12326   */\n      div\n        /* \"#utility.yul\":12293:12326   */\n      swap1\n      pop\n        /* \"#utility.yul\":12239:12332   */\n      swap2\n      swap1\n      pop\n      jump\t// out\n        /* \"#utility.yul\":12338:12445   */\n    tag_186:\n        /* \"#utility.yul\":12382:12390   */\n      0x00\n        /* \"#utility.yul\":12432:12437   */\n      dup3\n        /* \"#utility.yul\":12426:12430   */\n      dup3\n        /* \"#utility.yul\":12422:12438   */\n      shl\n        /* \"#utility.yul\":12401:12438   */\n      swap1\n      pop\n        /* \"#utility.yul\":12338:12445   */\n      swap3\n      swap2\n      pop\n      pop\n      jump\t// out\n        /* \"#utility.yul\":12451:12844   */\n    tag_187:\n        /* \"#utility.yul\":12520:12526   */\n      0x00\n        /* \"#utility.yul\":12570:12571   */\n      0x08\n        /* \"#utility.yul\":12558:12568   */\n      dup4\n        /* \"#utility.yul\":12554:12572   */\n      mul\n        /* \"#utility.yul\":12593:12690   */\n      tag_341\n        /* \"#utility.yul\":12623:12689   */\n      0xffffffffffffffffffffffffffffffffffffffffffffffffffffffffffffffff\n        /* \"#utility.yul\":12612:12621   */\n      dup3\n        /* \"#utility.yul\":12593:12690   */\n      tag_186\n      jump\t// in\n    tag_341:\n        /* \"#utility.yul\":12711:12750   */\n      tag_342\n        /* \"#utility.yul\":12741:12749   */\n      dup7\n        /* \"#utility.yul\":12730:12739   */\n      dup4\n        /* \"#utility.yul\":12711:12750   */\n      tag_186\n      jump\t// in\n    tag_342:\n        /* \"#utility.yul\":12699:12750   */\n      swap6\n      pop\n        /* \"#utility.yul\":12783:12787   */\n      dup1\n        /* \"#utility.yul\":12779:12788   */\n      not\n        /* \"#utility.yul\":12772:12777   */\n      dup5\n        /* \"#utility.yul\":12768:12789   */\n      and\n        /* \"#utility.yul\":12759:12789   */\n      swap4\n      pop\n        /* \"#utility.yul\":12832:12836   */\n      dup1\n        /* \"#utility.yul\":12822:12830   */\n      dup7\n        /* \"#utility.yul\":12818:12837   */\n      and\n        /* \"#utility.yul\":12811:12816   */\n      dup5\n        /* \"#utility.yul\":12808:12838   */\n      or\n        /* \"#utility.yul\":12798:12838   */\n      swap3\n      pop\n        /* \"#utility.yul\":12527:12844   */\n      pop\n      pop\n        /* \"#utility.yul\":12451:12844   */\n      swap4\n      swap3\n      pop\n      pop\n      pop\n      jump\t// out\n        /* \"#utility.yul\":12850:12910   */\n    tag_188:\n        /* \"#utility.yul\":12878:12881   */\n      0x00\n        /* \"#utility.yul\":12899:12904   */\n      dup2\n        /* \"#utility.yul\":12892:12904   */\n      swap1\n      pop\n        /* \"#utility.yul\":12850:12910   */\n      swap2\n      swap1\n      pop\n      jump\t// out\n        /* \"#utility.yul\":12916:13058   */\n    tag_189:\n        /* \"#utility.yul\":12966:12975   */\n      0x00\n        /* \"#utility.yul\":12999:13052   */\n      tag_345\n        /* \"#utility.yul\":13017:13051   */\n      tag_346\n        /* \"#utility.yul\":13026:13050   */\n      tag_347\n        /* \"#utility.yul\":13044:13049   */\n      dup5\n        /* \"#utility.yul\":13026:13050   */\n      tag_151\n      jump\t// in\n    tag_347:\n        /* \"#utility.yul\":13017:13051   */\n      tag_188\n      jump\t// in\n    tag_346:\n        /* \"#utility.yul\":12999:13052   */\n      tag_151\n      jump\t// in\n    tag_345:\n        /* \"#utility.yul\":12986:13052   */\n      swap1\n      pop\n        /* \"#utility.yul\":12916:13058   */\n      swap2\n      swap1\n      pop\n      jump\t// out\n        /* \"#utility.yul\":13064:13139   */\n    tag_190:\n        /* \"#utility.yul\":13107:13110   */\n      0x00\n        /* \"#utility.yul\":13128:13133   */\n      dup2\n        /* \"#utility.yul\":13121:13133   */\n      swap1\n      pop\n        /* \"#utility.yul\":13064:13139   */\n      swap2\n      swap1\n      pop\n      jump\t// out\n        /* \"#utility.yul\":13145:13414   */\n    tag_191:\n        /* \"#utility.yul\":13255:13294   */\n      tag_350\n        /* \"#utility.yul\":13286:13293   */\n      dup4\n        /* \"#utility.yul\":13255:13294   */\n      tag_189\n      jump\t// in\n    tag_350:\n        /* \"#utility.yul\":13316:13407   */\n      tag_351\n        /* \"#utility.yul\":13365:13406   */\n      tag_352\n        /* \"#utility.yul\":13389:13405   */\n      dup3\n        /* \"#utility.yul\":13365:13406   */\n      tag_190\n      jump\t// in\n    tag_352:\n        /* \"#utility.yul\":13357:13363   */\n      dup5\n        /* \"#utility.yul\":13350:13354   */\n      dup5\n        /* \"#utility.yul\":13344:13355   */\n      sload\n        /* \"#utility.yul\":13316:13407   */\n      tag_187\n      jump\t// in\n    tag_351:\n        /* \"#utility.yul\":13310:13314   */\n      dup3\n        /* \"#utility.yul\":13303:13408   */\n      sstore\n        /* \"#utility.yul\":13221:13414   */\n      pop\n        /* \"#utility.yul\":13145:13414   */\n      pop\n      pop\n      pop\n      jump\t// out\n        /* \"#utility.yul\":13420:13493   */\n    tag_192:\n        /* \"#utility.yul\":13465:13468   */\n      0x00\n        /* \"#utility.yul\":13420:13493   */\n      swap1\n      jump\t// out\n        /* \"#utility.yul\":13499:13688   */\n    tag_193:\n        /* \"#utility.yul\":13576:13608   */\n      tag_355\n      tag_192\n      jump\t// in\n    tag_355:\n        /* \"#utility.yul\":13617:13682   */\n      tag_356\n        /* \"#utility.yul\":13675:13681   */\n      dup2\n        /* \"#utility.yul\":13667:13673   */\n      dup5\n        /* \"#utility.yul\":13661:13665   */\n      dup5\n        /* \"#utility.yul\":13617:13682   */\n      tag_191\n      jump\t// in\n    tag_356:\n        /* \"#utility.yul\":13552:13688   */\n      pop\n        /* \"#utility.yul\":13499:13688   */\n      pop\n      pop\n      jump\t// out\n        /* \"#utility.yul\":13694:13880   */\n    tag_194:\n        /* \"#utility.yul\":13754:13874   */\n    tag_358:\n        /* \"#utility.yul\":13771:13774   */\n      dup2\n        /* \"#utility.yul\":13764:13769   */\n      dup2\n        /* \"#utility.yul\":13761:13775   */\n      lt\n        /* \"#utility.yul\":13754:13874   */\n      iszero\n      tag_360\n      jumpi\n        /* \"#utility.yul\":13825:13864   */\n      tag_361\n        /* \"#utility.yul\":13862:13863   */\n      0x00\n        /* \"#utility.yul\":13855:13860   */\n      dup3\n        /* \"#utility.yul\":13825:13864   */\n      tag_193\n      jump\t// in\n    tag_361:\n        /* \"#utility.yul\":13798:13799   */\n      0x01\n        /* \"#utility.yul\":13791:13796   */\n      dup2\n        /* \"#utility.yul\":13787:13800   */\n      add\n        /* \"#utility.yul\":13778:13800   */\n      swap1\n      pop\n        /* \"#utility.yul\":13754:13874   */\n      jump(tag_358)\n    tag_360:\n        /* \"#utility.yul\":13694:13880   */\n      pop\n      pop\n      jump\t// out\n        /* \"#utility.yul\":13886:14429   */\n    tag_195:\n        /* \"#utility.yul\":13987:13989   */\n      0x1f\n        /* \"#utility.yul\":13982:13985   */\n      dup3\n        /* \"#utility.yul\":13979:13990   */\n      gt\n        /* \"#utility.yul\":13976:14422   */\n      iszero\n      tag_363\n      jumpi\n        /* \"#utility.yul\":14021:14059   */\n      tag_364\n        /* \"#utility.yul\":14053:14058   */\n      dup2\n        /* \"#utility.yul\":14021:14059   */\n      tag_184\n      jump\t// in\n    tag_364:\n        /* \"#utility.yul\":14105:14134   */\n      tag_365\n        /* \"#utility.yul\":14123:14133   */\n      dup5\n        /* \"#utility.yul\":14105:14134   */\n      tag_185\n      jump\t// in\n    tag_365:\n        /* \"#utility.yul\":14095:14103   */\n      dup2\n        /* \"#utility.yul\":14091:14135   */\n      add\n        /* \"#utility.yul\":14288:14290   */\n      0x20\n        /* \"#utility.yul\":14276:14286   */\n      dup6\n        /* \"#utility.yul\":14273:14291   */\n      lt\n        /* \"#utility.yul\":14270:14319   */\n      iszero\n      tag_366\n      jumpi\n        /* \"#utility.yul\":14309:14317   */\n      dup2\n        /* \"#utility.yul\":14294:14317   */\n      swap1\n      pop\n        /* \"#utility.yul\":14270:14319   */\n    tag_366:\n        /* \"#utility.yul\":14332:14412   */\n      tag_367\n        /* \"#utility.yul\":14388:14410   */\n      tag_368\n        /* \"#utility.yul\":14406:14409   */\n      dup6\n        /* \"#utility.yul\":14388:14410   */\n      tag_185\n      jump\t// in\n    tag_368:\n        /* \"#utility.yul\":14378:14386   */\n      dup4\n        /* \"#utility.yul\":14374:14411   */\n      add\n        /* \"#utility.yul\":14361:14372   */\n      dup3\n        /* \"#utility.yul\":14332:14412   */\n      tag_194\n      jump\t// in\n    tag_367:\n        /* \"#utility.yul\":13991:14422   */\n      pop\n      pop\n        /* \"#utility.yul\":13976:14422   */\n    tag_363:\n        /* \"#utility.yul\":13886:14429   */\n      pop\n      pop\n      pop\n      jump\t// out\n        /* \"#utility.yul\":14435:14552   */\n    tag_196:\n        /* \"#utility.yul\":14489:14497   */\n      0x00\n        /* \"#utility.yul\":14539:14544   */\n      dup3\n        /* \"#utility.yul\":14533:14537   */\n      dup3\n        /* \"#utility.yul\":14529:14545   */\n      shr\n        /* \"#utility.yul\":14508:14545   */\n      swap1\n      pop\n        /* \"#utility.yul\":14435:14552   */\n      swap3\n      swap2\n      pop\n      pop\n      jump\t// out\n        /* \"#utility.yul\":14558:14727   */\n    tag_197:\n        /* \"#utility.yul\":14602:14608   */\n      0x00\n        /* \"#utility.yul\":14635:14686   */\n      tag_371\n        /* \"#utility.yul\":14683:14684   */\n      0x00\n        /* \"#utility.yul\":14679:14685   */\n      not\n        /* \"#utility.yul\":14671:14676   */\n      dup5\n        /* \"#utility.yul\":14668:14669   */\n      0x08\n        /* \"#utility.yul\":14664:14677   */\n      mul\n        /* \"#utility.yul\":14635:14686   */\n      tag_196\n      jump\t// in\n    tag_371:\n        /* \"#utility.yul\":14631:14687   */\n      not\n        /* \"#utility.yul\":14716:14720   */\n      dup1\n        /* \"#utility.yul\":14710:14714   */\n      dup4\n        /* \"#utility.yul\":14706:14721   */\n      and\n        /* \"#utility.yul\":14696:14721   */\n      swap2\n      pop\n        /* \"#utility.yul\":14609:14727   */\n      pop\n        /* \"#utility.yul\":14558:14727   */\n      swap3\n      swap2\n      pop\n      pop\n      jump\t// out\n        /* \"#utility.yul\":14732:15027   */\n    tag_198:\n        /* \"#utility.yul\":14808:14812   */\n      0x00\n        /* \"#utility.yul\":14954:14983   */\n      tag_373\n        /* \"#utility.yul\":14979:14982   */\n      dup4\n        /* \"#utility.yul\":14973:14977   */\n      dup4\n        /* \"#utility.yul\":14954:14983   */\n      tag_197\n      jump\t// in\n    tag_373:\n        /* \"#utility.yul\":14946:14983   */\n      swap2\n      pop\n        /* \"#utility.yul\":15016:15019   */\n      dup3\n        /* \"#utility.yul\":15013:15014   */\n      0x02\n        /* \"#utility.yul\":15009:15020   */\n      mul\n        /* \"#utility.yul\":15003:15007   */\n      dup3\n        /* \"#utility.yul\":15000:15021   */\n      or\n        /* \"#utility.yul\":14992:15021   */\n      swap1\n      pop\n        /* \"#utility.yul\":14732:15027   */\n      swap3\n      swap2\n      pop\n      pop\n      jump\t// out\n        /* \"#utility.yul\":15032:16427   */\n    tag_105:\n        /* \"#utility.yul\":15149:15186   */\n      tag_375\n        /* \"#utility.yul\":15182:15185   */\n      dup3\n        /* \"#utility.yul\":15149:15186   */\n      tag_169\n      jump\t// in\n    tag_375:\n        /* \"#utility.yul\":15251:15269   */\n      0xffffffffffffffff\n        /* \"#utility.yul\":15243:15249   */\n      dup2\n        /* \"#utility.yul\":15240:15270   */\n      gt\n        /* \"#utility.yul\":15237:15293   */\n      iszero\n      tag_376\n      jumpi\n        /* \"#utility.yul\":15273:15291   */\n      tag_377\n      tag_156\n      jump\t// in\n    tag_377:\n        /* \"#utility.yul\":15237:15293   */\n    tag_376:\n        /* \"#utility.yul\":15317:15355   */\n      tag_378\n        /* \"#utility.yul\":15349:15353   */\n      dup3\n        /* \"#utility.yul\":15343:15354   */\n      sload\n        /* \"#utility.yul\":15317:15355   */\n      tag_139\n      jump\t// in\n    tag_378:\n        /* \"#utility.yul\":15402:15469   */\n      tag_379\n        /* \"#utility.yul\":15462:15468   */\n      dup3\n        /* \"#utility.yul\":15454:15460   */\n      dup3\n        /* \"#utility.yul\":15448:15452   */\n      dup6\n        /* \"#utility.yul\":15402:15469   */\n      tag_195\n      jump\t// in\n    tag_379:\n        /* \"#utility.yul\":15496:15497   */\n      0x00\n        /* \"#utility.yul\":15520:15524   */\n      0x20\n        /* \"#utility.yul\":15507:15524   */\n      swap1\n      pop\n        /* \"#utility.yul\":15552:15554   */\n      0x1f\n        /* \"#utility.yul\":15544:15550   */\n      dup4\n        /* \"#utility.yul\":15541:15555   */\n      gt\n        /* \"#utility.yul\":15569:15570   */\n      0x01\n        /* \"#utility.yul\":15564:16182   */\n      dup2\n      eq\n      tag_381\n      jumpi\n        /* \"#utility.yul\":16226:16227   */\n      0x00\n        /* \"#utility.yul\":16243:16249   */\n      dup5\n        /* \"#utility.yul\":16240:16317   */\n      iszero\n      tag_382\n      jumpi\n        /* \"#utility.yul\":16292:16301   */\n      dup3\n        /* \"#utility.yul\":16287:16290   */\n      dup8\n        /* \"#utility.yul\":16283:16302   */\n      add\n        /* \"#utility.yul\":16277:16303   */\n      mload\n        /* \"#utility.yul\":16268:16303   */\n      swap1\n      pop\n        /* \"#utility.yul\":16240:16317   */\n    tag_382:\n        /* \"#utility.yul\":16343:16410   */\n      tag_383\n        /* \"#utility.yul\":16403:16409   */\n      dup6\n        /* \"#utility.yul\":16396:16401   */\n      dup3\n        /* \"#utility.yul\":16343:16410   */\n      tag_198\n      jump\t// in\n    tag_383:\n        /* \"#utility.yul\":16337:16341   */\n      dup7\n        /* \"#utility.yul\":16330:16411   */\n      sstore\n        /* \"#utility.yul\":16199:16421   */\n      pop\n        /* \"#utility.yul\":15534:16421   */\n      jump(tag_380)\n        /* \"#utility.yul\":15564:16182   */\n    tag_381:\n        /* \"#utility.yul\":15616:15620   */\n      0x1f\n        /* \"#utility.yul\":15612:15621   */\n      not\n        /* \"#utility.yul\":15604:15610   */\n      dup5\n        /* \"#utility.yul\":15600:15622   */\n      and\n        /* \"#utility.yul\":15650:15687   */\n      tag_384\n        /* \"#utility.yul\":15682:15686   */\n      dup7\n        /* \"#utility.yul\":15650:15687   */\n      tag_184\n      jump\t// in\n    tag_384:\n        /* \"#utility.yul\":15709:15710   */\n      0x00\n        /* \"#utility.yul\":15723:15931   */\n    tag_385:\n        /* \"#utility.yul\":15737:15744   */\n      dup3\n        /* \"#utility.yul\":15734:15735   */\n      dup2\n        /* \"#utility.yul\":15731:15745   */\n      lt\n        /* \"#utility.yul\":15723:15931   */\n      iszero\n      tag_387\n      jumpi\n        /* \"#utility.yul\":15816:15825   */\n      dup5\n        /* \"#utility.yul\":15811:15814   */\n      dup10\n        /* \"#utility.yul\":15807:15826   */\n      add\n        /* \"#utility.yul\":15801:15827   */\n      mload\n        /* \"#utility.yul\":15793:15799   */\n      dup3\n        /* \"#utility.yul\":15786:15828   */\n      sstore\n        /* \"#utility.yul\":15867:15868   */\n      0x01\n        /* \"#utility.yul\":15859:15865   */\n      dup3\n        /* \"#utility.yul\":15855:15869   */\n      add\n        /* \"#utility.yul\":15845:15869   */\n      swap2\n      pop\n        /* \"#utility.yul\":15914:15916   */\n      0x20\n        /* \"#utility.yul\":15903:15912   */\n      dup6\n        /* \"#utility.yul\":15899:15917   */\n      add\n        /* \"#utility.yul\":15886:15917   */\n      swap5\n      pop\n        /* \"#utility.yul\":15760:15764   */\n      0x20\n        /* \"#utility.yul\":15757:15758   */\n      dup2\n        /* \"#utility.yul\":15753:15765   */\n      add\n        /* \"#utility.yul\":15748:15765   */\n      swap1\n      pop\n        /* \"#utility.yul\":15723:15931   */\n      jump(tag_385)\n    tag_387:\n        /* \"#utility.yul\":15959:15965   */\n      dup7\n        /* \"#utility.yul\":15950:15957   */\n      dup4\n        /* \"#utility.yul\":15947:15966   */\n      lt\n        /* \"#utility.yul\":15944:16123   */\n      iszero\n      tag_388\n      jumpi\n        /* \"#utility.yul\":16017:16026   */\n      dup5\n        /* \"#utility.yul\":16012:16015   */\n      dup10\n        /* \"#utility.yul\":16008:16027   */\n      add\n        /* \"#utility.yul\":16002:16028   */\n      mload\n        /* \"#utility.yul\":16060:16108   */\n      tag_389\n        /* \"#utility.yul\":16102:16106   */\n      0x1f\n        /* \"#utility.yul\":16094:16100   */\n      dup10\n        /* \"#utility.yul\":16090:16107   */\n      and\n        /* \"#utility.yul\":16079:16088   */\n      dup3\n        /* \"#utility.yul\":16060:16108   */\n      tag_197\n      jump\t// in\n    tag_389:\n        /* \"#utility.yul\":16052:16058   */\n      dup4\n        /* \"#utility.yul\":16045:16109   */\n      sstore\n        /* \"#utility.yul\":15967:16123   */\n      pop\n        /* \"#utility.yul\":15944:16123   */\n    tag_388:\n        /* \"#utility.yul\":16169:16170   */\n      0x01\n        /* \"#utility.yul\":16165:16166   */\n      0x02\n        /* \"#utility.yul\":16157:16163   */\n      dup9\n        /* \"#utility.yul\":16153:16167   */\n      mul\n        /* \"#utility.yul\":16149:16171   */\n      add\n        /* \"#utility.yul\":16143:16147   */\n      dup9\n        /* \"#utility.yul\":16136:16172   */\n      sstore\n        /* \"#utility.yul\":15571:16182   */\n      pop\n      pop\n      pop\n        /* \"#utility.yul\":15534:16421   */\n    tag_380:\n      pop\n        /* \"#utility.yul\":15124:16427   */\n      pop\n      pop\n      pop\n        /* \"#utility.yul\":15032:16427   */\n      pop\n      pop\n      jump\t// out\n        /* \"#utility.yul\":16433:16606   */\n    tag_199:\n        /* \"#utility.yul\":16573:16598   */\n      0x594f75206d75737420626520636f6e7472696275746f72000000000000000000\n        /* \"#utility.yul\":16569:16570   */\n      0x00\n        /* \"#utility.yul\":16561:16567   */\n      dup3\n        /* \"#utility.yul\":16557:16571   */\n      add\n        /* \"#utility.yul\":16550:16599   */\n      mstore\n        /* \"#utility.yul\":16433:16606   */\n      pop\n      jump\t// out\n        /* \"#utility.yul\":16612:16978   */\n    tag_200:\n        /* \"#utility.yul\":16754:16757   */\n      0x00\n        /* \"#utility.yul\":16775:16842   */\n      tag_392\n        /* \"#utility.yul\":16839:16841   */\n      0x17\n        /* \"#utility.yul\":16834:16837   */\n      dup4\n        /* \"#utility.yul\":16775:16842   */\n      tag_170\n      jump\t// in\n    tag_392:\n        /* \"#utility.yul\":16768:16842   */\n      swap2\n      pop\n        /* \"#utility.yul\":16851:16944   */\n      tag_393\n        /* \"#utility.yul\":16940:16943   */\n      dup3\n        /* \"#utility.yul\":16851:16944   */\n      tag_199\n      jump\t// in\n    tag_393:\n        /* \"#utility.yul\":16969:16971   */\n      0x20\n        /* \"#utility.yul\":16964:16967   */\n      dup3\n        /* \"#utility.yul\":16960:16972   */\n      add\n        /* \"#utility.yul\":16953:16972   */\n      swap1\n      pop\n        /* \"#utility.yul\":16612:16978   */\n      swap2\n      swap1\n      pop\n      jump\t// out\n        /* \"#utility.yul\":16984:17403   */\n    tag_109:\n        /* \"#utility.yul\":17150:17154   */\n      0x00\n        /* \"#utility.yul\":17188:17190   */\n      0x20\n        /* \"#utility.yul\":17177:17186   */\n      dup3\n        /* \"#utility.yul\":17173:17191   */\n      add\n        /* \"#utility.yul\":17165:17191   */\n      swap1\n      pop\n        /* \"#utility.yul\":17237:17246   */\n      dup2\n        /* \"#utility.yul\":17231:17235   */\n      dup2\n        /* \"#utility.yul\":17227:17247   */\n      sub\n        /* \"#utility.yul\":17223:17224   */\n      0x00\n        /* \"#utility.yul\":17212:17221   */\n      dup4\n        /* \"#utility.yul\":17208:17225   */\n      add\n        /* \"#utility.yul\":17201:17248   */\n      mstore\n        /* \"#utility.yul\":17265:17396   */\n      tag_395\n        /* \"#utility.yul\":17391:17395   */\n      dup2\n        /* \"#utility.yul\":17265:17396   */\n      tag_200\n      jump\t// in\n    tag_395:\n        /* \"#utility.yul\":17257:17396   */\n      swap1\n      pop\n        /* \"#utility.yul\":16984:17403   */\n      swap2\n      swap1\n      pop\n      jump\t// out\n        /* \"#utility.yul\":17409:17581   */\n    tag_201:\n        /* \"#utility.yul\":17549:17573   */\n      0x596f75206861766520616c726561647920766f74656400000000000000000000\n        /* \"#utility.yul\":17545:17546   */\n      0x00\n        /* \"#utility.yul\":17537:17543   */\n      dup3\n        /* \"#utility.yul\":17533:17547   */\n      add\n        /* \"#utility.yul\":17526:17574   */\n      mstore\n        /* \"#utility.yul\":17409:17581   */\n      pop\n      jump\t// out\n        /* \"#utility.yul\":17587:17953   */\n    tag_202:\n        /* \"#utility.yul\":17729:17732   */\n      0x00\n        /* \"#utility.yul\":17750:17817   */\n      tag_398\n        /* \"#utility.yul\":17814:17816   */\n      0x16\n        /* \"#utility.yul\":17809:17812   */\n      dup4\n        /* \"#utility.yul\":17750:17817   */\n      tag_170\n      jump\t// in\n    tag_398:\n        /* \"#utility.yul\":17743:17817   */\n      swap2\n      pop\n        /* \"#utility.yul\":17826:17919   */\n      tag_399\n        /* \"#utility.yul\":17915:17918   */\n      dup3\n        /* \"#utility.yul\":17826:17919   */\n      tag_201\n      jump\t// in\n    tag_399:\n        /* \"#utility.yul\":17944:17946   */\n      0x20\n        /* \"#utility.yul\":17939:17942   */\n      dup3\n        /* \"#utility.yul\":17935:17947   */\n      add\n        /* \"#utility.yul\":17928:17947   */\n      swap1\n      pop\n        /* \"#utility.yul\":17587:17953   */\n      swap2\n      swap1\n      pop\n      jump\t// out\n        /* \"#utility.yul\":17959:18378   */\n    tag_112:\n        /* \"#utility.yul\":18125:18129   */\n      0x00\n        /* \"#utility.yul\":18163:18165   */\n      0x20\n        /* \"#utility.yul\":18152:18161   */\n      dup3\n        /* \"#utility.yul\":18148:18166   */\n      add\n        /* \"#utility.yul\":18140:18166   */\n      swap1\n      pop\n        /* \"#utility.yul\":18212:18221   */\n      dup2\n        /* \"#utility.yul\":18206:18210   */\n      dup2\n        /* \"#utility.yul\":18202:18222   */\n      sub\n        /* \"#utility.yul\":18198:18199   */\n      0x00\n        /* \"#utility.yul\":18187:18196   */\n      dup4\n        /* \"#utility.yul\":18183:18200   */\n      add\n        /* \"#utility.yul\":18176:18223   */\n      mstore\n        /* \"#utility.yul\":18240:18371   */\n      tag_401\n        /* \"#utility.yul\":18366:18370   */\n      dup2\n        /* \"#utility.yul\":18240:18371   */\n      tag_202\n      jump\t// in\n    tag_401:\n        /* \"#utility.yul\":18232:18371   */\n      swap1\n      pop\n        /* \"#utility.yul\":17959:18378   */\n      swap2\n      swap1\n      pop\n      jump\t// out\n        /* \"#utility.yul\":18384:18564   */\n    tag_203:\n        /* \"#utility.yul\":18524:18556   */\n      0x546865207265717565737420686173206265656e20636f6d706c657465640000\n        /* \"#utility.yul\":18520:18521   */\n      0x00\n        /* \"#utility.yul\":18512:18518   */\n      dup3\n        /* \"#utility.yul\":18508:18522   */\n      add\n        /* \"#utility.yul\":18501:18557   */\n      mstore\n        /* \"#utility.yul\":18384:18564   */\n      pop\n      jump\t// out\n        /* \"#utility.yul\":18570:18936   */\n    tag_204:\n        /* \"#utility.yul\":18712:18715   */\n      0x00\n        /* \"#utility.yul\":18733:18800   */\n      tag_404\n        /* \"#utility.yul\":18797:18799   */\n      0x1e\n        /* \"#utility.yul\":18792:18795   */\n      dup4\n        /* \"#utility.yul\":18733:18800   */\n      tag_170\n      jump\t// in\n    tag_404:\n        /* \"#utility.yul\":18726:18800   */\n      swap2\n      pop\n        /* \"#utility.yul\":18809:18902   */\n      tag_405\n        /* \"#utility.yul\":18898:18901   */\n      dup3\n        /* \"#utility.yul\":18809:18902   */\n      tag_203\n      jump\t// in\n    tag_405:\n        /* \"#utility.yul\":18927:18929   */\n      0x20\n        /* \"#utility.yul\":18922:18925   */\n      dup3\n        /* \"#utility.yul\":18918:18930   */\n      add\n        /* \"#utility.yul\":18911:18930   */\n      swap1\n      pop\n        /* \"#utility.yul\":18570:18936   */\n      swap2\n      swap1\n      pop\n      jump\t// out\n        /* \"#utility.yul\":18942:19361   */\n    tag_121:\n        /* \"#utility.yul\":19108:19112   */\n      0x00\n        /* \"#utility.yul\":19146:19148   */\n      0x20\n        /* \"#utility.yul\":19135:19144   */\n      dup3\n        /* \"#utility.yul\":19131:19149   */\n      add\n        /* \"#utility.yul\":19123:19149   */\n      swap1\n      pop\n        /* \"#utility.yul\":19195:19204   */\n      dup2\n        /* \"#utility.yul\":19189:19193   */\n      dup2\n        /* \"#utility.yul\":19185:19205   */\n      sub\n        /* \"#utility.yul\":19181:19182   */\n      0x00\n        /* \"#utility.yul\":19170:19179   */\n      dup4\n        /* \"#utility.yul\":19166:19183   */\n      add\n        /* \"#utility.yul\":19159:19206   */\n      mstore\n        /* \"#utility.yul\":19223:19354   */\n      tag_407\n        /* \"#utility.yul\":19349:19353   */\n      dup2\n        /* \"#utility.yul\":19223:19354   */\n      tag_204\n      jump\t// in\n    tag_407:\n        /* \"#utility.yul\":19215:19354   */\n      swap1\n      pop\n        /* \"#utility.yul\":18942:19361   */\n      swap2\n      swap1\n      pop\n      jump\t// out\n        /* \"#utility.yul\":19367:19547   */\n    tag_205:\n        /* \"#utility.yul\":19415:19492   */\n      0x4e487b7100000000000000000000000000000000000000000000000000000000\n        /* \"#utility.yul\":19412:19413   */\n      0x00\n        /* \"#utility.yul\":19405:19493   */\n      mstore\n        /* \"#utility.yul\":19512:19516   */\n      0x12\n        /* \"#utility.yul\":19509:19510   */\n      0x04\n        /* \"#utility.yul\":19502:19517   */\n      mstore\n        /* \"#utility.yul\":19536:19540   */\n      0x24\n        /* \"#utility.yul\":19533:19534   */\n      0x00\n        /* \"#utility.yul\":19526:19541   */\n      revert\n        /* \"#utility.yul\":19553:19738   */\n    tag_123:\n        /* \"#utility.yul\":19593:19594   */\n      0x00\n        /* \"#utility.yul\":19610:19630   */\n      tag_410\n        /* \"#utility.yul\":19628:19629   */\n      dup3\n        /* \"#utility.yul\":19610:19630   */\n      tag_151\n      jump\t// in\n    tag_410:\n        /* \"#utility.yul\":19605:19630   */\n      swap2\n      pop\n        /* \"#utility.yul\":19644:19664   */\n      tag_411\n        /* \"#utility.yul\":19662:19663   */\n      dup4\n        /* \"#utility.yul\":19644:19664   */\n      tag_151\n      jump\t// in\n    tag_411:\n        /* \"#utility.yul\":19639:19664   */\n      swap3\n      pop\n        /* \"#utility.yul\":19683:19684   */\n      dup3\n        /* \"#utility.yul\":19673:19708   */\n      tag_412\n      jumpi\n        /* \"#utility.yul\":19688:19706   */\n      tag_413\n      tag_205\n      jump\t// in\n    tag_413:\n        /* \"#utility.yul\":19673:19708   */\n    tag_412:\n        /* \"#utility.yul\":19730:19731   */\n      dup3\n        /* \"#utility.yul\":19727:19728   */\n      dup3\n        /* \"#utility.yul\":19723:19732   */\n      div\n        /* \"#utility.yul\":19718:19732   */\n      swap1\n      pop\n        /* \"#utility.yul\":19553:19738   */\n      swap3\n      swap2\n      pop\n      pop\n      jump\t// out\n        /* \"#utility.yul\":19744:19919   */\n    tag_206:\n        /* \"#utility.yul\":19884:19911   */\n      0x4d616a6f7269747920646f6573206e6f7420737570706f727400000000000000\n        /* \"#utility.yul\":19880:19881   */\n      0x00\n        /* \"#utility.yul\":19872:19878   */\n      dup3\n        /* \"#utility.yul\":19868:19882   */\n      add\n        /* \"#utility.yul\":19861:19912   */\n      mstore\n        /* \"#utility.yul\":19744:19919   */\n      pop\n      jump\t// out\n        /* \"#utility.yul\":19925:20291   */\n    tag_207:\n        /* \"#utility.yul\":20067:20070   */\n      0x00\n        /* \"#utility.yul\":20088:20155   */\n      tag_416\n        /* \"#utility.yul\":20152:20154   */\n      0x19\n        /* \"#utility.yul\":20147:20150   */\n      dup4\n        /* \"#utility.yul\":20088:20155   */\n      tag_170\n      jump\t// in\n    tag_416:\n        /* \"#utility.yul\":20081:20155   */\n      swap2\n      pop\n        /* \"#utility.yul\":20164:20257   */\n      tag_417\n        /* \"#utility.yul\":20253:20256   */\n      dup3\n        /* \"#utility.yul\":20164:20257   */\n      tag_206\n      jump\t// in\n    tag_417:\n        /* \"#utility.yul\":20282:20284   */\n      0x20\n        /* \"#utility.yul\":20277:20280   */\n      dup3\n        /* \"#utility.yul\":20273:20285   */\n      add\n        /* \"#utility.yul\":20266:20285   */\n      swap1\n      pop\n        /* \"#utility.yul\":19925:20291   */\n      swap2\n      swap1\n      pop\n      jump\t// out\n        /* \"#utility.yul\":20297:20716   */\n    tag_126:\n        /* \"#utility.yul\":20463:20467   */\n      0x00\n        /* \"#utility.yul\":20501:20503   */\n      0x20\n        /* \"#utility.yul\":20490:20499   */\n      dup3\n        /* \"#utility.yul\":20486:20504   */\n      add\n        /* \"#utility.yul\":20478:20504   */\n      swap1\n      pop\n        /* \"#utility.yul\":20550:20559   */\n      dup2\n        /* \"#utility.yul\":20544:20548   */\n      dup2\n        /* \"#utility.yul\":20540:20560   */\n      sub\n        /* \"#utility.yul\":20536:20537   */\n      0x00\n        /* \"#utility.yul\":20525:20534   */\n      dup4\n        /* \"#utility.yul\":20521:20538   */\n      add\n        /* \"#utility.yul\":20514:20561   */\n      mstore\n        /* \"#utility.yul\":20578:20709   */\n      tag_419\n        /* \"#utility.yul\":20704:20708   */\n      dup2\n        /* \"#utility.yul\":20578:20709   */\n      tag_207\n      jump\t// in\n    tag_419:\n        /* \"#utility.yul\":20570:20709   */\n      swap1\n      pop\n        /* \"#utility.yul\":20297:20716   */\n      swap2\n      swap1\n      pop\n      jump\t// out\n        /* \"#utility.yul\":20722:20903   */\n    tag_208:\n        /* \"#utility.yul\":20862:20895   */\n      0x596f7520617265206e6f7420656c696769626c6520666f7220726566756e6400\n        /* \"#utility.yul\":20858:20859   */\n      0x00\n        /* \"#utility.yul\":20850:20856   */\n      dup3\n        /* \"#utility.yul\":20846:20860   */\n      add\n        /* \"#utility.yul\":20839:20896   */\n      mstore\n        /* \"#utility.yul\":20722:20903   */\n      pop\n      jump\t// out\n        /* \"#utility.yul\":20909:21275   */\n    tag_209:\n        /* \"#utility.yul\":21051:21054   */\n      0x00\n        /* \"#utility.yul\":21072:21139   */\n      tag_422\n        /* \"#utility.yul\":21136:21138   */\n      0x1f\n        /* \"#utility.yul\":21131:21134   */\n      dup4\n        /* \"#utility.yul\":21072:21139   */\n      tag_170\n      jump\t// in\n    tag_422:\n        /* \"#utility.yul\":21065:21139   */\n      swap2\n      pop\n        /* \"#utility.yul\":21148:21241   */\n      tag_423\n        /* \"#utility.yul\":21237:21240   */\n      dup3\n        /* \"#utility.yul\":21148:21241   */\n      tag_208\n      jump\t// in\n    tag_423:\n        /* \"#utility.yul\":21266:21268   */\n      0x20\n        /* \"#utility.yul\":21261:21264   */\n      dup3\n        /* \"#utility.yul\":21257:21269   */\n      add\n        /* \"#utility.yul\":21250:21269   */\n      swap1\n      pop\n        /* \"#utility.yul\":20909:21275   */\n      swap2\n      swap1\n      pop\n      jump\t// out\n        /* \"#utility.yul\":21281:21700   */\n    tag_133:\n        /* \"#utility.yul\":21447:21451   */\n      0x00\n        /* \"#utility.yul\":21485:21487   */\n      0x20\n        /* \"#utility.yul\":21474:21483   */\n      dup3\n        /* \"#utility.yul\":21470:21488   */\n      add\n        /* \"#utility.yul\":21462:21488   */\n      swap1\n      pop\n        /* \"#utility.yul\":21534:21543   */\n      dup2\n        /* \"#utility.yul\":21528:21532   */\n      dup2\n        /* \"#utility.yul\":21524:21544   */\n      sub\n        /* \"#utility.yul\":21520:21521   */\n      0x00\n        /* \"#utility.yul\":21509:21518   */\n      dup4\n        /* \"#utility.yul\":21505:21522   */\n      add\n        /* \"#utility.yul\":21498:21545   */\n      mstore\n        /* \"#utility.yul\":21562:21693   */\n      tag_425\n        /* \"#utility.yul\":21688:21692   */\n      dup2\n        /* \"#utility.yul\":21562:21693   */\n      tag_209\n      jump\t// in\n    tag_425:\n        /* \"#utility.yul\":21554:21693   */\n      swap1\n      pop\n        /* \"#utility.yul\":21281:21700   */\n      swap2\n      swap1\n      pop\n      jump\t// out\n\n    auxdata: 0xa2646970667358221220d881d1e7b99afa92e7b6b05086257e3d452a3cf4ce0bb0905043b04c835061e364736f6c634300081a0033\n}\n",
				"bytecode": {
					"linkReferences": {},
					"object": "608060405234801561000f575f80fd5b506040516118f53803806118f5833981810160405281019061003191906100d0565b816004819055508042610044919061013b565b60038190555060646002819055503360015f6101000a81548173ffffffffffffffffffffffffffffffffffffffff021916908373ffffffffffffffffffffffffffffffffffffffff160217905550505061016e565b5f80fd5b5f819050919050565b6100af8161009d565b81146100b9575f80fd5b50565b5f815190506100ca816100a6565b92915050565b5f80604083850312156100e6576100e5610099565b5b5f6100f3858286016100bc565b9250506020610104858286016100bc565b9150509250929050565b7f4e487b71000000000000000000000000000000000000000000000000000000005f52601160045260245ffd5b5f6101458261009d565b91506101508361009d565b92508282019050808211156101685761016761010e565b5b92915050565b61177a8061017b5f395ff3fe6080604052600436106100e7575f3560e01c80635114cb5211610089578063937e09b111610058578063937e09b1146102a75780639fb42b1f146102d1578063c59ee1dc146102fb578063d4b8399214610325576100e7565b80635114cb52146101ff578063590e1ae3146102275780636f9fb98a1461023d57806381d12c5814610267576100e7565b80633eb7647b116100c55780633eb7647b1461015b578063481c6a75146101835780634cb6f4a5146101ad5780634e260f6f146101d5576100e7565b806306e99fef146100eb5780631f6d4942146100f557806329dcb0cf14610131575b5f80fd5b6100f361034f565b005b348015610100575f80fd5b5061011b60048036038101906101169190610c74565b61049f565b6040516101289190610cb7565b60405180910390f35b34801561013c575f80fd5b506101456104b3565b6040516101529190610cb7565b60405180910390f35b348015610166575f80fd5b50610181600480360381019061017c9190610e71565b6104b9565b005b34801561018e575f80fd5b506101976105fb565b6040516101a49190610eec565b60405180910390f35b3480156101b8575f80fd5b506101d360048036038101906101ce9190610f05565b610620565b005b3480156101e0575f80fd5b506101e96107b7565b6040516101f69190610cb7565b60405180910390f35b34801561020a575f80fd5b5061022560048036038101906102209190610f05565b6107bd565b005b348015610232575f80fd5b5061023b6109a5565b005b348015610248575f80fd5b50610251610b07565b60405161025e9190610cb7565b60405180910390f35b348015610272575f80fd5b5061028d60048036038101906102889190610f05565b610b0e565b60405161029e959493929190610fb9565b60405180910390f35b3480156102b2575f80fd5b506102bb610bf1565b6040516102c89190610cb7565b60405180910390f35b3480156102dc575f80fd5b506102e5610bf7565b6040516102f29190610cb7565b60405180910390f35b348015610306575f80fd5b5061030f610bfd565b60405161031c9190610cb7565b60405180910390f35b348015610330575f80fd5b50610339610c03565b6040516103469190610cb7565b60405180910390f35b6003544210610393576040517f08c379a000000000000000000000000000000000000000000000000000000000815260040161038a9061105b565b60405180910390fd5b6002543410156103d8576040517f08c379a00000000000000000000000000000000000000000000000000000000081526004016103cf906110c3565b60405180910390fd5b5f805f3373ffffffffffffffffffffffffffffffffffffffff1673ffffffffffffffffffffffffffffffffffffffff1681526020019081526020015f2054036104335760065f81548092919061042d9061110e565b91905055505b345f803373ffffffffffffffffffffffffffffffffffffffff1673ffffffffffffffffffffffffffffffffffffffff1681526020019081526020015f205f82825461047e9190611155565b925050819055503460055f8282546104969190611155565b92505081905550565b5f602052805f5260405f205f915090505481565b60035481565b60015f9054906101000a900473ffffffffffffffffffffffffffffffffffffffff1673ffffffffffffffffffffffffffffffffffffffff163373ffffffffffffffffffffffffffffffffffffffff1614610548576040517f08c379a000000000000000000000000000000000000000000000000000000000815260040161053f906111f8565b60405180910390fd5b5f60075f60085481526020019081526020015f20905060085f8154809291906105709061110e565b919050555083815f0190816105859190611410565b5082816001015f6101000a81548173ffffffffffffffffffffffffffffffffffffffff021916908373ffffffffffffffffffffffffffffffffffffffff1602179055508181600201819055505f816003015f6101000a81548160ff0219169083151502179055505f816004018190555050505050565b60015f9054906101000a900473ffffffffffffffffffffffffffffffffffffffff1681565b5f805f3373ffffffffffffffffffffffffffffffffffffffff1673ffffffffffffffffffffffffffffffffffffffff1681526020019081526020015f20541161069e576040517f08c379a000000000000000000000000000000000000000000000000000000000815260040161069590611529565b60405180910390fd5b5f60075f8381526020019081526020015f2090505f1515816005015f3373ffffffffffffffffffffffffffffffffffffffff1673ffffffffffffffffffffffffffffffffffffffff1681526020019081526020015f205f9054906101000a900460ff16151514610743576040517f08c379a000000000000000000000000000000000000000000000000000000000815260040161073a90611591565b60405180910390fd5b6001816005015f3373ffffffffffffffffffffffffffffffffffffffff1673ffffffffffffffffffffffffffffffffffffffff1681526020019081526020015f205f6101000a81548160ff021916908315150217905550806004015f8154809291906107ae9061110e565b91905055505050565b60065481565b60015f9054906101000a900473ffffffffffffffffffffffffffffffffffffffff1673ffffffffffffffffffffffffffffffffffffffff163373ffffffffffffffffffffffffffffffffffffffff161461084c576040517f08c379a0000000000000000000000000000000000000000000000000000000008152600401610843906111f8565b60405180910390fd5b600454600554101561085c575f80fd5b5f60075f8381526020019081526020015f2090505f1515816003015f9054906101000a900460ff161515146108c6576040517f08c379a00000000000000000000000000000000000000000000000000000000081526004016108bd906115f9565b60405180910390fd5b60026006546108d59190611644565b81600401541161091a576040517f08c379a0000000000000000000000000000000000000000000000000000000008152600401610911906116be565b60405180910390fd5b806001015f9054906101000a900473ffffffffffffffffffffffffffffffffffffffff1673ffffffffffffffffffffffffffffffffffffffff166108fc826002015490811502906040515f60405180830381858888f19350505050158015610984573d5f803e3d5ffd5b506001816003015f6101000a81548160ff0219169083151502179055505050565b600354421180156109b95750600454600554105b6109f8576040517f08c379a00000000000000000000000000000000000000000000000000000000081526004016109ef90611726565b60405180910390fd5b5f805f3373ffffffffffffffffffffffffffffffffffffffff1673ffffffffffffffffffffffffffffffffffffffff1681526020019081526020015f205411610a3f575f80fd5b5f3390508073ffffffffffffffffffffffffffffffffffffffff166108fc5f803373ffffffffffffffffffffffffffffffffffffffff1673ffffffffffffffffffffffffffffffffffffffff1681526020019081526020015f205490811502906040515f60405180830381858888f19350505050158015610ac2573d5f803e3d5ffd5b505f805f3373ffffffffffffffffffffffffffffffffffffffff1673ffffffffffffffffffffffffffffffffffffffff1681526020019081526020015f208190555050565b5f47905090565b6007602052805f5260405f205f91509050805f018054610b2d90611243565b80601f0160208091040260200160405190810160405280929190818152602001828054610b5990611243565b8015610ba45780601f10610b7b57610100808354040283529160200191610ba4565b820191905f5260205f20905b815481529060010190602001808311610b8757829003601f168201915b505050505090806001015f9054906101000a900473ffffffffffffffffffffffffffffffffffffffff1690806002015490806003015f9054906101000a900460ff16908060040154905085565b60025481565b60085481565b60055481565b60045481565b5f604051905090565b5f80fd5b5f80fd5b5f73ffffffffffffffffffffffffffffffffffffffff82169050919050565b5f610c4382610c1a565b9050919050565b610c5381610c39565b8114610c5d575f80fd5b50565b5f81359050610c6e81610c4a565b92915050565b5f60208284031215610c8957610c88610c12565b5b5f610c9684828501610c60565b91505092915050565b5f819050919050565b610cb181610c9f565b82525050565b5f602082019050610cca5f830184610ca8565b92915050565b5f80fd5b5f80fd5b5f601f19601f8301169050919050565b7f4e487b71000000000000000000000000000000000000000000000000000000005f52604160045260245ffd5b610d1e82610cd8565b810181811067ffffffffffffffff82111715610d3d57610d3c610ce8565b5b80604052505050565b5f610d4f610c09565b9050610d5b8282610d15565b919050565b5f67ffffffffffffffff821115610d7a57610d79610ce8565b5b610d8382610cd8565b9050602081019050919050565b828183375f83830152505050565b5f610db0610dab84610d60565b610d46565b905082815260208101848484011115610dcc57610dcb610cd4565b5b610dd7848285610d90565b509392505050565b5f82601f830112610df357610df2610cd0565b5b8135610e03848260208601610d9e565b91505092915050565b5f610e1682610c1a565b9050919050565b610e2681610e0c565b8114610e30575f80fd5b50565b5f81359050610e4181610e1d565b92915050565b610e5081610c9f565b8114610e5a575f80fd5b50565b5f81359050610e6b81610e47565b92915050565b5f805f60608486031215610e8857610e87610c12565b5b5f84013567ffffffffffffffff811115610ea557610ea4610c16565b5b610eb186828701610ddf565b9350506020610ec286828701610e33565b9250506040610ed386828701610e5d565b9150509250925092565b610ee681610c39565b82525050565b5f602082019050610eff5f830184610edd565b92915050565b5f60208284031215610f1a57610f19610c12565b5b5f610f2784828501610e5d565b91505092915050565b5f81519050919050565b5f82825260208201905092915050565b8281835e5f83830152505050565b5f610f6282610f30565b610f6c8185610f3a565b9350610f7c818560208601610f4a565b610f8581610cd8565b840191505092915050565b610f9981610e0c565b82525050565b5f8115159050919050565b610fb381610f9f565b82525050565b5f60a0820190508181035f830152610fd18188610f58565b9050610fe06020830187610f90565b610fed6040830186610ca8565b610ffa6060830185610faa565b6110076080830184610ca8565b9695505050505050565b7f446561646c696e652068617320706173736564000000000000000000000000005f82015250565b5f611045601383610f3a565b915061105082611011565b602082019050919050565b5f6020820190508181035f83015261107281611039565b9050919050565b7f4d696e696d756d20436f6e747269627574696f6e206973206e6f74206d6574005f82015250565b5f6110ad601f83610f3a565b91506110b882611079565b602082019050919050565b5f6020820190508181035f8301526110da816110a1565b9050919050565b7f4e487b71000000000000000000000000000000000000000000000000000000005f52601160045260245ffd5b5f61111882610c9f565b91507fffffffffffffffffffffffffffffffffffffffffffffffffffffffffffffffff820361114a576111496110e1565b5b600182019050919050565b5f61115f82610c9f565b915061116a83610c9f565b9250828201905080821115611182576111816110e1565b5b92915050565b7f4f6e6c79206d616e616765722063616e2063616c6c6c20746869732066756e635f8201527f74696f6e00000000000000000000000000000000000000000000000000000000602082015250565b5f6111e2602483610f3a565b91506111ed82611188565b604082019050919050565b5f6020820190508181035f83015261120f816111d6565b9050919050565b7f4e487b71000000000000000000000000000000000000000000000000000000005f52602260045260245ffd5b5f600282049050600182168061125a57607f821691505b60208210810361126d5761126c611216565b5b50919050565b5f819050815f5260205f209050919050565b5f6020601f8301049050919050565b5f82821b905092915050565b5f600883026112cf7fffffffffffffffffffffffffffffffffffffffffffffffffffffffffffffffff82611294565b6112d98683611294565b95508019841693508086168417925050509392505050565b5f819050919050565b5f61131461130f61130a84610c9f565b6112f1565b610c9f565b9050919050565b5f819050919050565b61132d836112fa565b6113416113398261131b565b8484546112a0565b825550505050565b5f90565b611355611349565b611360818484611324565b505050565b5b81811015611383576113785f8261134d565b600181019050611366565b5050565b601f8211156113c85761139981611273565b6113a284611285565b810160208510156113b1578190505b6113c56113bd85611285565b830182611365565b50505b505050565b5f82821c905092915050565b5f6113e85f19846008026113cd565b1980831691505092915050565b5f61140083836113d9565b9150826002028217905092915050565b61141982610f30565b67ffffffffffffffff81111561143257611431610ce8565b5b61143c8254611243565b611447828285611387565b5f60209050601f831160018114611478575f8415611466578287015190505b61147085826113f5565b8655506114d7565b601f19841661148686611273565b5f5b828110156114ad57848901518255600182019150602085019450602081019050611488565b868310156114ca57848901516114c6601f8916826113d9565b8355505b6001600288020188555050505b505050505050565b7f594f75206d75737420626520636f6e7472696275746f720000000000000000005f82015250565b5f611513601783610f3a565b915061151e826114df565b602082019050919050565b5f6020820190508181035f83015261154081611507565b9050919050565b7f596f75206861766520616c726561647920766f746564000000000000000000005f82015250565b5f61157b601683610f3a565b915061158682611547565b602082019050919050565b5f6020820190508181035f8301526115a88161156f565b9050919050565b7f546865207265717565737420686173206265656e20636f6d706c6574656400005f82015250565b5f6115e3601e83610f3a565b91506115ee826115af565b602082019050919050565b5f6020820190508181035f830152611610816115d7565b9050919050565b7f4e487b71000000000000000000000000000000000000000000000000000000005f52601260045260245ffd5b5f61164e82610c9f565b915061165983610c9f565b92508261166957611668611617565b5b828204905092915050565b7f4d616a6f7269747920646f6573206e6f7420737570706f7274000000000000005f82015250565b5f6116a8601983610f3a565b91506116b382611674565b602082019050919050565b5f6020820190508181035f8301526116d58161169c565b9050919050565b7f596f7520617265206e6f7420656c696769626c6520666f7220726566756e64005f82015250565b5f611710601f83610f3a565b915061171b826116dc565b602082019050919050565b5f6020820190508181035f83015261173d81611704565b905091905056fea2646970667358221220d881d1e7b99afa92e7b6b05086257e3d452a3cf4ce0bb0905043b04c835061e364736f6c634300081a0033",
					"opcodes": "PUSH1 0x80 PUSH1 0x40 MSTORE CALLVALUE DUP1 ISZERO PUSH2 0xF JUMPI PUSH0 DUP1 REVERT JUMPDEST POP PUSH1 0x40 MLOAD PUSH2 0x18F5 CODESIZE SUB DUP1 PUSH2 0x18F5 DUP4 CODECOPY DUP2 DUP2 ADD PUSH1 0x40 MSTORE DUP2 ADD SWAP1 PUSH2 0x31 SWAP2 SWAP1 PUSH2 0xD0 JUMP JUMPDEST DUP2 PUSH1 0x4 DUP2 SWAP1 SSTORE POP DUP1 TIMESTAMP PUSH2 0x44 SWAP2 SWAP1 PUSH2 0x13B JUMP JUMPDEST PUSH1 0x3 DUP2 SWAP1 SSTORE POP PUSH1 0x64 PUSH1 0x2 DUP2 SWAP1 SSTORE POP CALLER PUSH1 0x1 PUSH0 PUSH2 0x100 EXP DUP2 SLOAD DUP2 PUSH20 0xFFFFFFFFFFFFFFFFFFFFFFFFFFFFFFFFFFFFFFFF MUL NOT AND SWAP1 DUP4 PUSH20 0xFFFFFFFFFFFFFFFFFFFFFFFFFFFFFFFFFFFFFFFF AND MUL OR SWAP1 SSTORE POP POP POP PUSH2 0x16E JUMP JUMPDEST PUSH0 DUP1 REVERT JUMPDEST PUSH0 DUP2 SWAP1 POP SWAP2 SWAP1 POP JUMP JUMPDEST PUSH2 0xAF DUP2 PUSH2 0x9D JUMP JUMPDEST DUP2 EQ PUSH2 0xB9 JUMPI PUSH0 DUP1 REVERT JUMPDEST POP JUMP JUMPDEST PUSH0 DUP2 MLOAD SWAP1 POP PUSH2 0xCA DUP2 PUSH2 0xA6 JUMP JUMPDEST SWAP3 SWAP2 POP POP JUMP JUMPDEST PUSH0 DUP1 PUSH1 0x40 DUP4 DUP6 SUB SLT ISZERO PUSH2 0xE6 JUMPI PUSH2 0xE5 PUSH2 0x99 JUMP JUMPDEST JUMPDEST PUSH0 PUSH2 0xF3 DUP6 DUP3 DUP7 ADD PUSH2 0xBC JUMP JUMPDEST SWAP3 POP POP PUSH1 0x20 PUSH2 0x104 DUP6 DUP3 DUP7 ADD PUSH2 0xBC JUMP JUMPDEST SWAP2 POP POP SWAP3 POP SWAP3 SWAP1 POP JUMP JUMPDEST PUSH32 0x4E487B7100000000000000000000000000000000000000000000000000000000 PUSH0 MSTORE PUSH1 0x11 PUSH1 0x4 MSTORE PUSH1 0x24 PUSH0 REVERT JUMPDEST PUSH0 PUSH2 0x145 DUP3 PUSH2 0x9D JUMP JUMPDEST SWAP2 POP PUSH2 0x150 DUP4 PUSH2 0x9D JUMP JUMPDEST SWAP3 POP DUP3 DUP3 ADD SWAP1 POP DUP1 DUP3 GT ISZERO PUSH2 0x168 JUMPI PUSH2 0x167 PUSH2 0x10E JUMP JUMPDEST JUMPDEST SWAP3 SWAP2 POP POP JUMP JUMPDEST PUSH2 0x177A DUP1 PUSH2 0x17B PUSH0 CODECOPY PUSH0 RETURN INVALID PUSH1 0x80 PUSH1 0x40 MSTORE PUSH1 0x4 CALLDATASIZE LT PUSH2 0xE7 JUMPI PUSH0 CALLDATALOAD PUSH1 0xE0 SHR DUP1 PUSH4 0x5114CB52 GT PUSH2 0x89 JUMPI DUP1 PUSH4 0x937E09B1 GT PUSH2 0x58 JUMPI DUP1 PUSH4 0x937E09B1 EQ PUSH2 0x2A7 JUMPI DUP1 PUSH4 0x9FB42B1F EQ PUSH2 0x2D1 JUMPI DUP1 PUSH4 0xC59EE1DC EQ PUSH2 0x2FB JUMPI DUP1 PUSH4 0xD4B83992 EQ PUSH2 0x325 JUMPI PUSH2 0xE7 JUMP JUMPDEST DUP1 PUSH4 0x5114CB52 EQ PUSH2 0x1FF JUMPI DUP1 PUSH4 0x590E1AE3 EQ PUSH2 0x227 JUMPI DUP1 PUSH4 0x6F9FB98A EQ PUSH2 0x23D JUMPI DUP1 PUSH4 0x81D12C58 EQ PUSH2 0x267 JUMPI PUSH2 0xE7 JUMP JUMPDEST DUP1 PUSH4 0x3EB7647B GT PUSH2 0xC5 JUMPI DUP1 PUSH4 0x3EB7647B EQ PUSH2 0x15B JUMPI DUP1 PUSH4 0x481C6A75 EQ PUSH2 0x183 JUMPI DUP1 PUSH4 0x4CB6F4A5 EQ PUSH2 0x1AD JUMPI DUP1 PUSH4 0x4E260F6F EQ PUSH2 0x1D5 JUMPI PUSH2 0xE7 JUMP JUMPDEST DUP1 PUSH4 0x6E99FEF EQ PUSH2 0xEB JUMPI DUP1 PUSH4 0x1F6D4942 EQ PUSH2 0xF5 JUMPI DUP1 PUSH4 0x29DCB0CF EQ PUSH2 0x131 JUMPI JUMPDEST PUSH0 DUP1 REVERT JUMPDEST PUSH2 0xF3 PUSH2 0x34F JUMP JUMPDEST STOP JUMPDEST CALLVALUE DUP1 ISZERO PUSH2 0x100 JUMPI PUSH0 DUP1 REVERT JUMPDEST POP PUSH2 0x11B PUSH1 0x4 DUP1 CALLDATASIZE SUB DUP2 ADD SWAP1 PUSH2 0x116 SWAP2 SWAP1 PUSH2 0xC74 JUMP JUMPDEST PUSH2 0x49F JUMP JUMPDEST PUSH1 0x40 MLOAD PUSH2 0x128 SWAP2 SWAP1 PUSH2 0xCB7 JUMP JUMPDEST PUSH1 0x40 MLOAD DUP1 SWAP2 SUB SWAP1 RETURN JUMPDEST CALLVALUE DUP1 ISZERO PUSH2 0x13C JUMPI PUSH0 DUP1 REVERT JUMPDEST POP PUSH2 0x145 PUSH2 0x4B3 JUMP JUMPDEST PUSH1 0x40 MLOAD PUSH2 0x152 SWAP2 SWAP1 PUSH2 0xCB7 JUMP JUMPDEST PUSH1 0x40 MLOAD DUP1 SWAP2 SUB SWAP1 RETURN JUMPDEST CALLVALUE DUP1 ISZERO PUSH2 0x166 JUMPI PUSH0 DUP1 REVERT JUMPDEST POP PUSH2 0x181 PUSH1 0x4 DUP1 CALLDATASIZE SUB DUP2 ADD SWAP1 PUSH2 0x17C SWAP2 SWAP1 PUSH2 0xE71 JUMP JUMPDEST PUSH2 0x4B9 JUMP JUMPDEST STOP JUMPDEST CALLVALUE DUP1 ISZERO PUSH2 0x18E JUMPI PUSH0 DUP1 REVERT JUMPDEST POP PUSH2 0x197 PUSH2 0x5FB JUMP JUMPDEST PUSH1 0x40 MLOAD PUSH2 0x1A4 SWAP2 SWAP1 PUSH2 0xEEC JUMP JUMPDEST PUSH1 0x40 MLOAD DUP1 SWAP2 SUB SWAP1 RETURN JUMPDEST CALLVALUE DUP1 ISZERO PUSH2 0x1B8 JUMPI PUSH0 DUP1 REVERT JUMPDEST POP PUSH2 0x1D3 PUSH1 0x4 DUP1 CALLDATASIZE SUB DUP2 ADD SWAP1 PUSH2 0x1CE SWAP2 SWAP1 PUSH2 0xF05 JUMP JUMPDEST PUSH2 0x620 JUMP JUMPDEST STOP JUMPDEST CALLVALUE DUP1 ISZERO PUSH2 0x1E0 JUMPI PUSH0 DUP1 REVERT JUMPDEST POP PUSH2 0x1E9 PUSH2 0x7B7 JUMP JUMPDEST PUSH1 0x40 MLOAD PUSH2 0x1F6 SWAP2 SWAP1 PUSH2 0xCB7 JUMP JUMPDEST PUSH1 0x40 MLOAD DUP1 SWAP2 SUB SWAP1 RETURN JUMPDEST CALLVALUE DUP1 ISZERO PUSH2 0x20A JUMPI PUSH0 DUP1 REVERT JUMPDEST POP PUSH2 0x225 PUSH1 0x4 DUP1 CALLDATASIZE SUB DUP2 ADD SWAP1 PUSH2 0x220 SWAP2 SWAP1 PUSH2 0xF05 JUMP JUMPDEST PUSH2 0x7BD JUMP JUMPDEST STOP JUMPDEST CALLVALUE DUP1 ISZERO PUSH2 0x232 JUMPI PUSH0 DUP1 REVERT JUMPDEST POP PUSH2 0x23B PUSH2 0x9A5 JUMP JUMPDEST STOP JUMPDEST CALLVALUE DUP1 ISZERO PUSH2 0x248 JUMPI PUSH0 DUP1 REVERT JUMPDEST POP PUSH2 0x251 PUSH2 0xB07 JUMP JUMPDEST PUSH1 0x40 MLOAD PUSH2 0x25E SWAP2 SWAP1 PUSH2 0xCB7 JUMP JUMPDEST PUSH1 0x40 MLOAD DUP1 SWAP2 SUB SWAP1 RETURN JUMPDEST CALLVALUE DUP1 ISZERO PUSH2 0x272 JUMPI PUSH0 DUP1 REVERT JUMPDEST POP PUSH2 0x28D PUSH1 0x4 DUP1 CALLDATASIZE SUB DUP2 ADD SWAP1 PUSH2 0x288 SWAP2 SWAP1 PUSH2 0xF05 JUMP JUMPDEST PUSH2 0xB0E JUMP JUMPDEST PUSH1 0x40 MLOAD PUSH2 0x29E SWAP6 SWAP5 SWAP4 SWAP3 SWAP2 SWAP1 PUSH2 0xFB9 JUMP JUMPDEST PUSH1 0x40 MLOAD DUP1 SWAP2 SUB SWAP1 RETURN JUMPDEST CALLVALUE DUP1 ISZERO PUSH2 0x2B2 JUMPI PUSH0 DUP1 REVERT JUMPDEST POP PUSH2 0x2BB PUSH2 0xBF1 JUMP JUMPDEST PUSH1 0x40 MLOAD PUSH2 0x2C8 SWAP2 SWAP1 PUSH2 0xCB7 JUMP JUMPDEST PUSH1 0x40 MLOAD DUP1 SWAP2 SUB SWAP1 RETURN JUMPDEST CALLVALUE DUP1 ISZERO PUSH2 0x2DC JUMPI PUSH0 DUP1 REVERT JUMPDEST POP PUSH2 0x2E5 PUSH2 0xBF7 JUMP JUMPDEST PUSH1 0x40 MLOAD PUSH2 0x2F2 SWAP2 SWAP1 PUSH2 0xCB7 JUMP JUMPDEST PUSH1 0x40 MLOAD DUP1 SWAP2 SUB SWAP1 RETURN JUMPDEST CALLVALUE DUP1 ISZERO PUSH2 0x306 JUMPI PUSH0 DUP1 REVERT JUMPDEST POP PUSH2 0x30F PUSH2 0xBFD JUMP JUMPDEST PUSH1 0x40 MLOAD PUSH2 0x31C SWAP2 SWAP1 PUSH2 0xCB7 JUMP JUMPDEST PUSH1 0x40 MLOAD DUP1 SWAP2 SUB SWAP1 RETURN JUMPDEST CALLVALUE DUP1 ISZERO PUSH2 0x330 JUMPI PUSH0 DUP1 REVERT JUMPDEST POP PUSH2 0x339 PUSH2 0xC03 JUMP JUMPDEST PUSH1 0x40 MLOAD PUSH2 0x346 SWAP2 SWAP1 PUSH2 0xCB7 JUMP JUMPDEST PUSH1 0x40 MLOAD DUP1 SWAP2 SUB SWAP1 RETURN JUMPDEST PUSH1 0x3 SLOAD TIMESTAMP LT PUSH2 0x393 JUMPI PUSH1 0x40 MLOAD PUSH32 0x8C379A000000000000000000000000000000000000000000000000000000000 DUP2 MSTORE PUSH1 0x4 ADD PUSH2 0x38A SWAP1 PUSH2 0x105B JUMP JUMPDEST PUSH1 0x40 MLOAD DUP1 SWAP2 SUB SWAP1 REVERT JUMPDEST PUSH1 0x2 SLOAD CALLVALUE LT ISZERO PUSH2 0x3D8 JUMPI PUSH1 0x40 MLOAD PUSH32 0x8C379A000000000000000000000000000000000000000000000000000000000 DUP2 MSTORE PUSH1 0x4 ADD PUSH2 0x3CF SWAP1 PUSH2 0x10C3 JUMP JUMPDEST PUSH1 0x40 MLOAD DUP1 SWAP2 SUB SWAP1 REVERT JUMPDEST PUSH0 DUP1 PUSH0 CALLER PUSH20 0xFFFFFFFFFFFFFFFFFFFFFFFFFFFFFFFFFFFFFFFF AND PUSH20 0xFFFFFFFFFFFFFFFFFFFFFFFFFFFFFFFFFFFFFFFF AND DUP2 MSTORE PUSH1 0x20 ADD SWAP1 DUP2 MSTORE PUSH1 0x20 ADD PUSH0 KECCAK256 SLOAD SUB PUSH2 0x433 JUMPI PUSH1 0x6 PUSH0 DUP2 SLOAD DUP1 SWAP3 SWAP2 SWAP1 PUSH2 0x42D SWAP1 PUSH2 0x110E JUMP JUMPDEST SWAP2 SWAP1 POP SSTORE POP JUMPDEST CALLVALUE PUSH0 DUP1 CALLER PUSH20 0xFFFFFFFFFFFFFFFFFFFFFFFFFFFFFFFFFFFFFFFF AND PUSH20 0xFFFFFFFFFFFFFFFFFFFFFFFFFFFFFFFFFFFFFFFF AND DUP2 MSTORE PUSH1 0x20 ADD SWAP1 DUP2 MSTORE PUSH1 0x20 ADD PUSH0 KECCAK256 PUSH0 DUP3 DUP3 SLOAD PUSH2 0x47E SWAP2 SWAP1 PUSH2 0x1155 JUMP JUMPDEST SWAP3 POP POP DUP2 SWAP1 SSTORE POP CALLVALUE PUSH1 0x5 PUSH0 DUP3 DUP3 SLOAD PUSH2 0x496 SWAP2 SWAP1 PUSH2 0x1155 JUMP JUMPDEST SWAP3 POP POP DUP2 SWAP1 SSTORE POP JUMP JUMPDEST PUSH0 PUSH1 0x20 MSTORE DUP1 PUSH0 MSTORE PUSH1 0x40 PUSH0 KECCAK256 PUSH0 SWAP2 POP SWAP1 POP SLOAD DUP2 JUMP JUMPDEST PUSH1 0x3 SLOAD DUP2 JUMP JUMPDEST PUSH1 0x1 PUSH0 SWAP1 SLOAD SWAP1 PUSH2 0x100 EXP SWAP1 DIV PUSH20 0xFFFFFFFFFFFFFFFFFFFFFFFFFFFFFFFFFFFFFFFF AND PUSH20 0xFFFFFFFFFFFFFFFFFFFFFFFFFFFFFFFFFFFFFFFF AND CALLER PUSH20 0xFFFFFFFFFFFFFFFFFFFFFFFFFFFFFFFFFFFFFFFF AND EQ PUSH2 0x548 JUMPI PUSH1 0x40 MLOAD PUSH32 0x8C379A000000000000000000000000000000000000000000000000000000000 DUP2 MSTORE PUSH1 0x4 ADD PUSH2 0x53F SWAP1 PUSH2 0x11F8 JUMP JUMPDEST PUSH1 0x40 MLOAD DUP1 SWAP2 SUB SWAP1 REVERT JUMPDEST PUSH0 PUSH1 0x7 PUSH0 PUSH1 0x8 SLOAD DUP2 MSTORE PUSH1 0x20 ADD SWAP1 DUP2 MSTORE PUSH1 0x20 ADD PUSH0 KECCAK256 SWAP1 POP PUSH1 0x8 PUSH0 DUP2 SLOAD DUP1 SWAP3 SWAP2 SWAP1 PUSH2 0x570 SWAP1 PUSH2 0x110E JUMP JUMPDEST SWAP2 SWAP1 POP SSTORE POP DUP4 DUP2 PUSH0 ADD SWAP1 DUP2 PUSH2 0x585 SWAP2 SWAP1 PUSH2 0x1410 JUMP JUMPDEST POP DUP3 DUP2 PUSH1 0x1 ADD PUSH0 PUSH2 0x100 EXP DUP2 SLOAD DUP2 PUSH20 0xFFFFFFFFFFFFFFFFFFFFFFFFFFFFFFFFFFFFFFFF MUL NOT AND SWAP1 DUP4 PUSH20 0xFFFFFFFFFFFFFFFFFFFFFFFFFFFFFFFFFFFFFFFF AND MUL OR SWAP1 SSTORE POP DUP2 DUP2 PUSH1 0x2 ADD DUP2 SWAP1 SSTORE POP PUSH0 DUP2 PUSH1 0x3 ADD PUSH0 PUSH2 0x100 EXP DUP2 SLOAD DUP2 PUSH1 0xFF MUL NOT AND SWAP1 DUP4 ISZERO ISZERO MUL OR SWAP1 SSTORE POP PUSH0 DUP2 PUSH1 0x4 ADD DUP2 SWAP1 SSTORE POP POP POP POP POP JUMP JUMPDEST PUSH1 0x1 PUSH0 SWAP1 SLOAD SWAP1 PUSH2 0x100 EXP SWAP1 DIV PUSH20 0xFFFFFFFFFFFFFFFFFFFFFFFFFFFFFFFFFFFFFFFF AND DUP2 JUMP JUMPDEST PUSH0 DUP1 PUSH0 CALLER PUSH20 0xFFFFFFFFFFFFFFFFFFFFFFFFFFFFFFFFFFFFFFFF AND PUSH20 0xFFFFFFFFFFFFFFFFFFFFFFFFFFFFFFFFFFFFFFFF AND DUP2 MSTORE PUSH1 0x20 ADD SWAP1 DUP2 MSTORE PUSH1 0x20 ADD PUSH0 KECCAK256 SLOAD GT PUSH2 0x69E JUMPI PUSH1 0x40 MLOAD PUSH32 0x8C379A000000000000000000000000000000000000000000000000000000000 DUP2 MSTORE PUSH1 0x4 ADD PUSH2 0x695 SWAP1 PUSH2 0x1529 JUMP JUMPDEST PUSH1 0x40 MLOAD DUP1 SWAP2 SUB SWAP1 REVERT JUMPDEST PUSH0 PUSH1 0x7 PUSH0 DUP4 DUP2 MSTORE PUSH1 0x20 ADD SWAP1 DUP2 MSTORE PUSH1 0x20 ADD PUSH0 KECCAK256 SWAP1 POP PUSH0 ISZERO ISZERO DUP2 PUSH1 0x5 ADD PUSH0 CALLER PUSH20 0xFFFFFFFFFFFFFFFFFFFFFFFFFFFFFFFFFFFFFFFF AND PUSH20 0xFFFFFFFFFFFFFFFFFFFFFFFFFFFFFFFFFFFFFFFF AND DUP2 MSTORE PUSH1 0x20 ADD SWAP1 DUP2 MSTORE PUSH1 0x20 ADD PUSH0 KECCAK256 PUSH0 SWAP1 SLOAD SWAP1 PUSH2 0x100 EXP SWAP1 DIV PUSH1 0xFF AND ISZERO ISZERO EQ PUSH2 0x743 JUMPI PUSH1 0x40 MLOAD PUSH32 0x8C379A000000000000000000000000000000000000000000000000000000000 DUP2 MSTORE PUSH1 0x4 ADD PUSH2 0x73A SWAP1 PUSH2 0x1591 JUMP JUMPDEST PUSH1 0x40 MLOAD DUP1 SWAP2 SUB SWAP1 REVERT JUMPDEST PUSH1 0x1 DUP2 PUSH1 0x5 ADD PUSH0 CALLER PUSH20 0xFFFFFFFFFFFFFFFFFFFFFFFFFFFFFFFFFFFFFFFF AND PUSH20 0xFFFFFFFFFFFFFFFFFFFFFFFFFFFFFFFFFFFFFFFF AND DUP2 MSTORE PUSH1 0x20 ADD SWAP1 DUP2 MSTORE PUSH1 0x20 ADD PUSH0 KECCAK256 PUSH0 PUSH2 0x100 EXP DUP2 SLOAD DUP2 PUSH1 0xFF MUL NOT AND SWAP1 DUP4 ISZERO ISZERO MUL OR SWAP1 SSTORE POP DUP1 PUSH1 0x4 ADD PUSH0 DUP2 SLOAD DUP1 SWAP3 SWAP2 SWAP1 PUSH2 0x7AE SWAP1 PUSH2 0x110E JUMP JUMPDEST SWAP2 SWAP1 POP SSTORE POP POP POP JUMP JUMPDEST PUSH1 0x6 SLOAD DUP2 JUMP JUMPDEST PUSH1 0x1 PUSH0 SWAP1 SLOAD SWAP1 PUSH2 0x100 EXP SWAP1 DIV PUSH20 0xFFFFFFFFFFFFFFFFFFFFFFFFFFFFFFFFFFFFFFFF AND PUSH20 0xFFFFFFFFFFFFFFFFFFFFFFFFFFFFFFFFFFFFFFFF AND CALLER PUSH20 0xFFFFFFFFFFFFFFFFFFFFFFFFFFFFFFFFFFFFFFFF AND EQ PUSH2 0x84C JUMPI PUSH1 0x40 MLOAD PUSH32 0x8C379A000000000000000000000000000000000000000000000000000000000 DUP2 MSTORE PUSH1 0x4 ADD PUSH2 0x843 SWAP1 PUSH2 0x11F8 JUMP JUMPDEST PUSH1 0x40 MLOAD DUP1 SWAP2 SUB SWAP1 REVERT JUMPDEST PUSH1 0x4 SLOAD PUSH1 0x5 SLOAD LT ISZERO PUSH2 0x85C JUMPI PUSH0 DUP1 REVERT JUMPDEST PUSH0 PUSH1 0x7 PUSH0 DUP4 DUP2 MSTORE PUSH1 0x20 ADD SWAP1 DUP2 MSTORE PUSH1 0x20 ADD PUSH0 KECCAK256 SWAP1 POP PUSH0 ISZERO ISZERO DUP2 PUSH1 0x3 ADD PUSH0 SWAP1 SLOAD SWAP1 PUSH2 0x100 EXP SWAP1 DIV PUSH1 0xFF AND ISZERO ISZERO EQ PUSH2 0x8C6 JUMPI PUSH1 0x40 MLOAD PUSH32 0x8C379A000000000000000000000000000000000000000000000000000000000 DUP2 MSTORE PUSH1 0x4 ADD PUSH2 0x8BD SWAP1 PUSH2 0x15F9 JUMP JUMPDEST PUSH1 0x40 MLOAD DUP1 SWAP2 SUB SWAP1 REVERT JUMPDEST PUSH1 0x2 PUSH1 0x6 SLOAD PUSH2 0x8D5 SWAP2 SWAP1 PUSH2 0x1644 JUMP JUMPDEST DUP2 PUSH1 0x4 ADD SLOAD GT PUSH2 0x91A JUMPI PUSH1 0x40 MLOAD PUSH32 0x8C379A000000000000000000000000000000000000000000000000000000000 DUP2 MSTORE PUSH1 0x4 ADD PUSH2 0x911 SWAP1 PUSH2 0x16BE JUMP JUMPDEST PUSH1 0x40 MLOAD DUP1 SWAP2 SUB SWAP1 REVERT JUMPDEST DUP1 PUSH1 0x1 ADD PUSH0 SWAP1 SLOAD SWAP1 PUSH2 0x100 EXP SWAP1 DIV PUSH20 0xFFFFFFFFFFFFFFFFFFFFFFFFFFFFFFFFFFFFFFFF AND PUSH20 0xFFFFFFFFFFFFFFFFFFFFFFFFFFFFFFFFFFFFFFFF AND PUSH2 0x8FC DUP3 PUSH1 0x2 ADD SLOAD SWAP1 DUP2 ISZERO MUL SWAP1 PUSH1 0x40 MLOAD PUSH0 PUSH1 0x40 MLOAD DUP1 DUP4 SUB DUP2 DUP6 DUP9 DUP9 CALL SWAP4 POP POP POP POP ISZERO DUP1 ISZERO PUSH2 0x984 JUMPI RETURNDATASIZE PUSH0 DUP1 RETURNDATACOPY RETURNDATASIZE PUSH0 REVERT JUMPDEST POP PUSH1 0x1 DUP2 PUSH1 0x3 ADD PUSH0 PUSH2 0x100 EXP DUP2 SLOAD DUP2 PUSH1 0xFF MUL NOT AND SWAP1 DUP4 ISZERO ISZERO MUL OR SWAP1 SSTORE POP POP POP JUMP JUMPDEST PUSH1 0x3 SLOAD TIMESTAMP GT DUP1 ISZERO PUSH2 0x9B9 JUMPI POP PUSH1 0x4 SLOAD PUSH1 0x5 SLOAD LT JUMPDEST PUSH2 0x9F8 JUMPI PUSH1 0x40 MLOAD PUSH32 0x8C379A000000000000000000000000000000000000000000000000000000000 DUP2 MSTORE PUSH1 0x4 ADD PUSH2 0x9EF SWAP1 PUSH2 0x1726 JUMP JUMPDEST PUSH1 0x40 MLOAD DUP1 SWAP2 SUB SWAP1 REVERT JUMPDEST PUSH0 DUP1 PUSH0 CALLER PUSH20 0xFFFFFFFFFFFFFFFFFFFFFFFFFFFFFFFFFFFFFFFF AND PUSH20 0xFFFFFFFFFFFFFFFFFFFFFFFFFFFFFFFFFFFFFFFF AND DUP2 MSTORE PUSH1 0x20 ADD SWAP1 DUP2 MSTORE PUSH1 0x20 ADD PUSH0 KECCAK256 SLOAD GT PUSH2 0xA3F JUMPI PUSH0 DUP1 REVERT JUMPDEST PUSH0 CALLER SWAP1 POP DUP1 PUSH20 0xFFFFFFFFFFFFFFFFFFFFFFFFFFFFFFFFFFFFFFFF AND PUSH2 0x8FC PUSH0 DUP1 CALLER PUSH20 0xFFFFFFFFFFFFFFFFFFFFFFFFFFFFFFFFFFFFFFFF AND PUSH20 0xFFFFFFFFFFFFFFFFFFFFFFFFFFFFFFFFFFFFFFFF AND DUP2 MSTORE PUSH1 0x20 ADD SWAP1 DUP2 MSTORE PUSH1 0x20 ADD PUSH0 KECCAK256 SLOAD SWAP1 DUP2 ISZERO MUL SWAP1 PUSH1 0x40 MLOAD PUSH0 PUSH1 0x40 MLOAD DUP1 DUP4 SUB DUP2 DUP6 DUP9 DUP9 CALL SWAP4 POP POP POP POP ISZERO DUP1 ISZERO PUSH2 0xAC2 JUMPI RETURNDATASIZE PUSH0 DUP1 RETURNDATACOPY RETURNDATASIZE PUSH0 REVERT JUMPDEST POP PUSH0 DUP1 PUSH0 CALLER PUSH20 0xFFFFFFFFFFFFFFFFFFFFFFFFFFFFFFFFFFFFFFFF AND PUSH20 0xFFFFFFFFFFFFFFFFFFFFFFFFFFFFFFFFFFFFFFFF AND DUP2 MSTORE PUSH1 0x20 ADD SWAP1 DUP2 MSTORE PUSH1 0x20 ADD PUSH0 KECCAK256 DUP2 SWAP1 SSTORE POP POP JUMP JUMPDEST PUSH0 SELFBALANCE SWAP1 POP SWAP1 JUMP JUMPDEST PUSH1 0x7 PUSH1 0x20 MSTORE DUP1 PUSH0 MSTORE PUSH1 0x40 PUSH0 KECCAK256 PUSH0 SWAP2 POP SWAP1 POP DUP1 PUSH0 ADD DUP1 SLOAD PUSH2 0xB2D SWAP1 PUSH2 0x1243 JUMP JUMPDEST DUP1 PUSH1 0x1F ADD PUSH1 0x20 DUP1 SWAP2 DIV MUL PUSH1 0x20 ADD PUSH1 0x40 MLOAD SWAP1 DUP2 ADD PUSH1 0x40 MSTORE DUP1 SWAP3 SWAP2 SWAP1 DUP2 DUP2 MSTORE PUSH1 0x20 ADD DUP3 DUP1 SLOAD PUSH2 0xB59 SWAP1 PUSH2 0x1243 JUMP JUMPDEST DUP1 ISZERO PUSH2 0xBA4 JUMPI DUP1 PUSH1 0x1F LT PUSH2 0xB7B JUMPI PUSH2 0x100 DUP1 DUP4 SLOAD DIV MUL DUP4 MSTORE SWAP2 PUSH1 0x20 ADD SWAP2 PUSH2 0xBA4 JUMP JUMPDEST DUP3 ADD SWAP2 SWAP1 PUSH0 MSTORE PUSH1 0x20 PUSH0 KECCAK256 SWAP1 JUMPDEST DUP2 SLOAD DUP2 MSTORE SWAP1 PUSH1 0x1 ADD SWAP1 PUSH1 0x20 ADD DUP1 DUP4 GT PUSH2 0xB87 JUMPI DUP3 SWAP1 SUB PUSH1 0x1F AND DUP3 ADD SWAP2 JUMPDEST POP POP POP POP POP SWAP1 DUP1 PUSH1 0x1 ADD PUSH0 SWAP1 SLOAD SWAP1 PUSH2 0x100 EXP SWAP1 DIV PUSH20 0xFFFFFFFFFFFFFFFFFFFFFFFFFFFFFFFFFFFFFFFF AND SWAP1 DUP1 PUSH1 0x2 ADD SLOAD SWAP1 DUP1 PUSH1 0x3 ADD PUSH0 SWAP1 SLOAD SWAP1 PUSH2 0x100 EXP SWAP1 DIV PUSH1 0xFF AND SWAP1 DUP1 PUSH1 0x4 ADD SLOAD SWAP1 POP DUP6 JUMP JUMPDEST PUSH1 0x2 SLOAD DUP2 JUMP JUMPDEST PUSH1 0x8 SLOAD DUP2 JUMP JUMPDEST PUSH1 0x5 SLOAD DUP2 JUMP JUMPDEST PUSH1 0x4 SLOAD DUP2 JUMP JUMPDEST PUSH0 PUSH1 0x40 MLOAD SWAP1 POP SWAP1 JUMP JUMPDEST PUSH0 DUP1 REVERT JUMPDEST PUSH0 DUP1 REVERT JUMPDEST PUSH0 PUSH20 0xFFFFFFFFFFFFFFFFFFFFFFFFFFFFFFFFFFFFFFFF DUP3 AND SWAP1 POP SWAP2 SWAP1 POP JUMP JUMPDEST PUSH0 PUSH2 0xC43 DUP3 PUSH2 0xC1A JUMP JUMPDEST SWAP1 POP SWAP2 SWAP1 POP JUMP JUMPDEST PUSH2 0xC53 DUP2 PUSH2 0xC39 JUMP JUMPDEST DUP2 EQ PUSH2 0xC5D JUMPI PUSH0 DUP1 REVERT JUMPDEST POP JUMP JUMPDEST PUSH0 DUP2 CALLDATALOAD SWAP1 POP PUSH2 0xC6E DUP2 PUSH2 0xC4A JUMP JUMPDEST SWAP3 SWAP2 POP POP JUMP JUMPDEST PUSH0 PUSH1 0x20 DUP3 DUP5 SUB SLT ISZERO PUSH2 0xC89 JUMPI PUSH2 0xC88 PUSH2 0xC12 JUMP JUMPDEST JUMPDEST PUSH0 PUSH2 0xC96 DUP5 DUP3 DUP6 ADD PUSH2 0xC60 JUMP JUMPDEST SWAP2 POP POP SWAP3 SWAP2 POP POP JUMP JUMPDEST PUSH0 DUP2 SWAP1 POP SWAP2 SWAP1 POP JUMP JUMPDEST PUSH2 0xCB1 DUP2 PUSH2 0xC9F JUMP JUMPDEST DUP3 MSTORE POP POP JUMP JUMPDEST PUSH0 PUSH1 0x20 DUP3 ADD SWAP1 POP PUSH2 0xCCA PUSH0 DUP4 ADD DUP5 PUSH2 0xCA8 JUMP JUMPDEST SWAP3 SWAP2 POP POP JUMP JUMPDEST PUSH0 DUP1 REVERT JUMPDEST PUSH0 DUP1 REVERT JUMPDEST PUSH0 PUSH1 0x1F NOT PUSH1 0x1F DUP4 ADD AND SWAP1 POP SWAP2 SWAP1 POP JUMP JUMPDEST PUSH32 0x4E487B7100000000000000000000000000000000000000000000000000000000 PUSH0 MSTORE PUSH1 0x41 PUSH1 0x4 MSTORE PUSH1 0x24 PUSH0 REVERT JUMPDEST PUSH2 0xD1E DUP3 PUSH2 0xCD8 JUMP JUMPDEST DUP2 ADD DUP2 DUP2 LT PUSH8 0xFFFFFFFFFFFFFFFF DUP3 GT OR ISZERO PUSH2 0xD3D JUMPI PUSH2 0xD3C PUSH2 0xCE8 JUMP JUMPDEST JUMPDEST DUP1 PUSH1 0x40 MSTORE POP POP POP JUMP JUMPDEST PUSH0 PUSH2 0xD4F PUSH2 0xC09 JUMP JUMPDEST SWAP1 POP PUSH2 0xD5B DUP3 DUP3 PUSH2 0xD15 JUMP JUMPDEST SWAP2 SWAP1 POP JUMP JUMPDEST PUSH0 PUSH8 0xFFFFFFFFFFFFFFFF DUP3 GT ISZERO PUSH2 0xD7A JUMPI PUSH2 0xD79 PUSH2 0xCE8 JUMP JUMPDEST JUMPDEST PUSH2 0xD83 DUP3 PUSH2 0xCD8 JUMP JUMPDEST SWAP1 POP PUSH1 0x20 DUP2 ADD SWAP1 POP SWAP2 SWAP1 POP JUMP JUMPDEST DUP3 DUP2 DUP4 CALLDATACOPY PUSH0 DUP4 DUP4 ADD MSTORE POP POP POP JUMP JUMPDEST PUSH0 PUSH2 0xDB0 PUSH2 0xDAB DUP5 PUSH2 0xD60 JUMP JUMPDEST PUSH2 0xD46 JUMP JUMPDEST SWAP1 POP DUP3 DUP2 MSTORE PUSH1 0x20 DUP2 ADD DUP5 DUP5 DUP5 ADD GT ISZERO PUSH2 0xDCC JUMPI PUSH2 0xDCB PUSH2 0xCD4 JUMP JUMPDEST JUMPDEST PUSH2 0xDD7 DUP5 DUP3 DUP6 PUSH2 0xD90 JUMP JUMPDEST POP SWAP4 SWAP3 POP POP POP JUMP JUMPDEST PUSH0 DUP3 PUSH1 0x1F DUP4 ADD SLT PUSH2 0xDF3 JUMPI PUSH2 0xDF2 PUSH2 0xCD0 JUMP JUMPDEST JUMPDEST DUP2 CALLDATALOAD PUSH2 0xE03 DUP5 DUP3 PUSH1 0x20 DUP7 ADD PUSH2 0xD9E JUMP JUMPDEST SWAP2 POP POP SWAP3 SWAP2 POP POP JUMP JUMPDEST PUSH0 PUSH2 0xE16 DUP3 PUSH2 0xC1A JUMP JUMPDEST SWAP1 POP SWAP2 SWAP1 POP JUMP JUMPDEST PUSH2 0xE26 DUP2 PUSH2 0xE0C JUMP JUMPDEST DUP2 EQ PUSH2 0xE30 JUMPI PUSH0 DUP1 REVERT JUMPDEST POP JUMP JUMPDEST PUSH0 DUP2 CALLDATALOAD SWAP1 POP PUSH2 0xE41 DUP2 PUSH2 0xE1D JUMP JUMPDEST SWAP3 SWAP2 POP POP JUMP JUMPDEST PUSH2 0xE50 DUP2 PUSH2 0xC9F JUMP JUMPDEST DUP2 EQ PUSH2 0xE5A JUMPI PUSH0 DUP1 REVERT JUMPDEST POP JUMP JUMPDEST PUSH0 DUP2 CALLDATALOAD SWAP1 POP PUSH2 0xE6B DUP2 PUSH2 0xE47 JUMP JUMPDEST SWAP3 SWAP2 POP POP JUMP JUMPDEST PUSH0 DUP1 PUSH0 PUSH1 0x60 DUP5 DUP7 SUB SLT ISZERO PUSH2 0xE88 JUMPI PUSH2 0xE87 PUSH2 0xC12 JUMP JUMPDEST JUMPDEST PUSH0 DUP5 ADD CALLDATALOAD PUSH8 0xFFFFFFFFFFFFFFFF DUP2 GT ISZERO PUSH2 0xEA5 JUMPI PUSH2 0xEA4 PUSH2 0xC16 JUMP JUMPDEST JUMPDEST PUSH2 0xEB1 DUP7 DUP3 DUP8 ADD PUSH2 0xDDF JUMP JUMPDEST SWAP4 POP POP PUSH1 0x20 PUSH2 0xEC2 DUP7 DUP3 DUP8 ADD PUSH2 0xE33 JUMP JUMPDEST SWAP3 POP POP PUSH1 0x40 PUSH2 0xED3 DUP7 DUP3 DUP8 ADD PUSH2 0xE5D JUMP JUMPDEST SWAP2 POP POP SWAP3 POP SWAP3 POP SWAP3 JUMP JUMPDEST PUSH2 0xEE6 DUP2 PUSH2 0xC39 JUMP JUMPDEST DUP3 MSTORE POP POP JUMP JUMPDEST PUSH0 PUSH1 0x20 DUP3 ADD SWAP1 POP PUSH2 0xEFF PUSH0 DUP4 ADD DUP5 PUSH2 0xEDD JUMP JUMPDEST SWAP3 SWAP2 POP POP JUMP JUMPDEST PUSH0 PUSH1 0x20 DUP3 DUP5 SUB SLT ISZERO PUSH2 0xF1A JUMPI PUSH2 0xF19 PUSH2 0xC12 JUMP JUMPDEST JUMPDEST PUSH0 PUSH2 0xF27 DUP5 DUP3 DUP6 ADD PUSH2 0xE5D JUMP JUMPDEST SWAP2 POP POP SWAP3 SWAP2 POP POP JUMP JUMPDEST PUSH0 DUP2 MLOAD SWAP1 POP SWAP2 SWAP1 POP JUMP JUMPDEST PUSH0 DUP3 DUP3 MSTORE PUSH1 0x20 DUP3 ADD SWAP1 POP SWAP3 SWAP2 POP POP JUMP JUMPDEST DUP3 DUP2 DUP4 MCOPY PUSH0 DUP4 DUP4 ADD MSTORE POP POP POP JUMP JUMPDEST PUSH0 PUSH2 0xF62 DUP3 PUSH2 0xF30 JUMP JUMPDEST PUSH2 0xF6C DUP2 DUP6 PUSH2 0xF3A JUMP JUMPDEST SWAP4 POP PUSH2 0xF7C DUP2 DUP6 PUSH1 0x20 DUP7 ADD PUSH2 0xF4A JUMP JUMPDEST PUSH2 0xF85 DUP2 PUSH2 0xCD8 JUMP JUMPDEST DUP5 ADD SWAP2 POP POP SWAP3 SWAP2 POP POP JUMP JUMPDEST PUSH2 0xF99 DUP2 PUSH2 0xE0C JUMP JUMPDEST DUP3 MSTORE POP POP JUMP JUMPDEST PUSH0 DUP2 ISZERO ISZERO SWAP1 POP SWAP2 SWAP1 POP JUMP JUMPDEST PUSH2 0xFB3 DUP2 PUSH2 0xF9F JUMP JUMPDEST DUP3 MSTORE POP POP JUMP JUMPDEST PUSH0 PUSH1 0xA0 DUP3 ADD SWAP1 POP DUP2 DUP2 SUB PUSH0 DUP4 ADD MSTORE PUSH2 0xFD1 DUP2 DUP9 PUSH2 0xF58 JUMP JUMPDEST SWAP1 POP PUSH2 0xFE0 PUSH1 0x20 DUP4 ADD DUP8 PUSH2 0xF90 JUMP JUMPDEST PUSH2 0xFED PUSH1 0x40 DUP4 ADD DUP7 PUSH2 0xCA8 JUMP JUMPDEST PUSH2 0xFFA PUSH1 0x60 DUP4 ADD DUP6 PUSH2 0xFAA JUMP JUMPDEST PUSH2 0x1007 PUSH1 0x80 DUP4 ADD DUP5 PUSH2 0xCA8 JUMP JUMPDEST SWAP7 SWAP6 POP POP POP POP POP POP JUMP JUMPDEST PUSH32 0x446561646C696E65206861732070617373656400000000000000000000000000 PUSH0 DUP3 ADD MSTORE POP JUMP JUMPDEST PUSH0 PUSH2 0x1045 PUSH1 0x13 DUP4 PUSH2 0xF3A JUMP JUMPDEST SWAP2 POP PUSH2 0x1050 DUP3 PUSH2 0x1011 JUMP JUMPDEST PUSH1 0x20 DUP3 ADD SWAP1 POP SWAP2 SWAP1 POP JUMP JUMPDEST PUSH0 PUSH1 0x20 DUP3 ADD SWAP1 POP DUP2 DUP2 SUB PUSH0 DUP4 ADD MSTORE PUSH2 0x1072 DUP2 PUSH2 0x1039 JUMP JUMPDEST SWAP1 POP SWAP2 SWAP1 POP JUMP JUMPDEST PUSH32 0x4D696E696D756D20436F6E747269627574696F6E206973206E6F74206D657400 PUSH0 DUP3 ADD MSTORE POP JUMP JUMPDEST PUSH0 PUSH2 0x10AD PUSH1 0x1F DUP4 PUSH2 0xF3A JUMP JUMPDEST SWAP2 POP PUSH2 0x10B8 DUP3 PUSH2 0x1079 JUMP JUMPDEST PUSH1 0x20 DUP3 ADD SWAP1 POP SWAP2 SWAP1 POP JUMP JUMPDEST PUSH0 PUSH1 0x20 DUP3 ADD SWAP1 POP DUP2 DUP2 SUB PUSH0 DUP4 ADD MSTORE PUSH2 0x10DA DUP2 PUSH2 0x10A1 JUMP JUMPDEST SWAP1 POP SWAP2 SWAP1 POP JUMP JUMPDEST PUSH32 0x4E487B7100000000000000000000000000000000000000000000000000000000 PUSH0 MSTORE PUSH1 0x11 PUSH1 0x4 MSTORE PUSH1 0x24 PUSH0 REVERT JUMPDEST PUSH0 PUSH2 0x1118 DUP3 PUSH2 0xC9F JUMP JUMPDEST SWAP2 POP PUSH32 0xFFFFFFFFFFFFFFFFFFFFFFFFFFFFFFFFFFFFFFFFFFFFFFFFFFFFFFFFFFFFFFFF DUP3 SUB PUSH2 0x114A JUMPI PUSH2 0x1149 PUSH2 0x10E1 JUMP JUMPDEST JUMPDEST PUSH1 0x1 DUP3 ADD SWAP1 POP SWAP2 SWAP1 POP JUMP JUMPDEST PUSH0 PUSH2 0x115F DUP3 PUSH2 0xC9F JUMP JUMPDEST SWAP2 POP PUSH2 0x116A DUP4 PUSH2 0xC9F JUMP JUMPDEST SWAP3 POP DUP3 DUP3 ADD SWAP1 POP DUP1 DUP3 GT ISZERO PUSH2 0x1182 JUMPI PUSH2 0x1181 PUSH2 0x10E1 JUMP JUMPDEST JUMPDEST SWAP3 SWAP2 POP POP JUMP JUMPDEST PUSH32 0x4F6E6C79206D616E616765722063616E2063616C6C6C20746869732066756E63 PUSH0 DUP3 ADD MSTORE PUSH32 0x74696F6E00000000000000000000000000000000000000000000000000000000 PUSH1 0x20 DUP3 ADD MSTORE POP JUMP JUMPDEST PUSH0 PUSH2 0x11E2 PUSH1 0x24 DUP4 PUSH2 0xF3A JUMP JUMPDEST SWAP2 POP PUSH2 0x11ED DUP3 PUSH2 0x1188 JUMP JUMPDEST PUSH1 0x40 DUP3 ADD SWAP1 POP SWAP2 SWAP1 POP JUMP JUMPDEST PUSH0 PUSH1 0x20 DUP3 ADD SWAP1 POP DUP2 DUP2 SUB PUSH0 DUP4 ADD MSTORE PUSH2 0x120F DUP2 PUSH2 0x11D6 JUMP JUMPDEST SWAP1 POP SWAP2 SWAP1 POP JUMP JUMPDEST PUSH32 0x4E487B7100000000000000000000000000000000000000000000000000000000 PUSH0 MSTORE PUSH1 0x22 PUSH1 0x4 MSTORE PUSH1 0x24 PUSH0 REVERT JUMPDEST PUSH0 PUSH1 0x2 DUP3 DIV SWAP1 POP PUSH1 0x1 DUP3 AND DUP1 PUSH2 0x125A JUMPI PUSH1 0x7F DUP3 AND SWAP2 POP JUMPDEST PUSH1 0x20 DUP3 LT DUP2 SUB PUSH2 0x126D JUMPI PUSH2 0x126C PUSH2 0x1216 JUMP JUMPDEST JUMPDEST POP SWAP2 SWAP1 POP JUMP JUMPDEST PUSH0 DUP2 SWAP1 POP DUP2 PUSH0 MSTORE PUSH1 0x20 PUSH0 KECCAK256 SWAP1 POP SWAP2 SWAP1 POP JUMP JUMPDEST PUSH0 PUSH1 0x20 PUSH1 0x1F DUP4 ADD DIV SWAP1 POP SWAP2 SWAP1 POP JUMP JUMPDEST PUSH0 DUP3 DUP3 SHL SWAP1 POP SWAP3 SWAP2 POP POP JUMP JUMPDEST PUSH0 PUSH1 0x8 DUP4 MUL PUSH2 0x12CF PUSH32 0xFFFFFFFFFFFFFFFFFFFFFFFFFFFFFFFFFFFFFFFFFFFFFFFFFFFFFFFFFFFFFFFF DUP3 PUSH2 0x1294 JUMP JUMPDEST PUSH2 0x12D9 DUP7 DUP4 PUSH2 0x1294 JUMP JUMPDEST SWAP6 POP DUP1 NOT DUP5 AND SWAP4 POP DUP1 DUP7 AND DUP5 OR SWAP3 POP POP POP SWAP4 SWAP3 POP POP POP JUMP JUMPDEST PUSH0 DUP2 SWAP1 POP SWAP2 SWAP1 POP JUMP JUMPDEST PUSH0 PUSH2 0x1314 PUSH2 0x130F PUSH2 0x130A DUP5 PUSH2 0xC9F JUMP JUMPDEST PUSH2 0x12F1 JUMP JUMPDEST PUSH2 0xC9F JUMP JUMPDEST SWAP1 POP SWAP2 SWAP1 POP JUMP JUMPDEST PUSH0 DUP2 SWAP1 POP SWAP2 SWAP1 POP JUMP JUMPDEST PUSH2 0x132D DUP4 PUSH2 0x12FA JUMP JUMPDEST PUSH2 0x1341 PUSH2 0x1339 DUP3 PUSH2 0x131B JUMP JUMPDEST DUP5 DUP5 SLOAD PUSH2 0x12A0 JUMP JUMPDEST DUP3 SSTORE POP POP POP POP JUMP JUMPDEST PUSH0 SWAP1 JUMP JUMPDEST PUSH2 0x1355 PUSH2 0x1349 JUMP JUMPDEST PUSH2 0x1360 DUP2 DUP5 DUP5 PUSH2 0x1324 JUMP JUMPDEST POP POP POP JUMP JUMPDEST JUMPDEST DUP2 DUP2 LT ISZERO PUSH2 0x1383 JUMPI PUSH2 0x1378 PUSH0 DUP3 PUSH2 0x134D JUMP JUMPDEST PUSH1 0x1 DUP2 ADD SWAP1 POP PUSH2 0x1366 JUMP JUMPDEST POP POP JUMP JUMPDEST PUSH1 0x1F DUP3 GT ISZERO PUSH2 0x13C8 JUMPI PUSH2 0x1399 DUP2 PUSH2 0x1273 JUMP JUMPDEST PUSH2 0x13A2 DUP5 PUSH2 0x1285 JUMP JUMPDEST DUP2 ADD PUSH1 0x20 DUP6 LT ISZERO PUSH2 0x13B1 JUMPI DUP2 SWAP1 POP JUMPDEST PUSH2 0x13C5 PUSH2 0x13BD DUP6 PUSH2 0x1285 JUMP JUMPDEST DUP4 ADD DUP3 PUSH2 0x1365 JUMP JUMPDEST POP POP JUMPDEST POP POP POP JUMP JUMPDEST PUSH0 DUP3 DUP3 SHR SWAP1 POP SWAP3 SWAP2 POP POP JUMP JUMPDEST PUSH0 PUSH2 0x13E8 PUSH0 NOT DUP5 PUSH1 0x8 MUL PUSH2 0x13CD JUMP JUMPDEST NOT DUP1 DUP4 AND SWAP2 POP POP SWAP3 SWAP2 POP POP JUMP JUMPDEST PUSH0 PUSH2 0x1400 DUP4 DUP4 PUSH2 0x13D9 JUMP JUMPDEST SWAP2 POP DUP3 PUSH1 0x2 MUL DUP3 OR SWAP1 POP SWAP3 SWAP2 POP POP JUMP JUMPDEST PUSH2 0x1419 DUP3 PUSH2 0xF30 JUMP JUMPDEST PUSH8 0xFFFFFFFFFFFFFFFF DUP2 GT ISZERO PUSH2 0x1432 JUMPI PUSH2 0x1431 PUSH2 0xCE8 JUMP JUMPDEST JUMPDEST PUSH2 0x143C DUP3 SLOAD PUSH2 0x1243 JUMP JUMPDEST PUSH2 0x1447 DUP3 DUP3 DUP6 PUSH2 0x1387 JUMP JUMPDEST PUSH0 PUSH1 0x20 SWAP1 POP PUSH1 0x1F DUP4 GT PUSH1 0x1 DUP2 EQ PUSH2 0x1478 JUMPI PUSH0 DUP5 ISZERO PUSH2 0x1466 JUMPI DUP3 DUP8 ADD MLOAD SWAP1 POP JUMPDEST PUSH2 0x1470 DUP6 DUP3 PUSH2 0x13F5 JUMP JUMPDEST DUP7 SSTORE POP PUSH2 0x14D7 JUMP JUMPDEST PUSH1 0x1F NOT DUP5 AND PUSH2 0x1486 DUP7 PUSH2 0x1273 JUMP JUMPDEST PUSH0 JUMPDEST DUP3 DUP2 LT ISZERO PUSH2 0x14AD JUMPI DUP5 DUP10 ADD MLOAD DUP3 SSTORE PUSH1 0x1 DUP3 ADD SWAP2 POP PUSH1 0x20 DUP6 ADD SWAP5 POP PUSH1 0x20 DUP2 ADD SWAP1 POP PUSH2 0x1488 JUMP JUMPDEST DUP7 DUP4 LT ISZERO PUSH2 0x14CA JUMPI DUP5 DUP10 ADD MLOAD PUSH2 0x14C6 PUSH1 0x1F DUP10 AND DUP3 PUSH2 0x13D9 JUMP JUMPDEST DUP4 SSTORE POP JUMPDEST PUSH1 0x1 PUSH1 0x2 DUP9 MUL ADD DUP9 SSTORE POP POP POP JUMPDEST POP POP POP POP POP POP JUMP JUMPDEST PUSH32 0x594F75206D75737420626520636F6E7472696275746F72000000000000000000 PUSH0 DUP3 ADD MSTORE POP JUMP JUMPDEST PUSH0 PUSH2 0x1513 PUSH1 0x17 DUP4 PUSH2 0xF3A JUMP JUMPDEST SWAP2 POP PUSH2 0x151E DUP3 PUSH2 0x14DF JUMP JUMPDEST PUSH1 0x20 DUP3 ADD SWAP1 POP SWAP2 SWAP1 POP JUMP JUMPDEST PUSH0 PUSH1 0x20 DUP3 ADD SWAP1 POP DUP2 DUP2 SUB PUSH0 DUP4 ADD MSTORE PUSH2 0x1540 DUP2 PUSH2 0x1507 JUMP JUMPDEST SWAP1 POP SWAP2 SWAP1 POP JUMP JUMPDEST PUSH32 0x596F75206861766520616C726561647920766F74656400000000000000000000 PUSH0 DUP3 ADD MSTORE POP JUMP JUMPDEST PUSH0 PUSH2 0x157B PUSH1 0x16 DUP4 PUSH2 0xF3A JUMP JUMPDEST SWAP2 POP PUSH2 0x1586 DUP3 PUSH2 0x1547 JUMP JUMPDEST PUSH1 0x20 DUP3 ADD SWAP1 POP SWAP2 SWAP1 POP JUMP JUMPDEST PUSH0 PUSH1 0x20 DUP3 ADD SWAP1 POP DUP2 DUP2 SUB PUSH0 DUP4 ADD MSTORE PUSH2 0x15A8 DUP2 PUSH2 0x156F JUMP JUMPDEST SWAP1 POP SWAP2 SWAP1 POP JUMP JUMPDEST PUSH32 0x546865207265717565737420686173206265656E20636F6D706C657465640000 PUSH0 DUP3 ADD MSTORE POP JUMP JUMPDEST PUSH0 PUSH2 0x15E3 PUSH1 0x1E DUP4 PUSH2 0xF3A JUMP JUMPDEST SWAP2 POP PUSH2 0x15EE DUP3 PUSH2 0x15AF JUMP JUMPDEST PUSH1 0x20 DUP3 ADD SWAP1 POP SWAP2 SWAP1 POP JUMP JUMPDEST PUSH0 PUSH1 0x20 DUP3 ADD SWAP1 POP DUP2 DUP2 SUB PUSH0 DUP4 ADD MSTORE PUSH2 0x1610 DUP2 PUSH2 0x15D7 JUMP JUMPDEST SWAP1 POP SWAP2 SWAP1 POP JUMP JUMPDEST PUSH32 0x4E487B7100000000000000000000000000000000000000000000000000000000 PUSH0 MSTORE PUSH1 0x12 PUSH1 0x4 MSTORE PUSH1 0x24 PUSH0 REVERT JUMPDEST PUSH0 PUSH2 0x164E DUP3 PUSH2 0xC9F JUMP JUMPDEST SWAP2 POP PUSH2 0x1659 DUP4 PUSH2 0xC9F JUMP JUMPDEST SWAP3 POP DUP3 PUSH2 0x1669 JUMPI PUSH2 0x1668 PUSH2 0x1617 JUMP JUMPDEST JUMPDEST DUP3 DUP3 DIV SWAP1 POP SWAP3 SWAP2 POP POP JUMP JUMPDEST PUSH32 0x4D616A6F7269747920646F6573206E6F7420737570706F727400000000000000 PUSH0 DUP3 ADD MSTORE POP JUMP JUMPDEST PUSH0 PUSH2 0x16A8 PUSH1 0x19 DUP4 PUSH2 0xF3A JUMP JUMPDEST SWAP2 POP PUSH2 0x16B3 DUP3 PUSH2 0x1674 JUMP JUMPDEST PUSH1 0x20 DUP3 ADD SWAP1 POP SWAP2 SWAP1 POP JUMP JUMPDEST PUSH0 PUSH1 0x20 DUP3 ADD SWAP1 POP DUP2 DUP2 SUB PUSH0 DUP4 ADD MSTORE PUSH2 0x16D5 DUP2 PUSH2 0x169C JUMP JUMPDEST SWAP1 POP SWAP2 SWAP1 POP JUMP JUMPDEST PUSH32 0x596F7520617265206E6F7420656C696769626C6520666F7220726566756E6400 PUSH0 DUP3 ADD MSTORE POP JUMP JUMPDEST PUSH0 PUSH2 0x1710 PUSH1 0x1F DUP4 PUSH2 0xF3A JUMP JUMPDEST SWAP2 POP PUSH2 0x171B DUP3 PUSH2 0x16DC JUMP JUMPDEST PUSH1 0x20 DUP3 ADD SWAP1 POP SWAP2 SWAP1 POP JUMP JUMPDEST PUSH0 PUSH1 0x20 DUP3 ADD SWAP1 POP DUP2 DUP2 SUB PUSH0 DUP4 ADD MSTORE PUSH2 0x173D DUP2 PUSH2 0x1704 JUMP JUMPDEST SWAP1 POP SWAP2 SWAP1 POP JUMP INVALID LOG2 PUSH5 0x6970667358 0x22 SLT KECCAK256 0xD8 DUP2 0xD1 0xE7 0xB9 SWAP11 STATICCALL SWAP3 0xE7 0xB6 0xB0 POP DUP7 0x25 PUSH31 0x3D452A3CF4CE0BB0905043B04C835061E364736F6C634300081A0033000000 "
				},
				"gasEstimates": {
					"creation": {
						"codeDepositCost": "1202000",
						"executionCost": "infinite",
						"totalCost": "infinite"
					},
					"external": {
						"contributors(address)": "2847",
						"createRequests(string,address,uint256)": "infinite",
						"deadline()": "2493",
						"getContractBalance()": "401",
						"makePayment(uint256)": "infinite",
						"manager()": "2553",
						"minimumContribution()": "2447",
						"noOfContributors()": "2514",
						"numRequests()": "2469",
						"raisedAmount()": "2491",
						"refund()": "infinite",
						"requests(uint256)": "infinite",
						"sendEth()": "infinite",
						"target()": "2513",
						"voteRequest(uint256)": "infinite"
					}
				},
				"methodIdentifiers": {
					"contributors(address)": "1f6d4942",
					"createRequests(string,address,uint256)": "3eb7647b",
					"deadline()": "29dcb0cf",
					"getContractBalance()": "6f9fb98a",
					"makePayment(uint256)": "5114cb52",
					"manager()": "481c6a75",
					"minimumContribution()": "937e09b1",
					"noOfContributors()": "4e260f6f",
					"numRequests()": "9fb42b1f",
					"raisedAmount()": "c59ee1dc",
					"refund()": "590e1ae3",
					"requests(uint256)": "81d12c58",
					"sendEth()": "06e99fef",
					"target()": "d4b83992",
					"voteRequest(uint256)": "4cb6f4a5"
				}
			},
			"storageLayout": {
				"storage": [
					{
						"astId": 5,
						"contract": "crowdfunding.sol:CrowdFunding",
						"label": "contributors",
						"offset": 0,
						"slot": "0",
						"type": "t_mapping(t_address,t_uint256)"
					},
					{
						"astId": 7,
						"contract": "crowdfunding.sol:CrowdFunding",
						"label": "manager",
						"offset": 0,
						"slot": "1",
						"type": "t_address"
					},
					{
						"astId": 9,
						"contract": "crowdfunding.sol:CrowdFunding",
						"label": "minimumContribution",
						"offset": 0,
						"slot": "2",
						"type": "t_uint256"
					},
					{
						"astId": 11,
						"contract": "crowdfunding.sol:CrowdFunding",
						"label": "deadline",
						"offset": 0,
						"slot": "3",
						"type": "t_uint256"
					},
					{
						"astId": 13,
						"contract": "crowdfunding.sol:CrowdFunding",
						"label": "target",
						"offset": 0,
						"slot": "4",
						"type": "t_uint256"
					},
					{
						"astId": 15,
						"contract": "crowdfunding.sol:CrowdFunding",
						"label": "raisedAmount",
						"offset": 0,
						"slot": "5",
						"type": "t_uint256"
					},
					{
						"astId": 17,
						"contract": "crowdfunding.sol:CrowdFunding",
						"label": "noOfContributors",
						"offset": 0,
						"slot": "6",
						"type": "t_uint256"
					},
					{
						"astId": 37,
						"contract": "crowdfunding.sol:CrowdFunding",
						"label": "requests",
						"offset": 0,
						"slot": "7",
						"type": "t_mapping(t_uint256,t_struct(Request)32_storage)"
					},
					{
						"astId": 39,
						"contract": "crowdfunding.sol:CrowdFunding",
						"label": "numRequests",
						"offset": 0,
						"slot": "8",
						"type": "t_uint256"
					}
				],
				"types": {
					"t_address": {
						"encoding": "inplace",
						"label": "address",
						"numberOfBytes": "20"
					},
					"t_address_payable": {
						"encoding": "inplace",
						"label": "address payable",
						"numberOfBytes": "20"
					},
					"t_bool": {
						"encoding": "inplace",
						"label": "bool",
						"numberOfBytes": "1"
					},
					"t_mapping(t_address,t_bool)": {
						"encoding": "mapping",
						"key": "t_address",
						"label": "mapping(address => bool)",
						"numberOfBytes": "32",
						"value": "t_bool"
					},
					"t_mapping(t_address,t_uint256)": {
						"encoding": "mapping",
						"key": "t_address",
						"label": "mapping(address => uint256)",
						"numberOfBytes": "32",
						"value": "t_uint256"
					},
					"t_mapping(t_uint256,t_struct(Request)32_storage)": {
						"encoding": "mapping",
						"key": "t_uint256",
						"label": "mapping(uint256 => struct CrowdFunding.Request)",
						"numberOfBytes": "32",
						"value": "t_struct(Request)32_storage"
					},
					"t_string_storage": {
						"encoding": "bytes",
						"label": "string",
						"numberOfBytes": "32"
					},
					"t_struct(Request)32_storage": {
						"encoding": "inplace",
						"label": "struct CrowdFunding.Request",
						"members": [
							{
								"astId": 19,
								"contract": "crowdfunding.sol:CrowdFunding",
								"label": "description",
								"offset": 0,
								"slot": "0",
								"type": "t_string_storage"
							},
							{
								"astId": 21,
								"contract": "crowdfunding.sol:CrowdFunding",
								"label": "recipient",
								"offset": 0,
								"slot": "1",
								"type": "t_address_payable"
							},
							{
								"astId": 23,
								"contract": "crowdfunding.sol:CrowdFunding",
								"label": "value",
								"offset": 0,
								"slot": "2",
								"type": "t_uint256"
							},
							{
								"astId": 25,
								"contract": "crowdfunding.sol:CrowdFunding",
								"label": "completed",
								"offset": 0,
								"slot": "3",
								"type": "t_bool"
							},
							{
								"astId": 27,
								"contract": "crowdfunding.sol:CrowdFunding",
								"label": "noOfVoters",
								"offset": 0,
								"slot": "4",
								"type": "t_uint256"
							},
							{
								"astId": 31,
								"contract": "crowdfunding.sol:CrowdFunding",
								"label": "voters",
								"offset": 0,
								"slot": "5",
								"type": "t_mapping(t_address,t_bool)"
							}
						],
						"numberOfBytes": "192"
					},
					"t_uint256": {
						"encoding": "inplace",
						"label": "uint256",
						"numberOfBytes": "32"
					}
				}
			},
			"userdoc": {
				"kind": "user",
				"methods": {},
				"version": 1
			}
		}
	}
}